{
    "abi": [
        {
            "type": "constructor",
            "inputs": [],
            "stateMutability": "nonpayable"
        },
        {
            "type": "receive",
            "stateMutability": "payable"
        },
        {
            "type": "function",
            "name": "addChildToFamily",
            "inputs": [
                {
                    "name": "familyId",
                    "type": "uint256",
                    "internalType": "uint256"
                },
                {
                    "name": "child",
                    "type": "address",
                    "internalType": "address"
                }
            ],
            "outputs": [],
            "stateMutability": "nonpayable"
        },
        {
            "type": "function",
            "name": "addFunds",
            "inputs": [
                {
                    "name": "familyId",
                    "type": "uint256",
                    "internalType": "uint256"
                }
            ],
            "outputs": [],
            "stateMutability": "payable"
        },
        {
            "type": "function",
            "name": "addParentToFamily",
            "inputs": [
                {
                    "name": "familyId",
                    "type": "uint256",
                    "internalType": "uint256"
                },
                {
                    "name": "newParent",
                    "type": "address",
                    "internalType": "address"
                }
            ],
            "outputs": [],
            "stateMutability": "nonpayable"
        },
        {
            "type": "function",
            "name": "addVendorToFamily",
            "inputs": [
                {
                    "name": "familyId",
                    "type": "uint256",
                    "internalType": "uint256"
                },
                {
                    "name": "vendor",
                    "type": "address",
                    "internalType": "address"
                },
                {
                    "name": "category",
                    "type": "uint8",
                    "internalType": "enum FamilySharedWallet.Category"
                }
            ],
            "outputs": [],
            "stateMutability": "nonpayable"
        },
        {
            "type": "function",
            "name": "createFamily",
            "inputs": [],
            "outputs": [
                {
                    "name": "familyId",
                    "type": "uint256",
                    "internalType": "uint256"
                }
            ],
            "stateMutability": "payable"
        },
        {
            "type": "function",
            "name": "families",
            "inputs": [
                {
                    "name": "",
                    "type": "uint256",
                    "internalType": "uint256"
                }
            ],
            "outputs": [
                {
                    "name": "familyId",
                    "type": "uint256",
                    "internalType": "uint256"
                },
                {
                    "name": "familyCreator",
                    "type": "address",
                    "internalType": "address"
                },
                {
                    "name": "isActive",
                    "type": "bool",
                    "internalType": "bool"
                },
                {
                    "name": "createdAt",
                    "type": "uint32",
                    "internalType": "uint32"
                },
                {
                    "name": "familyBalance",
                    "type": "uint256",
                    "internalType": "uint256"
                }
            ],
            "stateMutability": "view"
        },
        {
            "type": "function",
            "name": "familyCategorySpending",
            "inputs": [
                {
                    "name": "",
                    "type": "uint256",
                    "internalType": "uint256"
                },
                {
                    "name": "",
                    "type": "address",
                    "internalType": "address"
                },
                {
                    "name": "",
                    "type": "uint8",
                    "internalType": "enum FamilySharedWallet.Category"
                }
            ],
            "outputs": [
                {
                    "name": "limit",
                    "type": "uint128",
                    "internalType": "uint128"
                },
                {
                    "name": "spent",
                    "type": "uint128",
                    "internalType": "uint128"
                }
            ],
            "stateMutability": "view"
        },
        {
            "type": "function",
            "name": "familyParents",
            "inputs": [
                {
                    "name": "",
                    "type": "uint256",
                    "internalType": "uint256"
                },
                {
                    "name": "",
                    "type": "address",
                    "internalType": "address"
                }
            ],
            "outputs": [
                {
                    "name": "",
                    "type": "bool",
                    "internalType": "bool"
                }
            ],
            "stateMutability": "view"
        },
        {
            "type": "function",
            "name": "familyUsers",
            "inputs": [
                {
                    "name": "",
                    "type": "uint256",
                    "internalType": "uint256"
                },
                {
                    "name": "",
                    "type": "address",
                    "internalType": "address"
                }
            ],
            "outputs": [
                {
                    "name": "isChild",
                    "type": "bool",
                    "internalType": "bool"
                },
                {
                    "name": "isActive",
                    "type": "bool",
                    "internalType": "bool"
                },
                {
                    "name": "lastResetTime",
                    "type": "uint32",
                    "internalType": "uint32"
                },
                {
                    "name": "totalMonthlyLimit",
                    "type": "uint128",
                    "internalType": "uint128"
                },
                {
                    "name": "totalSpent",
                    "type": "uint128",
                    "internalType": "uint128"
                }
            ],
            "stateMutability": "view"
        },
        {
            "type": "function",
            "name": "familyVendors",
            "inputs": [
                {
                    "name": "",
                    "type": "uint256",
                    "internalType": "uint256"
                },
                {
                    "name": "",
                    "type": "address",
                    "internalType": "address"
                }
            ],
            "outputs": [
                {
                    "name": "category",
                    "type": "uint8",
                    "internalType": "enum FamilySharedWallet.Category"
                },
                {
                    "name": "isActive",
                    "type": "bool",
                    "internalType": "bool"
                }
            ],
            "stateMutability": "view"
        },
        {
            "type": "function",
            "name": "getContractBalance",
            "inputs": [],
            "outputs": [
                {
                    "name": "",
                    "type": "uint256",
                    "internalType": "uint256"
                }
            ],
            "stateMutability": "view"
        },
        {
            "type": "function",
            "name": "getDetailedReport",
            "inputs": [
                {
                    "name": "familyId",
                    "type": "uint256",
                    "internalType": "uint256"
                },
                {
                    "name": "child",
                    "type": "address",
                    "internalType": "address"
                }
            ],
            "outputs": [
                {
                    "name": "spent",
                    "type": "uint128[5]",
                    "internalType": "uint128[5]"
                },
                {
                    "name": "limits",
                    "type": "uint128[5]",
                    "internalType": "uint128[5]"
                },
                {
                    "name": "remaining",
                    "type": "uint128[5]",
                    "internalType": "uint128[5]"
                }
            ],
            "stateMutability": "view"
        },
        {
            "type": "function",
            "name": "getFamilyChildren",
            "inputs": [
                {
                    "name": "familyId",
                    "type": "uint256",
                    "internalType": "uint256"
                }
            ],
            "outputs": [
                {
                    "name": "",
                    "type": "address[]",
                    "internalType": "address[]"
                }
            ],
            "stateMutability": "view"
        },
        {
            "type": "function",
            "name": "getFamilyInfo",
            "inputs": [
                {
                    "name": "familyId",
                    "type": "uint256",
                    "internalType": "uint256"
                }
            ],
            "outputs": [
                {
                    "name": "id",
                    "type": "uint256",
                    "internalType": "uint256"
                },
                {
                    "name": "creator",
                    "type": "address",
                    "internalType": "address"
                },
                {
                    "name": "active",
                    "type": "bool",
                    "internalType": "bool"
                },
                {
                    "name": "createdAt",
                    "type": "uint32",
                    "internalType": "uint32"
                },
                {
                    "name": "parentCount",
                    "type": "uint256",
                    "internalType": "uint256"
                },
                {
                    "name": "childCount",
                    "type": "uint256",
                    "internalType": "uint256"
                },
                {
                    "name": "vendorCount",
                    "type": "uint256",
                    "internalType": "uint256"
                }
            ],
            "stateMutability": "view"
        },
        {
            "type": "function",
            "name": "getFamilyParents",
            "inputs": [
                {
                    "name": "familyId",
                    "type": "uint256",
                    "internalType": "uint256"
                }
            ],
            "outputs": [
                {
                    "name": "",
                    "type": "address[]",
                    "internalType": "address[]"
                }
            ],
            "stateMutability": "view"
        },
        {
            "type": "function",
            "name": "getFamilyVendors",
            "inputs": [
                {
                    "name": "familyId",
                    "type": "uint256",
                    "internalType": "uint256"
                }
            ],
            "outputs": [
                {
                    "name": "",
                    "type": "address[]",
                    "internalType": "address[]"
                }
            ],
            "stateMutability": "view"
        },
        {
            "type": "function",
            "name": "getRemainingLimit",
            "inputs": [
                {
                    "name": "familyId",
                    "type": "uint256",
                    "internalType": "uint256"
                },
                {
                    "name": "child",
                    "type": "address",
                    "internalType": "address"
                },
                {
                    "name": "category",
                    "type": "uint8",
                    "internalType": "enum FamilySharedWallet.Category"
                }
            ],
            "outputs": [
                {
                    "name": "remaining",
                    "type": "uint128",
                    "internalType": "uint128"
                }
            ],
            "stateMutability": "view"
        },
        {
            "type": "function",
            "name": "getUserFamily",
            "inputs": [
                {
                    "name": "user",
                    "type": "address",
                    "internalType": "address"
                }
            ],
            "outputs": [
                {
                    "name": "",
                    "type": "uint256",
                    "internalType": "uint256"
                }
            ],
            "stateMutability": "view"
        },
        {
            "type": "function",
            "name": "isPaused",
            "inputs": [],
            "outputs": [
                {
                    "name": "",
                    "type": "bool",
                    "internalType": "bool"
                }
            ],
            "stateMutability": "view"
        },
        {
            "type": "function",
            "name": "makeEmergencyPayment",
            "inputs": [
                {
                    "name": "vendor",
                    "type": "address",
                    "internalType": "address"
                }
            ],
            "outputs": [],
            "stateMutability": "payable"
        },
        {
            "type": "function",
            "name": "makePayment",
            "inputs": [
                {
                    "name": "vendor",
                    "type": "address",
                    "internalType": "address"
                }
            ],
            "outputs": [],
            "stateMutability": "payable"
        },
        {
            "type": "function",
            "name": "nextFamilyId",
            "inputs": [],
            "outputs": [
                {
                    "name": "",
                    "type": "uint256",
                    "internalType": "uint256"
                }
            ],
            "stateMutability": "view"
        },
        {
            "type": "function",
            "name": "pauseContract",
            "inputs": [],
            "outputs": [],
            "stateMutability": "nonpayable"
        },
        {
            "type": "function",
            "name": "removeChildFromFamily",
            "inputs": [
                {
                    "name": "familyId",
                    "type": "uint256",
                    "internalType": "uint256"
                },
                {
                    "name": "child",
                    "type": "address",
                    "internalType": "address"
                }
            ],
            "outputs": [],
            "stateMutability": "nonpayable"
        },
        {
            "type": "function",
            "name": "removeVendorFromFamily",
            "inputs": [
                {
                    "name": "familyId",
                    "type": "uint256",
                    "internalType": "uint256"
                },
                {
                    "name": "vendor",
                    "type": "address",
                    "internalType": "address"
                }
            ],
            "outputs": [],
            "stateMutability": "nonpayable"
        },
        {
            "type": "function",
            "name": "setLimitForChild",
            "inputs": [
                {
                    "name": "familyId",
                    "type": "uint256",
                    "internalType": "uint256"
                },
                {
                    "name": "child",
                    "type": "address",
                    "internalType": "address"
                },
                {
                    "name": "category",
                    "type": "uint8",
                    "internalType": "enum FamilySharedWallet.Category"
                },
                {
                    "name": "amount",
                    "type": "uint128",
                    "internalType": "uint128"
                }
            ],
            "outputs": [],
            "stateMutability": "nonpayable"
        },
        {
            "type": "function",
            "name": "unpauseContract",
            "inputs": [],
            "outputs": [],
            "stateMutability": "nonpayable"
        },
        {
            "type": "function",
            "name": "userToFamily",
            "inputs": [
                {
                    "name": "",
                    "type": "address",
                    "internalType": "address"
                }
            ],
            "outputs": [
                {
                    "name": "",
                    "type": "uint256",
                    "internalType": "uint256"
                }
            ],
            "stateMutability": "view"
        },
        {
            "type": "event",
            "name": "ChildAdded",
            "inputs": [
                {
                    "name": "familyId",
                    "type": "uint256",
                    "indexed": true,
                    "internalType": "uint256"
                },
                {
                    "name": "child",
                    "type": "address",
                    "indexed": true,
                    "internalType": "address"
                },
                {
                    "name": "addedBy",
                    "type": "address",
                    "indexed": true,
                    "internalType": "address"
                }
            ],
            "anonymous": false
        },
        {
            "type": "event",
            "name": "ChildRemoved",
            "inputs": [
                {
                    "name": "familyId",
                    "type": "uint256",
                    "indexed": true,
                    "internalType": "uint256"
                },
                {
                    "name": "child",
                    "type": "address",
                    "indexed": true,
                    "internalType": "address"
                },
                {
                    "name": "removedBy",
                    "type": "address",
                    "indexed": true,
                    "internalType": "address"
                }
            ],
            "anonymous": false
        },
        {
            "type": "event",
            "name": "ContractPaused",
            "inputs": [],
            "anonymous": false
        },
        {
            "type": "event",
            "name": "ContractUnpaused",
            "inputs": [],
            "anonymous": false
        },
        {
            "type": "event",
            "name": "EmergencyPayment",
            "inputs": [
                {
                    "name": "familyId",
                    "type": "uint256",
                    "indexed": true,
                    "internalType": "uint256"
                },
                {
                    "name": "child",
                    "type": "address",
                    "indexed": true,
                    "internalType": "address"
                },
                {
                    "name": "vendor",
                    "type": "address",
                    "indexed": true,
                    "internalType": "address"
                },
                {
                    "name": "amount",
                    "type": "uint256",
                    "indexed": false,
                    "internalType": "uint256"
                },
                {
                    "name": "category",
                    "type": "uint8",
                    "indexed": false,
                    "internalType": "enum FamilySharedWallet.Category"
                }
            ],
            "anonymous": false
        },
        {
            "type": "event",
            "name": "FamilyCreated",
            "inputs": [
                {
                    "name": "familyId",
                    "type": "uint256",
                    "indexed": true,
                    "internalType": "uint256"
                },
                {
                    "name": "creator",
                    "type": "address",
                    "indexed": true,
                    "internalType": "address"
                }
            ],
            "anonymous": false
        },
        {
            "type": "event",
            "name": "FundsAdded",
            "inputs": [
                {
                    "name": "familyId",
                    "type": "uint256",
                    "indexed": true,
                    "internalType": "uint256"
                },
                {
                    "name": "from",
                    "type": "address",
                    "indexed": true,
                    "internalType": "address"
                },
                {
                    "name": "amount",
                    "type": "uint256",
                    "indexed": false,
                    "internalType": "uint256"
                }
            ],
            "anonymous": false
        },
        {
            "type": "event",
            "name": "FundsWithdrawn",
            "inputs": [
                {
                    "name": "familyId",
                    "type": "uint256",
                    "indexed": true,
                    "internalType": "uint256"
                },
                {
                    "name": "to",
                    "type": "address",
                    "indexed": true,
                    "internalType": "address"
                },
                {
                    "name": "amount",
                    "type": "uint256",
                    "indexed": false,
                    "internalType": "uint256"
                },
                {
                    "name": "withdrawnBy",
                    "type": "address",
                    "indexed": true,
                    "internalType": "address"
                }
            ],
            "anonymous": false
        },
        {
            "type": "event",
            "name": "LimitSet",
            "inputs": [
                {
                    "name": "familyId",
                    "type": "uint256",
                    "indexed": true,
                    "internalType": "uint256"
                },
                {
                    "name": "child",
                    "type": "address",
                    "indexed": true,
                    "internalType": "address"
                },
                {
                    "name": "category",
                    "type": "uint8",
                    "indexed": true,
                    "internalType": "enum FamilySharedWallet.Category"
                },
                {
                    "name": "amount",
                    "type": "uint256",
                    "indexed": false,
                    "internalType": "uint256"
                },
                {
                    "name": "setBy",
                    "type": "address",
                    "indexed": false,
                    "internalType": "address"
                }
            ],
            "anonymous": false
        },
        {
            "type": "event",
            "name": "LimitsReset",
            "inputs": [
                {
                    "name": "familyId",
                    "type": "uint256",
                    "indexed": true,
                    "internalType": "uint256"
                },
                {
                    "name": "child",
                    "type": "address",
                    "indexed": true,
                    "internalType": "address"
                },
                {
                    "name": "resetTime",
                    "type": "uint256",
                    "indexed": false,
                    "internalType": "uint256"
                }
            ],
            "anonymous": false
        },
        {
            "type": "event",
            "name": "ParentAdded",
            "inputs": [
                {
                    "name": "familyId",
                    "type": "uint256",
                    "indexed": true,
                    "internalType": "uint256"
                },
                {
                    "name": "parent",
                    "type": "address",
                    "indexed": true,
                    "internalType": "address"
                },
                {
                    "name": "addedBy",
                    "type": "address",
                    "indexed": true,
                    "internalType": "address"
                }
            ],
            "anonymous": false
        },
        {
            "type": "event",
            "name": "PaymentMade",
            "inputs": [
                {
                    "name": "familyId",
                    "type": "uint256",
                    "indexed": true,
                    "internalType": "uint256"
                },
                {
                    "name": "child",
                    "type": "address",
                    "indexed": true,
                    "internalType": "address"
                },
                {
                    "name": "vendor",
                    "type": "address",
                    "indexed": true,
                    "internalType": "address"
                },
                {
                    "name": "amount",
                    "type": "uint256",
                    "indexed": false,
                    "internalType": "uint256"
                },
                {
                    "name": "category",
                    "type": "uint8",
                    "indexed": false,
                    "internalType": "enum FamilySharedWallet.Category"
                }
            ],
            "anonymous": false
        },
        {
            "type": "event",
            "name": "TransactionLogged",
            "inputs": [
                {
                    "name": "familyId",
                    "type": "uint256",
                    "indexed": true,
                    "internalType": "uint256"
                },
                {
                    "name": "child",
                    "type": "address",
                    "indexed": true,
                    "internalType": "address"
                },
                {
                    "name": "vendor",
                    "type": "address",
                    "indexed": true,
                    "internalType": "address"
                },
                {
                    "name": "amount",
                    "type": "uint256",
                    "indexed": false,
                    "internalType": "uint256"
                },
                {
                    "name": "category",
                    "type": "uint8",
                    "indexed": false,
                    "internalType": "enum FamilySharedWallet.Category"
                },
                {
                    "name": "emergency",
                    "type": "bool",
                    "indexed": false,
                    "internalType": "bool"
                },
                {
                    "name": "timestamp",
                    "type": "uint256",
                    "indexed": false,
                    "internalType": "uint256"
                }
            ],
            "anonymous": false
        },
        {
            "type": "event",
            "name": "VendorAdded",
            "inputs": [
                {
                    "name": "familyId",
                    "type": "uint256",
                    "indexed": true,
                    "internalType": "uint256"
                },
                {
                    "name": "vendor",
                    "type": "address",
                    "indexed": true,
                    "internalType": "address"
                },
                {
                    "name": "category",
                    "type": "uint8",
                    "indexed": true,
                    "internalType": "enum FamilySharedWallet.Category"
                },
                {
                    "name": "addedBy",
                    "type": "address",
                    "indexed": false,
                    "internalType": "address"
                }
            ],
            "anonymous": false
        },
        {
            "type": "event",
            "name": "VendorRemoved",
            "inputs": [
                {
                    "name": "familyId",
                    "type": "uint256",
                    "indexed": true,
                    "internalType": "uint256"
                },
                {
                    "name": "vendor",
                    "type": "address",
                    "indexed": true,
                    "internalType": "address"
                },
                {
                    "name": "removedBy",
                    "type": "address",
                    "indexed": true,
                    "internalType": "address"
                }
            ],
            "anonymous": false
        },
        {
            "type": "error",
            "name": "ChildAlreadyExists",
            "inputs": []
        },
        {
            "type": "error",
            "name": "ChildNotFound",
            "inputs": []
        },
        {
            "type": "error",
            "name": "ContractPausedError",
            "inputs": []
        },
        {
            "type": "error",
            "name": "ExceedsLimit",
            "inputs": []
        },
        {
            "type": "error",
            "name": "FamilyNotFound",
            "inputs": []
        },
        {
            "type": "error",
            "name": "InvalidAmount",
            "inputs": []
        },
        {
            "type": "error",
            "name": "InvalidCategory",
            "inputs": []
        },
        {
            "type": "error",
            "name": "InvalidFamilyId",
            "inputs": []
        },
        {
            "type": "error",
            "name": "NotApprovedVendor",
            "inputs": []
        },
        {
            "type": "error",
            "name": "OnlyActiveChild",
            "inputs": []
        },
        {
            "type": "error",
            "name": "OnlyChild",
            "inputs": []
        },
        {
            "type": "error",
            "name": "OnlyFamilyMember",
            "inputs": []
        },
        {
            "type": "error",
            "name": "OnlyParent",
            "inputs": []
        },
        {
            "type": "error",
            "name": "ParentAlreadyExists",
            "inputs": []
        },
        {
            "type": "error",
            "name": "TransferFailed",
            "inputs": []
        },
        {
            "type": "error",
            "name": "UserAlreadyInFamily",
            "inputs": []
        },
        {
            "type": "error",
            "name": "UserNotInFamily",
            "inputs": []
        },
        {
            "type": "error",
            "name": "VendorNotFound",
            "inputs": []
        }
    ],
    "bytecode": {
        "object": "0x6080604052348015600e575f5ffd5b5060015f81905550615135806100235f395ff3fe6080604052600436106101ba575f3560e01c80638553f6fb116100eb578063b87f0a3b11610089578063c5f6855a11610063578063c5f6855a1461062d578063d639c3841461066d578063d7cfc6c114610695578063ebfe4972146106b3576101c1565b8063b87f0a3b146105ac578063b9ccb6d8146105d4578063be99970514610611576101c1565b8063a7e8bcad116100c5578063a7e8bcad146104f3578063a86bb7e314610530578063b187bd261461056c578063b33712c514610596576101c1565b80638553f6fb14610451578063a76977281461048d578063a79ea1a5146104b7576101c1565b806353c7cd81116101585780636d4388a0116101325780636d4388a0146103855780636f9fb98a146103c357806371428a9a146103ed5780637952859b14610415576101c1565b806353c7cd81146103195780635c708595146103355780636210f0eb1461035d576101c1565b8063300be4fc11610194578063300be4fc1461026f5780633ea30a351461028b578063439766ce146102c75780634e3855fa146102dd576101c1565b8063078beae5146101c55780631776219e146102055780632caadc1d14610247576101c1565b366101c157005b5f5ffd5b3480156101d0575f5ffd5b506101eb60048036038101906101e6919061466f565b6106ef565b6040516101fc959493929190614720565b60405180910390f35b348015610210575f5ffd5b5061022b6004803603810190610226919061466f565b61075d565b60405161023e9796959493929190614771565b60405180910390f35b348015610252575f5ffd5b5061026d6004803603810190610268919061482b565b6108e3565b005b6102896004803603810190610284919061487b565b610b84565b005b348015610296575f5ffd5b506102b160048036038101906102ac919061466f565b6112c4565b6040516102be919061495d565b60405180910390f35b3480156102d2575f5ffd5b506102db611466565b005b3480156102e8575f5ffd5b5061030360048036038101906102fe919061497d565b61156d565b60405161031091906149bb565b60405180910390f35b610333600480360381019061032e919061487b565b611597565b005b348015610340575f5ffd5b5061035b6004803603810190610356919061497d565b611add565b005b348015610368575f5ffd5b50610383600480360381019061037e919061497d565b611f80565b005b348015610390575f5ffd5b506103ab60048036038101906103a6919061497d565b612369565b6040516103ba93929190614a94565b60405180910390f35b3480156103ce575f5ffd5b506103d7612748565b6040516103e49190614acb565b60405180910390f35b3480156103f8575f5ffd5b50610413600480360381019061040e919061497d565b61274f565b005b348015610420575f5ffd5b5061043b6004803603810190610436919061487b565b612bdf565b6040516104489190614acb565b60405180910390f35b34801561045c575f5ffd5b506104776004803603810190610472919061482b565b612bf4565b6040516104849190614af3565b60405180910390f35b348015610498575f5ffd5b506104a1612dab565b6040516104ae9190614acb565b60405180910390f35b3480156104c2575f5ffd5b506104dd60048036038101906104d8919061487b565b612db0565b6040516104ea9190614acb565b60405180910390f35b3480156104fe575f5ffd5b506105196004803603810190610514919061497d565b612df6565b604051610527929190614b7f565b60405180910390f35b34801561053b575f5ffd5b506105566004803603810190610551919061466f565b612e39565b604051610563919061495d565b60405180910390f35b348015610577575f5ffd5b50610580612fdb565b60405161058d91906149bb565b60405180910390f35b3480156105a1575f5ffd5b506105aa612fed565b005b3480156105b7575f5ffd5b506105d260048036038101906105cd9190614bd0565b6130f4565b005b3480156105df575f5ffd5b506105fa60048036038101906105f5919061482b565b61340f565b604051610608929190614c34565b60405180910390f35b61062b6004803603810190610626919061466f565b61347b565b005b348015610638575f5ffd5b50610653600480360381019061064e919061497d565b61363c565b604051610664959493929190614c5b565b60405180910390f35b348015610678575f5ffd5b50610693600480360381019061068e919061497d565b6136d6565b005b61069d613bd9565b6040516106aa9190614acb565b60405180910390f35b3480156106be575f5ffd5b506106d960048036038101906106d4919061466f565b6141ce565b6040516106e6919061495d565b60405180910390f35b6002602052805f5260405f205f91509050805f015490806001015f9054906101000a900473ffffffffffffffffffffffffffffffffffffffff16908060010160149054906101000a900460ff16908060010160159054906101000a900463ffffffff16908060050154905085565b5f5f5f5f5f5f5f875f81148061077457505f548110155b8061079e575060025f8281526020019081526020015f2060010160149054906101000a900460ff16155b156107d5576040517f7e0ba9ad00000000000000000000000000000000000000000000000000000000815260040160405180910390fd5b888060035f3373ffffffffffffffffffffffffffffffffffffffff1673ffffffffffffffffffffffffffffffffffffffff1681526020019081526020015f20541461084c576040517f2ea69d3400000000000000000000000000000000000000000000000000000000815260040160405180910390fd5b5f60025f8c81526020019081526020015f209050805f0154816001015f9054906101000a900473ffffffffffffffffffffffffffffffffffffffff168260010160149054906101000a900460ff168360010160159054906101000a900463ffffffff168460020180549050856003018054905086600401805490509950995099509950995099509950505050919395979092949650565b825f8114806108f357505f548110155b8061091d575060025f8281526020019081526020015f2060010160149054906101000a900460ff16155b15610954576040517f7e0ba9ad00000000000000000000000000000000000000000000000000000000815260040160405180910390fd5b8360045f8281526020019081526020015f205f3373ffffffffffffffffffffffffffffffffffffffff1673ffffffffffffffffffffffffffffffffffffffff1681526020019081526020015f205f9054906101000a900460ff166109e4576040517fd6d54b1200000000000000000000000000000000000000000000000000000000815260040160405180910390fd5b6040518060400160405280846004811115610a0257610a01614b0c565b5b81526020016001151581525060075f8781526020019081526020015f205f8673ffffffffffffffffffffffffffffffffffffffff1673ffffffffffffffffffffffffffffffffffffffff1681526020019081526020015f205f820151815f015f6101000a81548160ff02191690836004811115610a8257610a81614b0c565b5b02179055506020820151815f0160016101000a81548160ff02191690831515021790555090505060025f8681526020019081526020015f2060040184908060018154018082558091505060019003905f5260205f20015f9091909190916101000a81548173ffffffffffffffffffffffffffffffffffffffff021916908373ffffffffffffffffffffffffffffffffffffffff160217905550826004811115610b2e57610b2d614b0c565b5b8473ffffffffffffffffffffffffffffffffffffffff16867fa617deb13a8896d9eb498434e4800a6c0a3b80085e7bc42da144a4e78b66688a33604051610b759190614cac565b60405180910390a45050505050565b345f8103610bbe576040517f2c5211c600000000000000000000000000000000000000000000000000000000815260040160405180910390fd5b60015f9054906101000a900460ff1615610c04576040517f76756f4800000000000000000000000000000000000000000000000000000000815260040160405180910390fd5b5f60035f3373ffffffffffffffffffffffffffffffffffffffff1673ffffffffffffffffffffffffffffffffffffffff1681526020019081526020015f205490503460025f8381526020019081526020015f20600501541015610c9c576040517f08c379a0000000000000000000000000000000000000000000000000000000008152600401610c9390614d1f565b60405180910390fd5b5f8103610cd5576040517fd0864efa00000000000000000000000000000000000000000000000000000000815260040160405180910390fd5b60055f8281526020019081526020015f205f3373ffffffffffffffffffffffffffffffffffffffff1673ffffffffffffffffffffffffffffffffffffffff1681526020019081526020015f205f015f9054906101000a900460ff161580610d95575060055f8281526020019081526020015f205f3373ffffffffffffffffffffffffffffffffffffffff1673ffffffffffffffffffffffffffffffffffffffff1681526020019081526020015f205f0160019054906101000a900460ff16155b15610dcc576040517f36a5bcb100000000000000000000000000000000000000000000000000000000815260040160405180910390fd5b5f60075f8381526020019081526020015f205f8573ffffffffffffffffffffffffffffffffffffffff1673ffffffffffffffffffffffffffffffffffffffff1681526020019081526020015f209050805f0160019054906101000a900460ff16610e62576040517f1fbd8f5a00000000000000000000000000000000000000000000000000000000815260040160405180910390fd5b5f815f015f9054906101000a900460ff169050610e7f8333614357565b5f60065f8581526020019081526020015f205f3373ffffffffffffffffffffffffffffffffffffffff1673ffffffffffffffffffffffffffffffffffffffff1681526020019081526020015f205f836004811115610ee057610edf614b0c565b5b6004811115610ef257610ef1614b0c565b5b81526020019081526020015f209050805f015f9054906101000a90046fffffffffffffffffffffffffffffffff166fffffffffffffffffffffffffffffffff1634825f0160109054906101000a90046fffffffffffffffffffffffffffffffff166fffffffffffffffffffffffffffffffff16610f6f9190614d6a565b1115610fa7576040517f4f2a111200000000000000000000000000000000000000000000000000000000815260040160405180910390fd5b34815f0160108282829054906101000a90046fffffffffffffffffffffffffffffffff16610fd59190614d9d565b92506101000a8154816fffffffffffffffffffffffffffffffff02191690836fffffffffffffffffffffffffffffffff1602179055503460055f8681526020019081526020015f205f3373ffffffffffffffffffffffffffffffffffffffff1673ffffffffffffffffffffffffffffffffffffffff1681526020019081526020015f206001015f8282829054906101000a90046fffffffffffffffffffffffffffffffff166110849190614d9d565b92506101000a8154816fffffffffffffffffffffffffffffffff02191690836fffffffffffffffffffffffffffffffff1602179055503460025f8681526020019081526020015f206005015f8282546110dd9190614de0565b9250508190555034815f0160108282829054906101000a90046fffffffffffffffffffffffffffffffff166111129190614d9d565b92506101000a8154816fffffffffffffffffffffffffffffffff02191690836fffffffffffffffffffffffffffffffff1602179055505f8673ffffffffffffffffffffffffffffffffffffffff163460405161116d90614e40565b5f6040518083038185875af1925050503d805f81146111a7576040519150601f19603f3d011682016040523d82523d5f602084013e6111ac565b606091505b50509050806111e7576040517f90b8ec1800000000000000000000000000000000000000000000000000000000815260040160405180910390fd5b8673ffffffffffffffffffffffffffffffffffffffff163373ffffffffffffffffffffffffffffffffffffffff16867f2d950edfe585735b2d5e6359eec49e6f905c96a71889600f3a970121aefcd5973487604051611247929190614e54565b60405180910390a48673ffffffffffffffffffffffffffffffffffffffff163373ffffffffffffffffffffffffffffffffffffffff16867fd68922662578f2d3e32538c4be08d44218500803ef3f633f4d89c6431c93fa0c34875f426040516112b39493929190614e7b565b60405180910390a450505050505050565b6060815f8114806112d657505f548110155b80611300575060025f8281526020019081526020015f2060010160149054906101000a900460ff16155b15611337576040517f7e0ba9ad00000000000000000000000000000000000000000000000000000000815260040160405180910390fd5b8260045f8281526020019081526020015f205f3373ffffffffffffffffffffffffffffffffffffffff1673ffffffffffffffffffffffffffffffffffffffff1681526020019081526020015f205f9054906101000a900460ff166113c7576040517fd6d54b1200000000000000000000000000000000000000000000000000000000815260040160405180910390fd5b60025f8581526020019081526020015f2060030180548060200260200160405190810160405280929190818152602001828054801561145857602002820191905f5260205f20905b815f9054906101000a900473ffffffffffffffffffffffffffffffffffffffff1673ffffffffffffffffffffffffffffffffffffffff168152602001906001019080831161140f575b505050505092505050919050565b5f5f90505f600190505b5f548110156114ed5760045f8281526020019081526020015f205f3373ffffffffffffffffffffffffffffffffffffffff1673ffffffffffffffffffffffffffffffffffffffff1681526020019081526020015f205f9054906101000a900460ff16156114e057600191506114ed565b8080600101915050611470565b5080611525576040517fd6d54b1200000000000000000000000000000000000000000000000000000000815260040160405180910390fd5b6001805f6101000a81548160ff0219169083151502179055507fab35696f06e428ebc5ceba8cd17f8fed287baf43440206d1943af1ee53e6d26760405160405180910390a150565b6004602052815f5260405f20602052805f5260405f205f915091509054906101000a900460ff1681565b345f81036115d1576040517f2c5211c600000000000000000000000000000000000000000000000000000000815260040160405180910390fd5b60015f9054906101000a900460ff1615611617576040517f76756f4800000000000000000000000000000000000000000000000000000000815260040160405180910390fd5b5f60035f3373ffffffffffffffffffffffffffffffffffffffff1673ffffffffffffffffffffffffffffffffffffffff1681526020019081526020015f205490503460025f8381526020019081526020015f206005015410156116af576040517f08c379a00000000000000000000000000000000000000000000000000000000081526004016116a690614d1f565b60405180910390fd5b5f81036116e8576040517fd0864efa00000000000000000000000000000000000000000000000000000000815260040160405180910390fd5b60055f8281526020019081526020015f205f3373ffffffffffffffffffffffffffffffffffffffff1673ffffffffffffffffffffffffffffffffffffffff1681526020019081526020015f205f015f9054906101000a900460ff1615806117a8575060055f8281526020019081526020015f205f3373ffffffffffffffffffffffffffffffffffffffff1673ffffffffffffffffffffffffffffffffffffffff1681526020019081526020015f205f0160019054906101000a900460ff16155b156117df576040517f36a5bcb100000000000000000000000000000000000000000000000000000000815260040160405180910390fd5b5f60075f8381526020019081526020015f205f8573ffffffffffffffffffffffffffffffffffffffff1673ffffffffffffffffffffffffffffffffffffffff1681526020019081526020015f209050805f0160019054906101000a900460ff16611875576040517f1fbd8f5a00000000000000000000000000000000000000000000000000000000815260040160405180910390fd5b5f815f015f9054906101000a900460ff1690503460055f8581526020019081526020015f205f3373ffffffffffffffffffffffffffffffffffffffff1673ffffffffffffffffffffffffffffffffffffffff1681526020019081526020015f206001015f8282829054906101000a90046fffffffffffffffffffffffffffffffff166119019190614d9d565b92506101000a8154816fffffffffffffffffffffffffffffffff02191690836fffffffffffffffffffffffffffffffff1602179055505f8573ffffffffffffffffffffffffffffffffffffffff163460405161195c90614e40565b5f6040518083038185875af1925050503d805f8114611996576040519150601f19603f3d011682016040523d82523d5f602084013e61199b565b606091505b50509050806119d6576040517f90b8ec1800000000000000000000000000000000000000000000000000000000815260040160405180910390fd5b3460025f8681526020019081526020015f206005015f8282546119f99190614de0565b925050819055508573ffffffffffffffffffffffffffffffffffffffff163373ffffffffffffffffffffffffffffffffffffffff16857fbed233680248ae008237cb16d3e535b08942089a410f06954689eb1b7411a37a3486604051611a60929190614e54565b60405180910390a48573ffffffffffffffffffffffffffffffffffffffff163373ffffffffffffffffffffffffffffffffffffffff16857fd68922662578f2d3e32538c4be08d44218500803ef3f633f4d89c6431c93fa0c3486600142604051611acd9493929190614e7b565b60405180910390a4505050505050565b815f811480611aed57505f548110155b80611b17575060025f8281526020019081526020015f2060010160149054906101000a900460ff16155b15611b4e576040517f7e0ba9ad00000000000000000000000000000000000000000000000000000000815260040160405180910390fd5b8260045f8281526020019081526020015f205f3373ffffffffffffffffffffffffffffffffffffffff1673ffffffffffffffffffffffffffffffffffffffff1681526020019081526020015f205f9054906101000a900460ff16611bde576040517fd6d54b1200000000000000000000000000000000000000000000000000000000815260040160405180910390fd5b5f60035f8573ffffffffffffffffffffffffffffffffffffffff1673ffffffffffffffffffffffffffffffffffffffff1681526020019081526020015f205414611c54576040517f2e10184900000000000000000000000000000000000000000000000000000000815260040160405180910390fd5b60055f8581526020019081526020015f205f8473ffffffffffffffffffffffffffffffffffffffff1673ffffffffffffffffffffffffffffffffffffffff1681526020019081526020015f205f0160019054906101000a900460ff1615611ce7576040517fff33650c00000000000000000000000000000000000000000000000000000000815260040160405180910390fd5b6040518060a001604052806001151581526020016001151581526020014263ffffffff1681526020015f6fffffffffffffffffffffffffffffffff1681526020015f6fffffffffffffffffffffffffffffffff1681525060055f8681526020019081526020015f205f8573ffffffffffffffffffffffffffffffffffffffff1673ffffffffffffffffffffffffffffffffffffffff1681526020019081526020015f205f820151815f015f6101000a81548160ff0219169083151502179055506020820151815f0160016101000a81548160ff0219169083151502179055506040820151815f0160026101000a81548163ffffffff021916908363ffffffff1602179055506060820151815f0160066101000a8154816fffffffffffffffffffffffffffffffff02191690836fffffffffffffffffffffffffffffffff1602179055506080820151816001015f6101000a8154816fffffffffffffffffffffffffffffffff02191690836fffffffffffffffffffffffffffffffff16021790555090505060025f8581526020019081526020015f2060030183908060018154018082558091505060019003905f5260205f20015f9091909190916101000a81548173ffffffffffffffffffffffffffffffffffffffff021916908373ffffffffffffffffffffffffffffffffffffffff1602179055508360035f8573ffffffffffffffffffffffffffffffffffffffff1673ffffffffffffffffffffffffffffffffffffffff1681526020019081526020015f20819055503373ffffffffffffffffffffffffffffffffffffffff168373ffffffffffffffffffffffffffffffffffffffff16857f890647a2e90692352e89b49c2d00ce5f8a1fc0ef397acdeab3086703ea52f1f660405160405180910390a450505050565b815f811480611f9057505f548110155b80611fba575060025f8281526020019081526020015f2060010160149054906101000a900460ff16155b15611ff1576040517f7e0ba9ad00000000000000000000000000000000000000000000000000000000815260040160405180910390fd5b8260045f8281526020019081526020015f205f3373ffffffffffffffffffffffffffffffffffffffff1673ffffffffffffffffffffffffffffffffffffffff1681526020019081526020015f205f9054906101000a900460ff16612081576040517fd6d54b1200000000000000000000000000000000000000000000000000000000815260040160405180910390fd5b60075f8581526020019081526020015f205f8473ffffffffffffffffffffffffffffffffffffffff1673ffffffffffffffffffffffffffffffffffffffff1681526020019081526020015f205f0160019054906101000a900460ff16612113576040517f2d04581900000000000000000000000000000000000000000000000000000000815260040160405180910390fd5b5f60075f8681526020019081526020015f205f8573ffffffffffffffffffffffffffffffffffffffff1673ffffffffffffffffffffffffffffffffffffffff1681526020019081526020015f205f0160016101000a81548160ff0219169083151502179055505f60025f8681526020019081526020015f2060040190505f5f90505b8180549050811015612306578473ffffffffffffffffffffffffffffffffffffffff168282815481106121cb576121ca614ebe565b5b905f5260205f20015f9054906101000a900473ffffffffffffffffffffffffffffffffffffffff1673ffffffffffffffffffffffffffffffffffffffff16036122f95781600183805490506122209190614de0565b8154811061223157612230614ebe565b5b905f5260205f20015f9054906101000a900473ffffffffffffffffffffffffffffffffffffffff1682828154811061226c5761226b614ebe565b5b905f5260205f20015f6101000a81548173ffffffffffffffffffffffffffffffffffffffff021916908373ffffffffffffffffffffffffffffffffffffffff160217905550818054806122c2576122c1614eeb565b5b600190038181905f5260205f20015f6101000a81549073ffffffffffffffffffffffffffffffffffffffff02191690559055612306565b8080600101915050612195565b503373ffffffffffffffffffffffffffffffffffffffff168473ffffffffffffffffffffffffffffffffffffffff16867fa9f90b55970e1c378d2dedf42f9234ae12f0b29cefb6d76143e4968e119c12ba60405160405180910390a45050505050565b612371614574565b612379614574565b612381614574565b845f81148061239157505f548110155b806123bb575060025f8281526020019081526020015f2060010160149054906101000a900460ff16155b156123f2576040517f7e0ba9ad00000000000000000000000000000000000000000000000000000000815260040160405180910390fd5b60045f8781526020019081526020015f205f3373ffffffffffffffffffffffffffffffffffffffff1673ffffffffffffffffffffffffffffffffffffffff1681526020019081526020015f205f9054906101000a900460ff1615801561248457508473ffffffffffffffffffffffffffffffffffffffff163373ffffffffffffffffffffffffffffffffffffffff1614155b156124bb576040517fd6d54b1200000000000000000000000000000000000000000000000000000000815260040160405180910390fd5b5f5f90505b600560ff168160ff16101561273f575f8160ff1660048111156124e6576124e5614b0c565b5b90505f60065f8a81526020019081526020015f205f8973ffffffffffffffffffffffffffffffffffffffff1673ffffffffffffffffffffffffffffffffffffffff1681526020019081526020015f205f83600481111561254957612548614b0c565b5b600481111561255b5761255a614b0c565b5b81526020019081526020015f209050805f0160109054906101000a90046fffffffffffffffffffffffffffffffff16878460ff16600581106125a05761259f614ebe565b5b60200201906fffffffffffffffffffffffffffffffff1690816fffffffffffffffffffffffffffffffff1681525050805f015f9054906101000a90046fffffffffffffffffffffffffffffffff16868460ff166005811061260457612603614ebe565b5b60200201906fffffffffffffffffffffffffffffffff1690816fffffffffffffffffffffffffffffffff1681525050805f0160109054906101000a90046fffffffffffffffffffffffffffffffff166fffffffffffffffffffffffffffffffff16815f015f9054906101000a90046fffffffffffffffffffffffffffffffff166fffffffffffffffffffffffffffffffff16116126a1575f6126eb565b805f0160109054906101000a90046fffffffffffffffffffffffffffffffff16815f015f9054906101000a90046fffffffffffffffffffffffffffffffff166126ea9190614f18565b5b858460ff166005811061270157612700614ebe565b5b60200201906fffffffffffffffffffffffffffffffff1690816fffffffffffffffffffffffffffffffff1681525050505080806001019150506124c0565b50509250925092565b5f47905090565b815f81148061275f57505f548110155b80612789575060025f8281526020019081526020015f2060010160149054906101000a900460ff16155b156127c0576040517f7e0ba9ad00000000000000000000000000000000000000000000000000000000815260040160405180910390fd5b8260045f8281526020019081526020015f205f3373ffffffffffffffffffffffffffffffffffffffff1673ffffffffffffffffffffffffffffffffffffffff1681526020019081526020015f205f9054906101000a900460ff16612850576040517fd6d54b1200000000000000000000000000000000000000000000000000000000815260040160405180910390fd5b60055f8581526020019081526020015f205f8473ffffffffffffffffffffffffffffffffffffffff1673ffffffffffffffffffffffffffffffffffffffff1681526020019081526020015f205f015f9054906101000a900460ff161580612910575060055f8581526020019081526020015f205f8473ffffffffffffffffffffffffffffffffffffffff1673ffffffffffffffffffffffffffffffffffffffff1681526020019081526020015f205f0160019054906101000a900460ff16155b15612947576040517fbbcb4a1f00000000000000000000000000000000000000000000000000000000815260040160405180910390fd5b5f60055f8681526020019081526020015f205f8573ffffffffffffffffffffffffffffffffffffffff1673ffffffffffffffffffffffffffffffffffffffff1681526020019081526020015f205f0160016101000a81548160ff0219169083151502179055505f60035f8573ffffffffffffffffffffffffffffffffffffffff1673ffffffffffffffffffffffffffffffffffffffff1681526020019081526020015f20819055505f60025f8681526020019081526020015f2060030190505f5f90505b8180549050811015612b7c578473ffffffffffffffffffffffffffffffffffffffff16828281548110612a4157612a40614ebe565b5b905f5260205f20015f9054906101000a900473ffffffffffffffffffffffffffffffffffffffff1673ffffffffffffffffffffffffffffffffffffffff1603612b6f578160018380549050612a969190614de0565b81548110612aa757612aa6614ebe565b5b905f5260205f20015f9054906101000a900473ffffffffffffffffffffffffffffffffffffffff16828281548110612ae257612ae1614ebe565b5b905f5260205f20015f6101000a81548173ffffffffffffffffffffffffffffffffffffffff021916908373ffffffffffffffffffffffffffffffffffffffff16021790555081805480612b3857612b37614eeb565b5b600190038181905f5260205f20015f6101000a81549073ffffffffffffffffffffffffffffffffffffffff02191690559055612b7c565b8080600101915050612a0b565b503373ffffffffffffffffffffffffffffffffffffffff168473ffffffffffffffffffffffffffffffffffffffff16867f90f9c3783b6b02894b0d2efca6783ddd9d05f001f95c0522b53563c0d344da9760405160405180910390a45050505050565b6003602052805f5260405f205f915090505481565b5f835f811480612c0557505f548110155b80612c2f575060025f8281526020019081526020015f2060010160149054906101000a900460ff16155b15612c66576040517f7e0ba9ad00000000000000000000000000000000000000000000000000000000815260040160405180910390fd5b5f60065f8781526020019081526020015f205f8673ffffffffffffffffffffffffffffffffffffffff1673ffffffffffffffffffffffffffffffffffffffff1681526020019081526020015f205f856004811115612cc757612cc6614b0c565b5b6004811115612cd957612cd8614b0c565b5b81526020019081526020015f209050805f0160109054906101000a90046fffffffffffffffffffffffffffffffff166fffffffffffffffffffffffffffffffff16815f015f9054906101000a90046fffffffffffffffffffffffffffffffff166fffffffffffffffffffffffffffffffff1611612d56575f612da0565b805f0160109054906101000a90046fffffffffffffffffffffffffffffffff16815f015f9054906101000a90046fffffffffffffffffffffffffffffffff16612d9f9190614f18565b5b925050509392505050565b5f5481565b5f60035f8373ffffffffffffffffffffffffffffffffffffffff1673ffffffffffffffffffffffffffffffffffffffff1681526020019081526020015f20549050919050565b6007602052815f5260405f20602052805f5260405f205f9150915050805f015f9054906101000a900460ff1690805f0160019054906101000a900460ff16905082565b6060815f811480612e4b57505f548110155b80612e75575060025f8281526020019081526020015f2060010160149054906101000a900460ff16155b15612eac576040517f7e0ba9ad00000000000000000000000000000000000000000000000000000000815260040160405180910390fd5b8260045f8281526020019081526020015f205f3373ffffffffffffffffffffffffffffffffffffffff1673ffffffffffffffffffffffffffffffffffffffff1681526020019081526020015f205f9054906101000a900460ff16612f3c576040517fd6d54b1200000000000000000000000000000000000000000000000000000000815260040160405180910390fd5b60025f8581526020019081526020015f20600401805480602002602001604051908101604052809291908181526020018280548015612fcd57602002820191905f5260205f20905b815f9054906101000a900473ffffffffffffffffffffffffffffffffffffffff1673ffffffffffffffffffffffffffffffffffffffff1681526020019060010190808311612f84575b505050505092505050919050565b60015f9054906101000a900460ff1681565b5f5f90505f600190505b5f548110156130745760045f8281526020019081526020015f205f3373ffffffffffffffffffffffffffffffffffffffff1673ffffffffffffffffffffffffffffffffffffffff1681526020019081526020015f205f9054906101000a900460ff16156130675760019150613074565b8080600101915050612ff7565b50806130ac576040517fd6d54b1200000000000000000000000000000000000000000000000000000000815260040160405180910390fd5b5f60015f6101000a81548160ff0219169083151502179055507f0e5e3b3fb504c22cf5c42fa07d521225937514c654007e1f12646f89768d6f9460405160405180910390a150565b835f81148061310457505f548110155b8061312e575060025f8281526020019081526020015f2060010160149054906101000a900460ff16155b15613165576040517f7e0ba9ad00000000000000000000000000000000000000000000000000000000815260040160405180910390fd5b8460045f8281526020019081526020015f205f3373ffffffffffffffffffffffffffffffffffffffff1673ffffffffffffffffffffffffffffffffffffffff1681526020019081526020015f205f9054906101000a900460ff166131f5576040517fd6d54b1200000000000000000000000000000000000000000000000000000000815260040160405180910390fd5b60055f8781526020019081526020015f205f8673ffffffffffffffffffffffffffffffffffffffff1673ffffffffffffffffffffffffffffffffffffffff1681526020019081526020015f205f015f9054906101000a900460ff1615806132b5575060055f8781526020019081526020015f205f8673ffffffffffffffffffffffffffffffffffffffff1673ffffffffffffffffffffffffffffffffffffffff1681526020019081526020015f205f0160019054906101000a900460ff16155b156132ec576040517fbbcb4a1f00000000000000000000000000000000000000000000000000000000815260040160405180910390fd5b8260065f8881526020019081526020015f205f8773ffffffffffffffffffffffffffffffffffffffff1673ffffffffffffffffffffffffffffffffffffffff1681526020019081526020015f205f86600481111561334d5761334c614b0c565b5b600481111561335f5761335e614b0c565b5b81526020019081526020015f205f015f6101000a8154816fffffffffffffffffffffffffffffffff02191690836fffffffffffffffffffffffffffffffff1602179055508360048111156133b6576133b5614b0c565b5b8573ffffffffffffffffffffffffffffffffffffffff16877f4b02f5f1a9520c490b3bc01ab5eb35043a3d09cd574271b93721bde8a236da3a86336040516133ff929190614f94565b60405180910390a4505050505050565b6006602052825f5260405f20602052815f5260405f20602052805f5260405f205f925092505050805f015f9054906101000a90046fffffffffffffffffffffffffffffffff1690805f0160109054906101000a90046fffffffffffffffffffffffffffffffff16905082565b805f81148061348b57505f548110155b806134b5575060025f8281526020019081526020015f2060010160149054906101000a900460ff16155b156134ec576040517f7e0ba9ad00000000000000000000000000000000000000000000000000000000815260040160405180910390fd5b8160045f8281526020019081526020015f205f3373ffffffffffffffffffffffffffffffffffffffff1673ffffffffffffffffffffffffffffffffffffffff1681526020019081526020015f205f9054906101000a900460ff1661357c576040517fd6d54b1200000000000000000000000000000000000000000000000000000000815260040160405180910390fd5b5f34116135be576040517f08c379a00000000000000000000000000000000000000000000000000000000081526004016135b590615005565b60405180910390fd5b3460025f8581526020019081526020015f206005015f8282546135e19190614d6a565b925050819055503373ffffffffffffffffffffffffffffffffffffffff16837f71237963accfab6ceb4010b83f2ad8c635a475fea605b9a1be57cab17d5f9a653460405161362f9190614acb565b60405180910390a3505050565b6005602052815f5260405f20602052805f5260405f205f9150915050805f015f9054906101000a900460ff1690805f0160019054906101000a900460ff1690805f0160029054906101000a900463ffffffff1690805f0160069054906101000a90046fffffffffffffffffffffffffffffffff1690806001015f9054906101000a90046fffffffffffffffffffffffffffffffff16905085565b815f8114806136e657505f548110155b80613710575060025f8281526020019081526020015f2060010160149054906101000a900460ff16155b15613747576040517f7e0ba9ad00000000000000000000000000000000000000000000000000000000815260040160405180910390fd5b8260045f8281526020019081526020015f205f3373ffffffffffffffffffffffffffffffffffffffff1673ffffffffffffffffffffffffffffffffffffffff1681526020019081526020015f205f9054906101000a900460ff166137d7576040517fd6d54b1200000000000000000000000000000000000000000000000000000000815260040160405180910390fd5b5f60035f8573ffffffffffffffffffffffffffffffffffffffff1673ffffffffffffffffffffffffffffffffffffffff1681526020019081526020015f20541461384d576040517f2e10184900000000000000000000000000000000000000000000000000000000815260040160405180910390fd5b60045f8581526020019081526020015f205f8473ffffffffffffffffffffffffffffffffffffffff1673ffffffffffffffffffffffffffffffffffffffff1681526020019081526020015f205f9054906101000a900460ff16156138dd576040517f631c401000000000000000000000000000000000000000000000000000000000815260040160405180910390fd5b600160045f8681526020019081526020015f205f8573ffffffffffffffffffffffffffffffffffffffff1673ffffffffffffffffffffffffffffffffffffffff1681526020019081526020015f205f6101000a81548160ff02191690831515021790555060025f8581526020019081526020015f2060020183908060018154018082558091505060019003905f5260205f20015f9091909190916101000a81548173ffffffffffffffffffffffffffffffffffffffff021916908373ffffffffffffffffffffffffffffffffffffffff1602179055508360035f8573ffffffffffffffffffffffffffffffffffffffff1673ffffffffffffffffffffffffffffffffffffffff1681526020019081526020015f20819055506040518060a001604052805f151581526020016001151581526020014263ffffffff1681526020015f6fffffffffffffffffffffffffffffffff1681526020015f6fffffffffffffffffffffffffffffffff1681525060055f8681526020019081526020015f205f8573ffffffffffffffffffffffffffffffffffffffff1673ffffffffffffffffffffffffffffffffffffffff1681526020019081526020015f205f820151815f015f6101000a81548160ff0219169083151502179055506020820151815f0160016101000a81548160ff0219169083151502179055506040820151815f0160026101000a81548163ffffffff021916908363ffffffff1602179055506060820151815f0160066101000a8154816fffffffffffffffffffffffffffffffff02191690836fffffffffffffffffffffffffffffffff1602179055506080820151816001015f6101000a8154816fffffffffffffffffffffffffffffffff02191690836fffffffffffffffffffffffffffffffff1602179055509050503373ffffffffffffffffffffffffffffffffffffffff168373ffffffffffffffffffffffffffffffffffffffff16857f104dac28eb2785b620a5871b8c5ab096b02a8e0831864c6c8a8ab8827f51a52660405160405180910390a450505050565b5f5f60035f3373ffffffffffffffffffffffffffffffffffffffff1673ffffffffffffffffffffffffffffffffffffffff1681526020019081526020015f205414613c50576040517f2e10184900000000000000000000000000000000000000000000000000000000815260040160405180910390fd5b66b1a2bc2ec50000341015613c9a576040517f08c379a0000000000000000000000000000000000000000000000000000000008152600401613c919061506d565b60405180910390fd5b5f5f815480929190613cab9061508b565b9190505590506040518061010001604052808281526020013373ffffffffffffffffffffffffffffffffffffffff1681526020016001151581526020014263ffffffff1681526020015f67ffffffffffffffff811115613d0e57613d0d6150d2565b5b604051908082528060200260200182016040528015613d3c5781602001602082028036833780820191505090505b5081526020015f67ffffffffffffffff811115613d5c57613d5b6150d2565b5b604051908082528060200260200182016040528015613d8a5781602001602082028036833780820191505090505b5081526020015f67ffffffffffffffff811115613daa57613da96150d2565b5b604051908082528060200260200182016040528015613dd85781602001602082028036833780820191505090505b5081526020015f81525060025f8381526020019081526020015f205f820151815f01556020820151816001015f6101000a81548173ffffffffffffffffffffffffffffffffffffffff021916908373ffffffffffffffffffffffffffffffffffffffff16021790555060408201518160010160146101000a81548160ff02191690831515021790555060608201518160010160156101000a81548163ffffffff021916908363ffffffff1602179055506080820151816002019080519060200190613ea4929190614596565b5060a0820151816003019080519060200190613ec1929190614596565b5060c0820151816004019080519060200190613ede929190614596565b5060e08201518160050155905050600160045f8381526020019081526020015f205f3373ffffffffffffffffffffffffffffffffffffffff1673ffffffffffffffffffffffffffffffffffffffff1681526020019081526020015f205f6101000a81548160ff02191690831515021790555060025f8281526020019081526020015f2060020133908060018154018082558091505060019003905f5260205f20015f9091909190916101000a81548173ffffffffffffffffffffffffffffffffffffffff021916908373ffffffffffffffffffffffffffffffffffffffff1602179055508060035f3373ffffffffffffffffffffffffffffffffffffffff1673ffffffffffffffffffffffffffffffffffffffff1681526020019081526020015f20819055506040518060a001604052805f151581526020016001151581526020014263ffffffff1681526020015f6fffffffffffffffffffffffffffffffff1681526020015f6fffffffffffffffffffffffffffffffff1681525060055f8381526020019081526020015f205f3373ffffffffffffffffffffffffffffffffffffffff1673ffffffffffffffffffffffffffffffffffffffff1681526020019081526020015f205f820151815f015f6101000a81548160ff0219169083151502179055506020820151815f0160016101000a81548160ff0219169083151502179055506040820151815f0160026101000a81548163ffffffff021916908363ffffffff1602179055506060820151815f0160066101000a8154816fffffffffffffffffffffffffffffffff02191690836fffffffffffffffffffffffffffffffff1602179055506080820151816001015f6101000a8154816fffffffffffffffffffffffffffffffff02191690836fffffffffffffffffffffffffffffffff1602179055509050503373ffffffffffffffffffffffffffffffffffffffff16817f104edd53295748488cecb9b63227a6e7f695fc0a3ecd358a945deae80163cc0e60405160405180910390a390565b6060815f8114806141e057505f548110155b8061420a575060025f8281526020019081526020015f2060010160149054906101000a900460ff16155b15614241576040517f7e0ba9ad00000000000000000000000000000000000000000000000000000000815260040160405180910390fd5b828060035f3373ffffffffffffffffffffffffffffffffffffffff1673ffffffffffffffffffffffffffffffffffffffff1681526020019081526020015f2054146142b8576040517f2ea69d3400000000000000000000000000000000000000000000000000000000815260040160405180910390fd5b60025f8581526020019081526020015f2060020180548060200260200160405190810160405280929190818152602001828054801561434957602002820191905f5260205f20905b815f9054906101000a900473ffffffffffffffffffffffffffffffffffffffff1673ffffffffffffffffffffffffffffffffffffffff1681526020019060010190808311614300575b505050505092505050919050565b5f60055f8481526020019081526020015f205f8373ffffffffffffffffffffffffffffffffffffffff1673ffffffffffffffffffffffffffffffffffffffff1681526020019081526020015f20905062278d00815f0160029054906101000a900463ffffffff1663ffffffff166143ce9190614d6a565b421061456f575f5f90505b600560ff168160ff1610156144c2575f60065f8681526020019081526020015f205f8573ffffffffffffffffffffffffffffffffffffffff1673ffffffffffffffffffffffffffffffffffffffff1681526020019081526020015f205f8360ff16600481111561444c5761444b614b0c565b5b600481111561445e5761445d614b0c565b5b60048111156144705761446f614b0c565b5b81526020019081526020015f205f0160106101000a8154816fffffffffffffffffffffffffffffffff02191690836fffffffffffffffffffffffffffffffff16021790555080806001019150506143d9565b505f816001015f6101000a8154816fffffffffffffffffffffffffffffffff02191690836fffffffffffffffffffffffffffffffff16021790555042815f0160026101000a81548163ffffffff021916908363ffffffff1602179055508173ffffffffffffffffffffffffffffffffffffffff16837f0562c4d705e835fa67ca259e2a0c9b0b58a8a2485d529fe45c70243d3750748a426040516145669190614acb565b60405180910390a35b505050565b6040518060a00160405280600590602082028036833780820191505090505090565b828054828255905f5260205f2090810192821561460c579160200282015b8281111561460b578251825f6101000a81548173ffffffffffffffffffffffffffffffffffffffff021916908373ffffffffffffffffffffffffffffffffffffffff160217905550916020019190600101906145b4565b5b509050614619919061461d565b5090565b5b80821115614634575f815f90555060010161461e565b5090565b5f5ffd5b5f819050919050565b61464e8161463c565b8114614658575f5ffd5b50565b5f8135905061466981614645565b92915050565b5f6020828403121561468457614683614638565b5b5f6146918482850161465b565b91505092915050565b6146a38161463c565b82525050565b5f73ffffffffffffffffffffffffffffffffffffffff82169050919050565b5f6146d2826146a9565b9050919050565b6146e2816146c8565b82525050565b5f8115159050919050565b6146fc816146e8565b82525050565b5f63ffffffff82169050919050565b61471a81614702565b82525050565b5f60a0820190506147335f83018861469a565b61474060208301876146d9565b61474d60408301866146f3565b61475a6060830185614711565b614767608083018461469a565b9695505050505050565b5f60e0820190506147845f83018a61469a565b61479160208301896146d9565b61479e60408301886146f3565b6147ab6060830187614711565b6147b8608083018661469a565b6147c560a083018561469a565b6147d260c083018461469a565b98975050505050505050565b6147e7816146c8565b81146147f1575f5ffd5b50565b5f81359050614802816147de565b92915050565b60058110614814575f5ffd5b50565b5f8135905061482581614808565b92915050565b5f5f5f6060848603121561484257614841614638565b5b5f61484f8682870161465b565b9350506020614860868287016147f4565b925050604061487186828701614817565b9150509250925092565b5f602082840312156148905761488f614638565b5b5f61489d848285016147f4565b91505092915050565b5f81519050919050565b5f82825260208201905092915050565b5f819050602082019050919050565b6148d8816146c8565b82525050565b5f6148e983836148cf565b60208301905092915050565b5f602082019050919050565b5f61490b826148a6565b61491581856148b0565b9350614920836148c0565b805f5b8381101561495057815161493788826148de565b9750614942836148f5565b925050600181019050614923565b5085935050505092915050565b5f6020820190508181035f8301526149758184614901565b905092915050565b5f5f6040838503121561499357614992614638565b5b5f6149a08582860161465b565b92505060206149b1858286016147f4565b9150509250929050565b5f6020820190506149ce5f8301846146f3565b92915050565b5f60059050919050565b5f81905092915050565b5f819050919050565b5f6fffffffffffffffffffffffffffffffff82169050919050565b614a15816149f1565b82525050565b5f614a268383614a0c565b60208301905092915050565b5f602082019050919050565b614a47816149d4565b614a5181846149de565b9250614a5c826149e8565b805f5b83811015614a8c578151614a738782614a1b565b9650614a7e83614a32565b925050600181019050614a5f565b505050505050565b5f6101e082019050614aa85f830186614a3e565b614ab560a0830185614a3e565b614ac3610140830184614a3e565b949350505050565b5f602082019050614ade5f83018461469a565b92915050565b614aed816149f1565b82525050565b5f602082019050614b065f830184614ae4565b92915050565b7f4e487b71000000000000000000000000000000000000000000000000000000005f52602160045260245ffd5b60058110614b4a57614b49614b0c565b5b50565b5f819050614b5a82614b39565b919050565b5f614b6982614b4d565b9050919050565b614b7981614b5f565b82525050565b5f604082019050614b925f830185614b70565b614b9f60208301846146f3565b9392505050565b614baf816149f1565b8114614bb9575f5ffd5b50565b5f81359050614bca81614ba6565b92915050565b5f5f5f5f60808587031215614be857614be7614638565b5b5f614bf58782880161465b565b9450506020614c06878288016147f4565b9350506040614c1787828801614817565b9250506060614c2887828801614bbc565b91505092959194509250565b5f604082019050614c475f830185614ae4565b614c546020830184614ae4565b9392505050565b5f60a082019050614c6e5f8301886146f3565b614c7b60208301876146f3565b614c886040830186614711565b614c956060830185614ae4565b614ca26080830184614ae4565b9695505050505050565b5f602082019050614cbf5f8301846146d9565b92915050565b5f82825260208201905092915050565b7f496e73756666696369656e742066616d696c792066756e6473000000000000005f82015250565b5f614d09601983614cc5565b9150614d1482614cd5565b602082019050919050565b5f6020820190508181035f830152614d3681614cfd565b9050919050565b7f4e487b71000000000000000000000000000000000000000000000000000000005f52601160045260245ffd5b5f614d748261463c565b9150614d7f8361463c565b9250828201905080821115614d9757614d96614d3d565b5b92915050565b5f614da7826149f1565b9150614db2836149f1565b925082820190506fffffffffffffffffffffffffffffffff811115614dda57614dd9614d3d565b5b92915050565b5f614dea8261463c565b9150614df58361463c565b9250828203905081811115614e0d57614e0c614d3d565b5b92915050565b5f81905092915050565b50565b5f614e2b5f83614e13565b9150614e3682614e1d565b5f82019050919050565b5f614e4a82614e20565b9150819050919050565b5f604082019050614e675f83018561469a565b614e746020830184614b70565b9392505050565b5f608082019050614e8e5f83018761469a565b614e9b6020830186614b70565b614ea860408301856146f3565b614eb5606083018461469a565b95945050505050565b7f4e487b71000000000000000000000000000000000000000000000000000000005f52603260045260245ffd5b7f4e487b71000000000000000000000000000000000000000000000000000000005f52603160045260245ffd5b5f614f22826149f1565b9150614f2d836149f1565b925082820390506fffffffffffffffffffffffffffffffff811115614f5557614f54614d3d565b5b92915050565b5f819050919050565b5f614f7e614f79614f74846149f1565b614f5b565b61463c565b9050919050565b614f8e81614f64565b82525050565b5f604082019050614fa75f830185614f85565b614fb460208301846146d9565b9392505050565b7f4d7573742073656e6420457468657200000000000000000000000000000000005f82015250565b5f614fef600f83614cc5565b9150614ffa82614fbb565b602082019050919050565b5f6020820190508181035f83015261501c81614fe3565b9050919050565b7f4e6f7420456e6f75676820416d6f756e740000000000000000000000000000005f82015250565b5f615057601183614cc5565b915061506282615023565b602082019050919050565b5f6020820190508181035f8301526150848161504b565b9050919050565b5f6150958261463c565b91507fffffffffffffffffffffffffffffffffffffffffffffffffffffffffffffffff82036150c7576150c6614d3d565b5b600182019050919050565b7f4e487b71000000000000000000000000000000000000000000000000000000005f52604160045260245ffdfea26469706673582212203d71f7fcf920d543507a27557864f518c24853a557f927a97f298dd399a6cbfd64736f6c634300081e0033",
        "linkReferences": {}
    },
    "methodIdentifiers": {
        "addChildToFamily(uint256,address)": "5c708595",
        "addFunds(uint256)": "be999705",
        "addParentToFamily(uint256,address)": "d639c384",
        "addVendorToFamily(uint256,address,uint8)": "2caadc1d",
        "createFamily()": "d7cfc6c1",
        "families(uint256)": "078beae5",
        "familyCategorySpending(uint256,address,uint8)": "b9ccb6d8",
        "familyParents(uint256,address)": "4e3855fa",
        "familyUsers(uint256,address)": "c5f6855a",
        "familyVendors(uint256,address)": "a7e8bcad",
        "getContractBalance()": "6f9fb98a",
        "getDetailedReport(uint256,address)": "6d4388a0",
        "getFamilyChildren(uint256)": "3ea30a35",
        "getFamilyInfo(uint256)": "1776219e",
        "getFamilyParents(uint256)": "ebfe4972",
        "getFamilyVendors(uint256)": "a86bb7e3",
        "getRemainingLimit(uint256,address,uint8)": "8553f6fb",
        "getUserFamily(address)": "a79ea1a5",
        "isPaused()": "b187bd26",
        "makeEmergencyPayment(address)": "53c7cd81",
        "makePayment(address)": "300be4fc",
        "nextFamilyId()": "a7697728",
        "pauseContract()": "439766ce",
        "removeChildFromFamily(uint256,address)": "71428a9a",
        "removeVendorFromFamily(uint256,address)": "6210f0eb",
        "setLimitForChild(uint256,address,uint8,uint128)": "b87f0a3b",
        "unpauseContract()": "b33712c5",
        "userToFamily(address)": "7952859b"
    },
    "id": 21
}