{
  "abi": [
    {
      "type": "constructor",
      "inputs": [],
      "stateMutability": "nonpayable"
    },
    {
      "type": "receive",
      "stateMutability": "payable"
    },
    {
      "type": "function",
      "name": "addChildToFamily",
      "inputs": [
        {
          "name": "familyId",
          "type": "uint256",
          "internalType": "uint256"
        },
        {
          "name": "child",
          "type": "address",
          "internalType": "address"
        }
      ],
      "outputs": [],
      "stateMutability": "nonpayable"
    },
    {
      "type": "function",
      "name": "addParentToFamily",
      "inputs": [
        {
          "name": "familyId",
          "type": "uint256",
          "internalType": "uint256"
        },
        {
          "name": "newParent",
          "type": "address",
          "internalType": "address"
        }
      ],
      "outputs": [],
      "stateMutability": "nonpayable"
    },
    {
      "type": "function",
      "name": "addVendorToFamily",
      "inputs": [
        {
          "name": "familyId",
          "type": "uint256",
          "internalType": "uint256"
        },
        {
          "name": "vendor",
          "type": "address",
          "internalType": "address"
        },
        {
          "name": "category",
          "type": "uint8",
          "internalType": "enum FamilySharedWallet.Category"
        }
      ],
      "outputs": [],
      "stateMutability": "nonpayable"
    },
    {
      "type": "function",
      "name": "createFamily",
      "inputs": [],
      "outputs": [
        {
          "name": "familyId",
          "type": "uint256",
          "internalType": "uint256"
        }
      ],
      "stateMutability": "nonpayable"
    },
    {
      "type": "function",
      "name": "families",
      "inputs": [
        {
          "name": "",
          "type": "uint256",
          "internalType": "uint256"
        }
      ],
      "outputs": [
        {
          "name": "familyId",
          "type": "uint256",
          "internalType": "uint256"
        },
        {
          "name": "familyCreator",
          "type": "address",
          "internalType": "address"
        },
        {
          "name": "isActive",
          "type": "bool",
          "internalType": "bool"
        },
        {
          "name": "createdAt",
          "type": "uint32",
          "internalType": "uint32"
        }
      ],
      "stateMutability": "view"
    },
    {
      "type": "function",
      "name": "familyCategorySpending",
      "inputs": [
        {
          "name": "",
          "type": "uint256",
          "internalType": "uint256"
        },
        {
          "name": "",
          "type": "address",
          "internalType": "address"
        },
        {
          "name": "",
          "type": "uint8",
          "internalType": "enum FamilySharedWallet.Category"
        }
      ],
      "outputs": [
        {
          "name": "limit",
          "type": "uint128",
          "internalType": "uint128"
        },
        {
          "name": "spent",
          "type": "uint128",
          "internalType": "uint128"
        }
      ],
      "stateMutability": "view"
    },
    {
      "type": "function",
      "name": "familyParents",
      "inputs": [
        {
          "name": "",
          "type": "uint256",
          "internalType": "uint256"
        },
        {
          "name": "",
          "type": "address",
          "internalType": "address"
        }
      ],
      "outputs": [
        {
          "name": "",
          "type": "bool",
          "internalType": "bool"
        }
      ],
      "stateMutability": "view"
    },
    {
      "type": "function",
      "name": "familyUsers",
      "inputs": [
        {
          "name": "",
          "type": "uint256",
          "internalType": "uint256"
        },
        {
          "name": "",
          "type": "address",
          "internalType": "address"
        }
      ],
      "outputs": [
        {
          "name": "isChild",
          "type": "bool",
          "internalType": "bool"
        },
        {
          "name": "isActive",
          "type": "bool",
          "internalType": "bool"
        },
        {
          "name": "lastResetTime",
          "type": "uint32",
          "internalType": "uint32"
        },
        {
          "name": "totalMonthlyLimit",
          "type": "uint128",
          "internalType": "uint128"
        },
        {
          "name": "totalSpent",
          "type": "uint128",
          "internalType": "uint128"
        }
      ],
      "stateMutability": "view"
    },
    {
      "type": "function",
      "name": "familyVendors",
      "inputs": [
        {
          "name": "",
          "type": "uint256",
          "internalType": "uint256"
        },
        {
          "name": "",
          "type": "address",
          "internalType": "address"
        }
      ],
      "outputs": [
        {
          "name": "category",
          "type": "uint8",
          "internalType": "enum FamilySharedWallet.Category"
        },
        {
          "name": "isActive",
          "type": "bool",
          "internalType": "bool"
        }
      ],
      "stateMutability": "view"
    },
    {
      "type": "function",
      "name": "getContractBalance",
      "inputs": [],
      "outputs": [
        {
          "name": "",
          "type": "uint256",
          "internalType": "uint256"
        }
      ],
      "stateMutability": "view"
    },
    {
      "type": "function",
      "name": "getDetailedReport",
      "inputs": [
        {
          "name": "familyId",
          "type": "uint256",
          "internalType": "uint256"
        },
        {
          "name": "child",
          "type": "address",
          "internalType": "address"
        }
      ],
      "outputs": [
        {
          "name": "spent",
          "type": "uint128[5]",
          "internalType": "uint128[5]"
        },
        {
          "name": "limits",
          "type": "uint128[5]",
          "internalType": "uint128[5]"
        },
        {
          "name": "remaining",
          "type": "uint128[5]",
          "internalType": "uint128[5]"
        }
      ],
      "stateMutability": "view"
    },
    {
      "type": "function",
      "name": "getFamilyChildren",
      "inputs": [
        {
          "name": "familyId",
          "type": "uint256",
          "internalType": "uint256"
        }
      ],
      "outputs": [
        {
          "name": "",
          "type": "address[]",
          "internalType": "address[]"
        }
      ],
      "stateMutability": "view"
    },
    {
      "type": "function",
      "name": "getFamilyInfo",
      "inputs": [
        {
          "name": "familyId",
          "type": "uint256",
          "internalType": "uint256"
        }
      ],
      "outputs": [
        {
          "name": "id",
          "type": "uint256",
          "internalType": "uint256"
        },
        {
          "name": "creator",
          "type": "address",
          "internalType": "address"
        },
        {
          "name": "active",
          "type": "bool",
          "internalType": "bool"
        },
        {
          "name": "createdAt",
          "type": "uint32",
          "internalType": "uint32"
        },
        {
          "name": "parentCount",
          "type": "uint256",
          "internalType": "uint256"
        },
        {
          "name": "childCount",
          "type": "uint256",
          "internalType": "uint256"
        },
        {
          "name": "vendorCount",
          "type": "uint256",
          "internalType": "uint256"
        }
      ],
      "stateMutability": "view"
    },
    {
      "type": "function",
      "name": "getFamilyParents",
      "inputs": [
        {
          "name": "familyId",
          "type": "uint256",
          "internalType": "uint256"
        }
      ],
      "outputs": [
        {
          "name": "",
          "type": "address[]",
          "internalType": "address[]"
        }
      ],
      "stateMutability": "view"
    },
    {
      "type": "function",
      "name": "getFamilyVendors",
      "inputs": [
        {
          "name": "familyId",
          "type": "uint256",
          "internalType": "uint256"
        }
      ],
      "outputs": [
        {
          "name": "",
          "type": "address[]",
          "internalType": "address[]"
        }
      ],
      "stateMutability": "view"
    },
    {
      "type": "function",
      "name": "getRemainingLimit",
      "inputs": [
        {
          "name": "familyId",
          "type": "uint256",
          "internalType": "uint256"
        },
        {
          "name": "child",
          "type": "address",
          "internalType": "address"
        },
        {
          "name": "category",
          "type": "uint8",
          "internalType": "enum FamilySharedWallet.Category"
        }
      ],
      "outputs": [
        {
          "name": "remaining",
          "type": "uint128",
          "internalType": "uint128"
        }
      ],
      "stateMutability": "view"
    },
    {
      "type": "function",
      "name": "getUserFamily",
      "inputs": [
        {
          "name": "user",
          "type": "address",
          "internalType": "address"
        }
      ],
      "outputs": [
        {
          "name": "",
          "type": "uint256",
          "internalType": "uint256"
        }
      ],
      "stateMutability": "view"
    },
    {
      "type": "function",
      "name": "isPaused",
      "inputs": [],
      "outputs": [
        {
          "name": "",
          "type": "bool",
          "internalType": "bool"
        }
      ],
      "stateMutability": "view"
    },
    {
      "type": "function",
      "name": "makeEmergencyPayment",
      "inputs": [
        {
          "name": "vendor",
          "type": "address",
          "internalType": "address"
        }
      ],
      "outputs": [],
      "stateMutability": "payable"
    },
    {
      "type": "function",
      "name": "makePayment",
      "inputs": [
        {
          "name": "vendor",
          "type": "address",
          "internalType": "address"
        }
      ],
      "outputs": [],
      "stateMutability": "payable"
    },
    {
      "type": "function",
      "name": "nextFamilyId",
      "inputs": [],
      "outputs": [
        {
          "name": "",
          "type": "uint256",
          "internalType": "uint256"
        }
      ],
      "stateMutability": "view"
    },
    {
      "type": "function",
      "name": "pauseContract",
      "inputs": [],
      "outputs": [],
      "stateMutability": "nonpayable"
    },
    {
      "type": "function",
      "name": "removeChildFromFamily",
      "inputs": [
        {
          "name": "familyId",
          "type": "uint256",
          "internalType": "uint256"
        },
        {
          "name": "child",
          "type": "address",
          "internalType": "address"
        }
      ],
      "outputs": [],
      "stateMutability": "nonpayable"
    },
    {
      "type": "function",
      "name": "removeVendorFromFamily",
      "inputs": [
        {
          "name": "familyId",
          "type": "uint256",
          "internalType": "uint256"
        },
        {
          "name": "vendor",
          "type": "address",
          "internalType": "address"
        }
      ],
      "outputs": [],
      "stateMutability": "nonpayable"
    },
    {
      "type": "function",
      "name": "setLimitForChild",
      "inputs": [
        {
          "name": "familyId",
          "type": "uint256",
          "internalType": "uint256"
        },
        {
          "name": "child",
          "type": "address",
          "internalType": "address"
        },
        {
          "name": "category",
          "type": "uint8",
          "internalType": "enum FamilySharedWallet.Category"
        },
        {
          "name": "amount",
          "type": "uint128",
          "internalType": "uint128"
        }
      ],
      "outputs": [],
      "stateMutability": "nonpayable"
    },
    {
      "type": "function",
      "name": "unpauseContract",
      "inputs": [],
      "outputs": [],
      "stateMutability": "nonpayable"
    },
    {
      "type": "function",
      "name": "userToFamily",
      "inputs": [
        {
          "name": "",
          "type": "address",
          "internalType": "address"
        }
      ],
      "outputs": [
        {
          "name": "",
          "type": "uint256",
          "internalType": "uint256"
        }
      ],
      "stateMutability": "view"
    },
    {
      "type": "event",
      "name": "ChildAdded",
      "inputs": [
        {
          "name": "familyId",
          "type": "uint256",
          "indexed": true,
          "internalType": "uint256"
        },
        {
          "name": "child",
          "type": "address",
          "indexed": true,
          "internalType": "address"
        },
        {
          "name": "addedBy",
          "type": "address",
          "indexed": true,
          "internalType": "address"
        }
      ],
      "anonymous": false
    },
    {
      "type": "event",
      "name": "ChildRemoved",
      "inputs": [
        {
          "name": "familyId",
          "type": "uint256",
          "indexed": true,
          "internalType": "uint256"
        },
        {
          "name": "child",
          "type": "address",
          "indexed": true,
          "internalType": "address"
        },
        {
          "name": "removedBy",
          "type": "address",
          "indexed": true,
          "internalType": "address"
        }
      ],
      "anonymous": false
    },
    {
      "type": "event",
      "name": "ContractPaused",
      "inputs": [],
      "anonymous": false
    },
    {
      "type": "event",
      "name": "ContractUnpaused",
      "inputs": [],
      "anonymous": false
    },
    {
      "type": "event",
      "name": "EmergencyPayment",
      "inputs": [
        {
          "name": "familyId",
          "type": "uint256",
          "indexed": true,
          "internalType": "uint256"
        },
        {
          "name": "child",
          "type": "address",
          "indexed": true,
          "internalType": "address"
        },
        {
          "name": "vendor",
          "type": "address",
          "indexed": true,
          "internalType": "address"
        },
        {
          "name": "amount",
          "type": "uint256",
          "indexed": false,
          "internalType": "uint256"
        },
        {
          "name": "category",
          "type": "uint8",
          "indexed": false,
          "internalType": "enum FamilySharedWallet.Category"
        }
      ],
      "anonymous": false
    },
    {
      "type": "event",
      "name": "FamilyCreated",
      "inputs": [
        {
          "name": "familyId",
          "type": "uint256",
          "indexed": true,
          "internalType": "uint256"
        },
        {
          "name": "creator",
          "type": "address",
          "indexed": true,
          "internalType": "address"
        }
      ],
      "anonymous": false
    },
    {
      "type": "event",
      "name": "FundsWithdrawn",
      "inputs": [
        {
          "name": "familyId",
          "type": "uint256",
          "indexed": true,
          "internalType": "uint256"
        },
        {
          "name": "to",
          "type": "address",
          "indexed": true,
          "internalType": "address"
        },
        {
          "name": "amount",
          "type": "uint256",
          "indexed": false,
          "internalType": "uint256"
        },
        {
          "name": "withdrawnBy",
          "type": "address",
          "indexed": true,
          "internalType": "address"
        }
      ],
      "anonymous": false
    },
    {
      "type": "event",
      "name": "LimitSet",
      "inputs": [
        {
          "name": "familyId",
          "type": "uint256",
          "indexed": true,
          "internalType": "uint256"
        },
        {
          "name": "child",
          "type": "address",
          "indexed": true,
          "internalType": "address"
        },
        {
          "name": "category",
          "type": "uint8",
          "indexed": true,
          "internalType": "enum FamilySharedWallet.Category"
        },
        {
          "name": "amount",
          "type": "uint256",
          "indexed": false,
          "internalType": "uint256"
        },
        {
          "name": "setBy",
          "type": "address",
          "indexed": false,
          "internalType": "address"
        }
      ],
      "anonymous": false
    },
    {
      "type": "event",
      "name": "LimitsReset",
      "inputs": [
        {
          "name": "familyId",
          "type": "uint256",
          "indexed": true,
          "internalType": "uint256"
        },
        {
          "name": "child",
          "type": "address",
          "indexed": true,
          "internalType": "address"
        },
        {
          "name": "resetTime",
          "type": "uint256",
          "indexed": false,
          "internalType": "uint256"
        }
      ],
      "anonymous": false
    },
    {
      "type": "event",
      "name": "ParentAdded",
      "inputs": [
        {
          "name": "familyId",
          "type": "uint256",
          "indexed": true,
          "internalType": "uint256"
        },
        {
          "name": "parent",
          "type": "address",
          "indexed": true,
          "internalType": "address"
        },
        {
          "name": "addedBy",
          "type": "address",
          "indexed": true,
          "internalType": "address"
        }
      ],
      "anonymous": false
    },
    {
      "type": "event",
      "name": "PaymentMade",
      "inputs": [
        {
          "name": "familyId",
          "type": "uint256",
          "indexed": true,
          "internalType": "uint256"
        },
        {
          "name": "child",
          "type": "address",
          "indexed": true,
          "internalType": "address"
        },
        {
          "name": "vendor",
          "type": "address",
          "indexed": true,
          "internalType": "address"
        },
        {
          "name": "amount",
          "type": "uint256",
          "indexed": false,
          "internalType": "uint256"
        },
        {
          "name": "category",
          "type": "uint8",
          "indexed": false,
          "internalType": "enum FamilySharedWallet.Category"
        }
      ],
      "anonymous": false
    },
    {
      "type": "event",
      "name": "TransactionLogged",
      "inputs": [
        {
          "name": "familyId",
          "type": "uint256",
          "indexed": true,
          "internalType": "uint256"
        },
        {
          "name": "child",
          "type": "address",
          "indexed": true,
          "internalType": "address"
        },
        {
          "name": "vendor",
          "type": "address",
          "indexed": true,
          "internalType": "address"
        },
        {
          "name": "amount",
          "type": "uint256",
          "indexed": false,
          "internalType": "uint256"
        },
        {
          "name": "category",
          "type": "uint8",
          "indexed": false,
          "internalType": "enum FamilySharedWallet.Category"
        },
        {
          "name": "emergency",
          "type": "bool",
          "indexed": false,
          "internalType": "bool"
        },
        {
          "name": "timestamp",
          "type": "uint256",
          "indexed": false,
          "internalType": "uint256"
        }
      ],
      "anonymous": false
    },
    {
      "type": "event",
      "name": "VendorAdded",
      "inputs": [
        {
          "name": "familyId",
          "type": "uint256",
          "indexed": true,
          "internalType": "uint256"
        },
        {
          "name": "vendor",
          "type": "address",
          "indexed": true,
          "internalType": "address"
        },
        {
          "name": "category",
          "type": "uint8",
          "indexed": true,
          "internalType": "enum FamilySharedWallet.Category"
        },
        {
          "name": "addedBy",
          "type": "address",
          "indexed": false,
          "internalType": "address"
        }
      ],
      "anonymous": false
    },
    {
      "type": "event",
      "name": "VendorRemoved",
      "inputs": [
        {
          "name": "familyId",
          "type": "uint256",
          "indexed": true,
          "internalType": "uint256"
        },
        {
          "name": "vendor",
          "type": "address",
          "indexed": true,
          "internalType": "address"
        },
        {
          "name": "removedBy",
          "type": "address",
          "indexed": true,
          "internalType": "address"
        }
      ],
      "anonymous": false
    },
    {
      "type": "error",
      "name": "ChildAlreadyExists",
      "inputs": []
    },
    {
      "type": "error",
      "name": "ChildNotFound",
      "inputs": []
    },
    {
      "type": "error",
      "name": "ContractPausedError",
      "inputs": []
    },
    {
      "type": "error",
      "name": "ExceedsLimit",
      "inputs": []
    },
    {
      "type": "error",
      "name": "FamilyNotFound",
      "inputs": []
    },
    {
      "type": "error",
      "name": "InvalidAmount",
      "inputs": []
    },
    {
      "type": "error",
      "name": "InvalidCategory",
      "inputs": []
    },
    {
      "type": "error",
      "name": "InvalidFamilyId",
      "inputs": []
    },
    {
      "type": "error",
      "name": "NotApprovedVendor",
      "inputs": []
    },
    {
      "type": "error",
      "name": "OnlyActiveChild",
      "inputs": []
    },
    {
      "type": "error",
      "name": "OnlyChild",
      "inputs": []
    },
    {
      "type": "error",
      "name": "OnlyFamilyMember",
      "inputs": []
    },
    {
      "type": "error",
      "name": "OnlyParent",
      "inputs": []
    },
    {
      "type": "error",
      "name": "ParentAlreadyExists",
      "inputs": []
    },
    {
      "type": "error",
      "name": "TransferFailed",
      "inputs": []
    },
    {
      "type": "error",
      "name": "UserAlreadyInFamily",
      "inputs": []
    },
    {
      "type": "error",
      "name": "UserNotInFamily",
      "inputs": []
    },
    {
      "type": "error",
      "name": "VendorNotFound",
      "inputs": []
    }
  ],
  "bytecode": {
    "object": "0x6080604052348015600e575f5ffd5b5060015f81905550614c2b806100235f395ff3fe60806040526004361061019f575f3560e01c80637952859b116100eb578063b33712c511610089578063c5f6855a11610063578063c5f6855a146105f5578063d639c38414610635578063d7cfc6c11461065d578063ebfe497214610687576101a6565b8063b33712c51461057a578063b87f0a3b14610590578063b9ccb6d8146105b8576101a6565b8063a79ea1a5116100c5578063a79ea1a51461049b578063a7e8bcad146104d7578063a86bb7e314610514578063b187bd2614610550576101a6565b80637952859b146103f95780638553f6fb14610435578063a769772814610471576101a6565b80634e3855fa116101585780636210f0eb116101325780636210f0eb146103415780636d4388a0146103695780636f9fb98a146103a757806371428a9a146103d1576101a6565b80634e3855fa146102c157806353c7cd81146102fd5780635c70859514610319576101a6565b8063078beae5146101aa5780631776219e146101e95780632caadc1d1461022b578063300be4fc146102535780633ea30a351461026f578063439766ce146102ab576101a6565b366101a657005b5f5ffd5b3480156101b5575f5ffd5b506101d060048036038101906101cb91906142bb565b6106c3565b6040516101e0949392919061436c565b60405180910390f35b3480156101f4575f5ffd5b5061020f600480360381019061020a91906142bb565b61072b565b60405161022297969594939291906143af565b60405180910390f35b348015610236575f5ffd5b50610251600480360381019061024c9190614469565b6108b1565b005b61026d600480360381019061026891906144b9565b610b52565b005b34801561027a575f5ffd5b50610295600480360381019061029091906142bb565b6111ad565b6040516102a2919061459b565b60405180910390f35b3480156102b6575f5ffd5b506102bf61134f565b005b3480156102cc575f5ffd5b506102e760048036038101906102e291906145bb565b611456565b6040516102f491906145f9565b60405180910390f35b610317600480360381019061031291906144b9565b611480565b005b348015610324575f5ffd5b5061033f600480360381019061033a91906145bb565b611945565b005b34801561034c575f5ffd5b50610367600480360381019061036291906145bb565b611de8565b005b348015610374575f5ffd5b5061038f600480360381019061038a91906145bb565b6121d1565b60405161039e939291906146d2565b60405180910390f35b3480156103b2575f5ffd5b506103bb6125b0565b6040516103c89190614709565b60405180910390f35b3480156103dc575f5ffd5b506103f760048036038101906103f291906145bb565b6125b7565b005b348015610404575f5ffd5b5061041f600480360381019061041a91906144b9565b612a47565b60405161042c9190614709565b60405180910390f35b348015610440575f5ffd5b5061045b60048036038101906104569190614469565b612a5c565b6040516104689190614731565b60405180910390f35b34801561047c575f5ffd5b50610485612c13565b6040516104929190614709565b60405180910390f35b3480156104a6575f5ffd5b506104c160048036038101906104bc91906144b9565b612c18565b6040516104ce9190614709565b60405180910390f35b3480156104e2575f5ffd5b506104fd60048036038101906104f891906145bb565b612c5e565b60405161050b9291906147bd565b60405180910390f35b34801561051f575f5ffd5b5061053a600480360381019061053591906142bb565b612ca1565b604051610547919061459b565b60405180910390f35b34801561055b575f5ffd5b50610564612e43565b60405161057191906145f9565b60405180910390f35b348015610585575f5ffd5b5061058e612e55565b005b34801561059b575f5ffd5b506105b660048036038101906105b1919061480e565b612f5c565b005b3480156105c3575f5ffd5b506105de60048036038101906105d99190614469565b613277565b6040516105ec929190614872565b60405180910390f35b348015610600575f5ffd5b5061061b600480360381019061061691906145bb565b6132e3565b60405161062c959493929190614899565b60405180910390f35b348015610640575f5ffd5b5061065b600480360381019061065691906145bb565b61337d565b005b348015610668575f5ffd5b50610671613880565b60405161067e9190614709565b60405180910390f35b348015610692575f5ffd5b506106ad60048036038101906106a891906142bb565b613e1a565b6040516106ba919061459b565b60405180910390f35b6002602052805f5260405f205f91509050805f015490806001015f9054906101000a900473ffffffffffffffffffffffffffffffffffffffff16908060010160149054906101000a900460ff16908060010160159054906101000a900463ffffffff16905084565b5f5f5f5f5f5f5f875f81148061074257505f548110155b8061076c575060025f8281526020019081526020015f2060010160149054906101000a900460ff16155b156107a3576040517f7e0ba9ad00000000000000000000000000000000000000000000000000000000815260040160405180910390fd5b888060035f3373ffffffffffffffffffffffffffffffffffffffff1673ffffffffffffffffffffffffffffffffffffffff1681526020019081526020015f20541461081a576040517f2ea69d3400000000000000000000000000000000000000000000000000000000815260040160405180910390fd5b5f60025f8c81526020019081526020015f209050805f0154816001015f9054906101000a900473ffffffffffffffffffffffffffffffffffffffff168260010160149054906101000a900460ff168360010160159054906101000a900463ffffffff168460020180549050856003018054905086600401805490509950995099509950995099509950505050919395979092949650565b825f8114806108c157505f548110155b806108eb575060025f8281526020019081526020015f2060010160149054906101000a900460ff16155b15610922576040517f7e0ba9ad00000000000000000000000000000000000000000000000000000000815260040160405180910390fd5b8360045f8281526020019081526020015f205f3373ffffffffffffffffffffffffffffffffffffffff1673ffffffffffffffffffffffffffffffffffffffff1681526020019081526020015f205f9054906101000a900460ff166109b2576040517fd6d54b1200000000000000000000000000000000000000000000000000000000815260040160405180910390fd5b60405180604001604052808460048111156109d0576109cf61474a565b5b81526020016001151581525060075f8781526020019081526020015f205f8673ffffffffffffffffffffffffffffffffffffffff1673ffffffffffffffffffffffffffffffffffffffff1681526020019081526020015f205f820151815f015f6101000a81548160ff02191690836004811115610a5057610a4f61474a565b5b02179055506020820151815f0160016101000a81548160ff02191690831515021790555090505060025f8681526020019081526020015f2060040184908060018154018082558091505060019003905f5260205f20015f9091909190916101000a81548173ffffffffffffffffffffffffffffffffffffffff021916908373ffffffffffffffffffffffffffffffffffffffff160217905550826004811115610afc57610afb61474a565b5b8473ffffffffffffffffffffffffffffffffffffffff16867fa617deb13a8896d9eb498434e4800a6c0a3b80085e7bc42da144a4e78b66688a33604051610b4391906148ea565b60405180910390a45050505050565b345f8103610b8c576040517f2c5211c600000000000000000000000000000000000000000000000000000000815260040160405180910390fd5b60015f9054906101000a900460ff1615610bd2576040517f76756f4800000000000000000000000000000000000000000000000000000000815260040160405180910390fd5b5f60035f3373ffffffffffffffffffffffffffffffffffffffff1673ffffffffffffffffffffffffffffffffffffffff1681526020019081526020015f205490505f8103610c4c576040517fd0864efa00000000000000000000000000000000000000000000000000000000815260040160405180910390fd5b60055f8281526020019081526020015f205f3373ffffffffffffffffffffffffffffffffffffffff1673ffffffffffffffffffffffffffffffffffffffff1681526020019081526020015f205f015f9054906101000a900460ff161580610d0c575060055f8281526020019081526020015f205f3373ffffffffffffffffffffffffffffffffffffffff1673ffffffffffffffffffffffffffffffffffffffff1681526020019081526020015f205f0160019054906101000a900460ff16155b15610d43576040517f36a5bcb100000000000000000000000000000000000000000000000000000000815260040160405180910390fd5b5f60075f8381526020019081526020015f205f8573ffffffffffffffffffffffffffffffffffffffff1673ffffffffffffffffffffffffffffffffffffffff1681526020019081526020015f209050805f0160019054906101000a900460ff16610dd9576040517f1fbd8f5a00000000000000000000000000000000000000000000000000000000815260040160405180910390fd5b5f815f015f9054906101000a900460ff169050610df68333613fa3565b5f60065f8581526020019081526020015f205f3373ffffffffffffffffffffffffffffffffffffffff1673ffffffffffffffffffffffffffffffffffffffff1681526020019081526020015f205f836004811115610e5757610e5661474a565b5b6004811115610e6957610e6861474a565b5b81526020019081526020015f209050805f015f9054906101000a90046fffffffffffffffffffffffffffffffff166fffffffffffffffffffffffffffffffff1634825f0160109054906101000a90046fffffffffffffffffffffffffffffffff166fffffffffffffffffffffffffffffffff16610ee69190614930565b1115610f1e576040517f4f2a111200000000000000000000000000000000000000000000000000000000815260040160405180910390fd5b34815f0160108282829054906101000a90046fffffffffffffffffffffffffffffffff16610f4c9190614963565b92506101000a8154816fffffffffffffffffffffffffffffffff02191690836fffffffffffffffffffffffffffffffff1602179055503460055f8681526020019081526020015f205f3373ffffffffffffffffffffffffffffffffffffffff1673ffffffffffffffffffffffffffffffffffffffff1681526020019081526020015f206001015f8282829054906101000a90046fffffffffffffffffffffffffffffffff16610ffb9190614963565b92506101000a8154816fffffffffffffffffffffffffffffffff02191690836fffffffffffffffffffffffffffffffff1602179055505f8673ffffffffffffffffffffffffffffffffffffffff1634604051611056906149d3565b5f6040518083038185875af1925050503d805f8114611090576040519150601f19603f3d011682016040523d82523d5f602084013e611095565b606091505b50509050806110d0576040517f90b8ec1800000000000000000000000000000000000000000000000000000000815260040160405180910390fd5b8673ffffffffffffffffffffffffffffffffffffffff163373ffffffffffffffffffffffffffffffffffffffff16867f2d950edfe585735b2d5e6359eec49e6f905c96a71889600f3a970121aefcd59734876040516111309291906149e7565b60405180910390a48673ffffffffffffffffffffffffffffffffffffffff163373ffffffffffffffffffffffffffffffffffffffff16867fd68922662578f2d3e32538c4be08d44218500803ef3f633f4d89c6431c93fa0c34875f4260405161119c9493929190614a0e565b60405180910390a450505050505050565b6060815f8114806111bf57505f548110155b806111e9575060025f8281526020019081526020015f2060010160149054906101000a900460ff16155b15611220576040517f7e0ba9ad00000000000000000000000000000000000000000000000000000000815260040160405180910390fd5b8260045f8281526020019081526020015f205f3373ffffffffffffffffffffffffffffffffffffffff1673ffffffffffffffffffffffffffffffffffffffff1681526020019081526020015f205f9054906101000a900460ff166112b0576040517fd6d54b1200000000000000000000000000000000000000000000000000000000815260040160405180910390fd5b60025f8581526020019081526020015f2060030180548060200260200160405190810160405280929190818152602001828054801561134157602002820191905f5260205f20905b815f9054906101000a900473ffffffffffffffffffffffffffffffffffffffff1673ffffffffffffffffffffffffffffffffffffffff16815260200190600101908083116112f8575b505050505092505050919050565b5f5f90505f600190505b5f548110156113d65760045f8281526020019081526020015f205f3373ffffffffffffffffffffffffffffffffffffffff1673ffffffffffffffffffffffffffffffffffffffff1681526020019081526020015f205f9054906101000a900460ff16156113c957600191506113d6565b8080600101915050611359565b508061140e576040517fd6d54b1200000000000000000000000000000000000000000000000000000000815260040160405180910390fd5b6001805f6101000a81548160ff0219169083151502179055507fab35696f06e428ebc5ceba8cd17f8fed287baf43440206d1943af1ee53e6d26760405160405180910390a150565b6004602052815f5260405f20602052805f5260405f205f915091509054906101000a900460ff1681565b345f81036114ba576040517f2c5211c600000000000000000000000000000000000000000000000000000000815260040160405180910390fd5b60015f9054906101000a900460ff1615611500576040517f76756f4800000000000000000000000000000000000000000000000000000000815260040160405180910390fd5b5f60035f3373ffffffffffffffffffffffffffffffffffffffff1673ffffffffffffffffffffffffffffffffffffffff1681526020019081526020015f205490505f810361157a576040517fd0864efa00000000000000000000000000000000000000000000000000000000815260040160405180910390fd5b60055f8281526020019081526020015f205f3373ffffffffffffffffffffffffffffffffffffffff1673ffffffffffffffffffffffffffffffffffffffff1681526020019081526020015f205f015f9054906101000a900460ff16158061163a575060055f8281526020019081526020015f205f3373ffffffffffffffffffffffffffffffffffffffff1673ffffffffffffffffffffffffffffffffffffffff1681526020019081526020015f205f0160019054906101000a900460ff16155b15611671576040517f36a5bcb100000000000000000000000000000000000000000000000000000000815260040160405180910390fd5b5f60075f8381526020019081526020015f205f8573ffffffffffffffffffffffffffffffffffffffff1673ffffffffffffffffffffffffffffffffffffffff1681526020019081526020015f209050805f0160019054906101000a900460ff16611707576040517f1fbd8f5a00000000000000000000000000000000000000000000000000000000815260040160405180910390fd5b5f815f015f9054906101000a900460ff1690503460055f8581526020019081526020015f205f3373ffffffffffffffffffffffffffffffffffffffff1673ffffffffffffffffffffffffffffffffffffffff1681526020019081526020015f206001015f8282829054906101000a90046fffffffffffffffffffffffffffffffff166117939190614963565b92506101000a8154816fffffffffffffffffffffffffffffffff02191690836fffffffffffffffffffffffffffffffff1602179055505f8573ffffffffffffffffffffffffffffffffffffffff16346040516117ee906149d3565b5f6040518083038185875af1925050503d805f8114611828576040519150601f19603f3d011682016040523d82523d5f602084013e61182d565b606091505b5050905080611868576040517f90b8ec1800000000000000000000000000000000000000000000000000000000815260040160405180910390fd5b8573ffffffffffffffffffffffffffffffffffffffff163373ffffffffffffffffffffffffffffffffffffffff16857fbed233680248ae008237cb16d3e535b08942089a410f06954689eb1b7411a37a34866040516118c89291906149e7565b60405180910390a48573ffffffffffffffffffffffffffffffffffffffff163373ffffffffffffffffffffffffffffffffffffffff16857fd68922662578f2d3e32538c4be08d44218500803ef3f633f4d89c6431c93fa0c34866001426040516119359493929190614a0e565b60405180910390a4505050505050565b815f81148061195557505f548110155b8061197f575060025f8281526020019081526020015f2060010160149054906101000a900460ff16155b156119b6576040517f7e0ba9ad00000000000000000000000000000000000000000000000000000000815260040160405180910390fd5b8260045f8281526020019081526020015f205f3373ffffffffffffffffffffffffffffffffffffffff1673ffffffffffffffffffffffffffffffffffffffff1681526020019081526020015f205f9054906101000a900460ff16611a46576040517fd6d54b1200000000000000000000000000000000000000000000000000000000815260040160405180910390fd5b5f60035f8573ffffffffffffffffffffffffffffffffffffffff1673ffffffffffffffffffffffffffffffffffffffff1681526020019081526020015f205414611abc576040517f2e10184900000000000000000000000000000000000000000000000000000000815260040160405180910390fd5b60055f8581526020019081526020015f205f8473ffffffffffffffffffffffffffffffffffffffff1673ffffffffffffffffffffffffffffffffffffffff1681526020019081526020015f205f0160019054906101000a900460ff1615611b4f576040517fff33650c00000000000000000000000000000000000000000000000000000000815260040160405180910390fd5b6040518060a001604052806001151581526020016001151581526020014263ffffffff1681526020015f6fffffffffffffffffffffffffffffffff1681526020015f6fffffffffffffffffffffffffffffffff1681525060055f8681526020019081526020015f205f8573ffffffffffffffffffffffffffffffffffffffff1673ffffffffffffffffffffffffffffffffffffffff1681526020019081526020015f205f820151815f015f6101000a81548160ff0219169083151502179055506020820151815f0160016101000a81548160ff0219169083151502179055506040820151815f0160026101000a81548163ffffffff021916908363ffffffff1602179055506060820151815f0160066101000a8154816fffffffffffffffffffffffffffffffff02191690836fffffffffffffffffffffffffffffffff1602179055506080820151816001015f6101000a8154816fffffffffffffffffffffffffffffffff02191690836fffffffffffffffffffffffffffffffff16021790555090505060025f8581526020019081526020015f2060030183908060018154018082558091505060019003905f5260205f20015f9091909190916101000a81548173ffffffffffffffffffffffffffffffffffffffff021916908373ffffffffffffffffffffffffffffffffffffffff1602179055508360035f8573ffffffffffffffffffffffffffffffffffffffff1673ffffffffffffffffffffffffffffffffffffffff1681526020019081526020015f20819055503373ffffffffffffffffffffffffffffffffffffffff168373ffffffffffffffffffffffffffffffffffffffff16857f890647a2e90692352e89b49c2d00ce5f8a1fc0ef397acdeab3086703ea52f1f660405160405180910390a450505050565b815f811480611df857505f548110155b80611e22575060025f8281526020019081526020015f2060010160149054906101000a900460ff16155b15611e59576040517f7e0ba9ad00000000000000000000000000000000000000000000000000000000815260040160405180910390fd5b8260045f8281526020019081526020015f205f3373ffffffffffffffffffffffffffffffffffffffff1673ffffffffffffffffffffffffffffffffffffffff1681526020019081526020015f205f9054906101000a900460ff16611ee9576040517fd6d54b1200000000000000000000000000000000000000000000000000000000815260040160405180910390fd5b60075f8581526020019081526020015f205f8473ffffffffffffffffffffffffffffffffffffffff1673ffffffffffffffffffffffffffffffffffffffff1681526020019081526020015f205f0160019054906101000a900460ff16611f7b576040517f2d04581900000000000000000000000000000000000000000000000000000000815260040160405180910390fd5b5f60075f8681526020019081526020015f205f8573ffffffffffffffffffffffffffffffffffffffff1673ffffffffffffffffffffffffffffffffffffffff1681526020019081526020015f205f0160016101000a81548160ff0219169083151502179055505f60025f8681526020019081526020015f2060040190505f5f90505b818054905081101561216e578473ffffffffffffffffffffffffffffffffffffffff1682828154811061203357612032614a51565b5b905f5260205f20015f9054906101000a900473ffffffffffffffffffffffffffffffffffffffff1673ffffffffffffffffffffffffffffffffffffffff16036121615781600183805490506120889190614a7e565b8154811061209957612098614a51565b5b905f5260205f20015f9054906101000a900473ffffffffffffffffffffffffffffffffffffffff168282815481106120d4576120d3614a51565b5b905f5260205f20015f6101000a81548173ffffffffffffffffffffffffffffffffffffffff021916908373ffffffffffffffffffffffffffffffffffffffff1602179055508180548061212a57612129614ab1565b5b600190038181905f5260205f20015f6101000a81549073ffffffffffffffffffffffffffffffffffffffff0219169055905561216e565b8080600101915050611ffd565b503373ffffffffffffffffffffffffffffffffffffffff168473ffffffffffffffffffffffffffffffffffffffff16867fa9f90b55970e1c378d2dedf42f9234ae12f0b29cefb6d76143e4968e119c12ba60405160405180910390a45050505050565b6121d96141c0565b6121e16141c0565b6121e96141c0565b845f8114806121f957505f548110155b80612223575060025f8281526020019081526020015f2060010160149054906101000a900460ff16155b1561225a576040517f7e0ba9ad00000000000000000000000000000000000000000000000000000000815260040160405180910390fd5b60045f8781526020019081526020015f205f3373ffffffffffffffffffffffffffffffffffffffff1673ffffffffffffffffffffffffffffffffffffffff1681526020019081526020015f205f9054906101000a900460ff161580156122ec57508473ffffffffffffffffffffffffffffffffffffffff163373ffffffffffffffffffffffffffffffffffffffff1614155b15612323576040517fd6d54b1200000000000000000000000000000000000000000000000000000000815260040160405180910390fd5b5f5f90505b600560ff168160ff1610156125a7575f8160ff16600481111561234e5761234d61474a565b5b90505f60065f8a81526020019081526020015f205f8973ffffffffffffffffffffffffffffffffffffffff1673ffffffffffffffffffffffffffffffffffffffff1681526020019081526020015f205f8360048111156123b1576123b061474a565b5b60048111156123c3576123c261474a565b5b81526020019081526020015f209050805f0160109054906101000a90046fffffffffffffffffffffffffffffffff16878460ff166005811061240857612407614a51565b5b60200201906fffffffffffffffffffffffffffffffff1690816fffffffffffffffffffffffffffffffff1681525050805f015f9054906101000a90046fffffffffffffffffffffffffffffffff16868460ff166005811061246c5761246b614a51565b5b60200201906fffffffffffffffffffffffffffffffff1690816fffffffffffffffffffffffffffffffff1681525050805f0160109054906101000a90046fffffffffffffffffffffffffffffffff166fffffffffffffffffffffffffffffffff16815f015f9054906101000a90046fffffffffffffffffffffffffffffffff166fffffffffffffffffffffffffffffffff1611612509575f612553565b805f0160109054906101000a90046fffffffffffffffffffffffffffffffff16815f015f9054906101000a90046fffffffffffffffffffffffffffffffff166125529190614ade565b5b858460ff166005811061256957612568614a51565b5b60200201906fffffffffffffffffffffffffffffffff1690816fffffffffffffffffffffffffffffffff168152505050508080600101915050612328565b50509250925092565b5f47905090565b815f8114806125c757505f548110155b806125f1575060025f8281526020019081526020015f2060010160149054906101000a900460ff16155b15612628576040517f7e0ba9ad00000000000000000000000000000000000000000000000000000000815260040160405180910390fd5b8260045f8281526020019081526020015f205f3373ffffffffffffffffffffffffffffffffffffffff1673ffffffffffffffffffffffffffffffffffffffff1681526020019081526020015f205f9054906101000a900460ff166126b8576040517fd6d54b1200000000000000000000000000000000000000000000000000000000815260040160405180910390fd5b60055f8581526020019081526020015f205f8473ffffffffffffffffffffffffffffffffffffffff1673ffffffffffffffffffffffffffffffffffffffff1681526020019081526020015f205f015f9054906101000a900460ff161580612778575060055f8581526020019081526020015f205f8473ffffffffffffffffffffffffffffffffffffffff1673ffffffffffffffffffffffffffffffffffffffff1681526020019081526020015f205f0160019054906101000a900460ff16155b156127af576040517fbbcb4a1f00000000000000000000000000000000000000000000000000000000815260040160405180910390fd5b5f60055f8681526020019081526020015f205f8573ffffffffffffffffffffffffffffffffffffffff1673ffffffffffffffffffffffffffffffffffffffff1681526020019081526020015f205f0160016101000a81548160ff0219169083151502179055505f60035f8573ffffffffffffffffffffffffffffffffffffffff1673ffffffffffffffffffffffffffffffffffffffff1681526020019081526020015f20819055505f60025f8681526020019081526020015f2060030190505f5f90505b81805490508110156129e4578473ffffffffffffffffffffffffffffffffffffffff168282815481106128a9576128a8614a51565b5b905f5260205f20015f9054906101000a900473ffffffffffffffffffffffffffffffffffffffff1673ffffffffffffffffffffffffffffffffffffffff16036129d75781600183805490506128fe9190614a7e565b8154811061290f5761290e614a51565b5b905f5260205f20015f9054906101000a900473ffffffffffffffffffffffffffffffffffffffff1682828154811061294a57612949614a51565b5b905f5260205f20015f6101000a81548173ffffffffffffffffffffffffffffffffffffffff021916908373ffffffffffffffffffffffffffffffffffffffff160217905550818054806129a05761299f614ab1565b5b600190038181905f5260205f20015f6101000a81549073ffffffffffffffffffffffffffffffffffffffff021916905590556129e4565b8080600101915050612873565b503373ffffffffffffffffffffffffffffffffffffffff168473ffffffffffffffffffffffffffffffffffffffff16867f90f9c3783b6b02894b0d2efca6783ddd9d05f001f95c0522b53563c0d344da9760405160405180910390a45050505050565b6003602052805f5260405f205f915090505481565b5f835f811480612a6d57505f548110155b80612a97575060025f8281526020019081526020015f2060010160149054906101000a900460ff16155b15612ace576040517f7e0ba9ad00000000000000000000000000000000000000000000000000000000815260040160405180910390fd5b5f60065f8781526020019081526020015f205f8673ffffffffffffffffffffffffffffffffffffffff1673ffffffffffffffffffffffffffffffffffffffff1681526020019081526020015f205f856004811115612b2f57612b2e61474a565b5b6004811115612b4157612b4061474a565b5b81526020019081526020015f209050805f0160109054906101000a90046fffffffffffffffffffffffffffffffff166fffffffffffffffffffffffffffffffff16815f015f9054906101000a90046fffffffffffffffffffffffffffffffff166fffffffffffffffffffffffffffffffff1611612bbe575f612c08565b805f0160109054906101000a90046fffffffffffffffffffffffffffffffff16815f015f9054906101000a90046fffffffffffffffffffffffffffffffff16612c079190614ade565b5b925050509392505050565b5f5481565b5f60035f8373ffffffffffffffffffffffffffffffffffffffff1673ffffffffffffffffffffffffffffffffffffffff1681526020019081526020015f20549050919050565b6007602052815f5260405f20602052805f5260405f205f9150915050805f015f9054906101000a900460ff1690805f0160019054906101000a900460ff16905082565b6060815f811480612cb357505f548110155b80612cdd575060025f8281526020019081526020015f2060010160149054906101000a900460ff16155b15612d14576040517f7e0ba9ad00000000000000000000000000000000000000000000000000000000815260040160405180910390fd5b8260045f8281526020019081526020015f205f3373ffffffffffffffffffffffffffffffffffffffff1673ffffffffffffffffffffffffffffffffffffffff1681526020019081526020015f205f9054906101000a900460ff16612da4576040517fd6d54b1200000000000000000000000000000000000000000000000000000000815260040160405180910390fd5b60025f8581526020019081526020015f20600401805480602002602001604051908101604052809291908181526020018280548015612e3557602002820191905f5260205f20905b815f9054906101000a900473ffffffffffffffffffffffffffffffffffffffff1673ffffffffffffffffffffffffffffffffffffffff1681526020019060010190808311612dec575b505050505092505050919050565b60015f9054906101000a900460ff1681565b5f5f90505f600190505b5f54811015612edc5760045f8281526020019081526020015f205f3373ffffffffffffffffffffffffffffffffffffffff1673ffffffffffffffffffffffffffffffffffffffff1681526020019081526020015f205f9054906101000a900460ff1615612ecf5760019150612edc565b8080600101915050612e5f565b5080612f14576040517fd6d54b1200000000000000000000000000000000000000000000000000000000815260040160405180910390fd5b5f60015f6101000a81548160ff0219169083151502179055507f0e5e3b3fb504c22cf5c42fa07d521225937514c654007e1f12646f89768d6f9460405160405180910390a150565b835f811480612f6c57505f548110155b80612f96575060025f8281526020019081526020015f2060010160149054906101000a900460ff16155b15612fcd576040517f7e0ba9ad00000000000000000000000000000000000000000000000000000000815260040160405180910390fd5b8460045f8281526020019081526020015f205f3373ffffffffffffffffffffffffffffffffffffffff1673ffffffffffffffffffffffffffffffffffffffff1681526020019081526020015f205f9054906101000a900460ff1661305d576040517fd6d54b1200000000000000000000000000000000000000000000000000000000815260040160405180910390fd5b60055f8781526020019081526020015f205f8673ffffffffffffffffffffffffffffffffffffffff1673ffffffffffffffffffffffffffffffffffffffff1681526020019081526020015f205f015f9054906101000a900460ff16158061311d575060055f8781526020019081526020015f205f8673ffffffffffffffffffffffffffffffffffffffff1673ffffffffffffffffffffffffffffffffffffffff1681526020019081526020015f205f0160019054906101000a900460ff16155b15613154576040517fbbcb4a1f00000000000000000000000000000000000000000000000000000000815260040160405180910390fd5b8260065f8881526020019081526020015f205f8773ffffffffffffffffffffffffffffffffffffffff1673ffffffffffffffffffffffffffffffffffffffff1681526020019081526020015f205f8660048111156131b5576131b461474a565b5b60048111156131c7576131c661474a565b5b81526020019081526020015f205f015f6101000a8154816fffffffffffffffffffffffffffffffff02191690836fffffffffffffffffffffffffffffffff16021790555083600481111561321e5761321d61474a565b5b8573ffffffffffffffffffffffffffffffffffffffff16877f4b02f5f1a9520c490b3bc01ab5eb35043a3d09cd574271b93721bde8a236da3a8633604051613267929190614b5a565b60405180910390a4505050505050565b6006602052825f5260405f20602052815f5260405f20602052805f5260405f205f925092505050805f015f9054906101000a90046fffffffffffffffffffffffffffffffff1690805f0160109054906101000a90046fffffffffffffffffffffffffffffffff16905082565b6005602052815f5260405f20602052805f5260405f205f9150915050805f015f9054906101000a900460ff1690805f0160019054906101000a900460ff1690805f0160029054906101000a900463ffffffff1690805f0160069054906101000a90046fffffffffffffffffffffffffffffffff1690806001015f9054906101000a90046fffffffffffffffffffffffffffffffff16905085565b815f81148061338d57505f548110155b806133b7575060025f8281526020019081526020015f2060010160149054906101000a900460ff16155b156133ee576040517f7e0ba9ad00000000000000000000000000000000000000000000000000000000815260040160405180910390fd5b8260045f8281526020019081526020015f205f3373ffffffffffffffffffffffffffffffffffffffff1673ffffffffffffffffffffffffffffffffffffffff1681526020019081526020015f205f9054906101000a900460ff1661347e576040517fd6d54b1200000000000000000000000000000000000000000000000000000000815260040160405180910390fd5b5f60035f8573ffffffffffffffffffffffffffffffffffffffff1673ffffffffffffffffffffffffffffffffffffffff1681526020019081526020015f2054146134f4576040517f2e10184900000000000000000000000000000000000000000000000000000000815260040160405180910390fd5b60045f8581526020019081526020015f205f8473ffffffffffffffffffffffffffffffffffffffff1673ffffffffffffffffffffffffffffffffffffffff1681526020019081526020015f205f9054906101000a900460ff1615613584576040517f631c401000000000000000000000000000000000000000000000000000000000815260040160405180910390fd5b600160045f8681526020019081526020015f205f8573ffffffffffffffffffffffffffffffffffffffff1673ffffffffffffffffffffffffffffffffffffffff1681526020019081526020015f205f6101000a81548160ff02191690831515021790555060025f8581526020019081526020015f2060020183908060018154018082558091505060019003905f5260205f20015f9091909190916101000a81548173ffffffffffffffffffffffffffffffffffffffff021916908373ffffffffffffffffffffffffffffffffffffffff1602179055508360035f8573ffffffffffffffffffffffffffffffffffffffff1673ffffffffffffffffffffffffffffffffffffffff1681526020019081526020015f20819055506040518060a001604052805f151581526020016001151581526020014263ffffffff1681526020015f6fffffffffffffffffffffffffffffffff1681526020015f6fffffffffffffffffffffffffffffffff1681525060055f8681526020019081526020015f205f8573ffffffffffffffffffffffffffffffffffffffff1673ffffffffffffffffffffffffffffffffffffffff1681526020019081526020015f205f820151815f015f6101000a81548160ff0219169083151502179055506020820151815f0160016101000a81548160ff0219169083151502179055506040820151815f0160026101000a81548163ffffffff021916908363ffffffff1602179055506060820151815f0160066101000a8154816fffffffffffffffffffffffffffffffff02191690836fffffffffffffffffffffffffffffffff1602179055506080820151816001015f6101000a8154816fffffffffffffffffffffffffffffffff02191690836fffffffffffffffffffffffffffffffff1602179055509050503373ffffffffffffffffffffffffffffffffffffffff168373ffffffffffffffffffffffffffffffffffffffff16857f104dac28eb2785b620a5871b8c5ab096b02a8e0831864c6c8a8ab8827f51a52660405160405180910390a450505050565b5f5f60035f3373ffffffffffffffffffffffffffffffffffffffff1673ffffffffffffffffffffffffffffffffffffffff1681526020019081526020015f2054146138f7576040517f2e10184900000000000000000000000000000000000000000000000000000000815260040160405180910390fd5b5f5f81548092919061390890614b81565b9190505590506040518060e001604052808281526020013373ffffffffffffffffffffffffffffffffffffffff1681526020016001151581526020014263ffffffff1681526020015f67ffffffffffffffff81111561396a57613969614bc8565b5b6040519080825280602002602001820160405280156139985781602001602082028036833780820191505090505b5081526020015f67ffffffffffffffff8111156139b8576139b7614bc8565b5b6040519080825280602002602001820160405280156139e65781602001602082028036833780820191505090505b5081526020015f67ffffffffffffffff811115613a0657613a05614bc8565b5b604051908082528060200260200182016040528015613a345781602001602082028036833780820191505090505b5081525060025f8381526020019081526020015f205f820151815f01556020820151816001015f6101000a81548173ffffffffffffffffffffffffffffffffffffffff021916908373ffffffffffffffffffffffffffffffffffffffff16021790555060408201518160010160146101000a81548160ff02191690831515021790555060608201518160010160156101000a81548163ffffffff021916908363ffffffff1602179055506080820151816002019080519060200190613afa9291906141e2565b5060a0820151816003019080519060200190613b179291906141e2565b5060c0820151816004019080519060200190613b349291906141e2565b50905050600160045f8381526020019081526020015f205f3373ffffffffffffffffffffffffffffffffffffffff1673ffffffffffffffffffffffffffffffffffffffff1681526020019081526020015f205f6101000a81548160ff02191690831515021790555060025f8281526020019081526020015f2060020133908060018154018082558091505060019003905f5260205f20015f9091909190916101000a81548173ffffffffffffffffffffffffffffffffffffffff021916908373ffffffffffffffffffffffffffffffffffffffff1602179055508060035f3373ffffffffffffffffffffffffffffffffffffffff1673ffffffffffffffffffffffffffffffffffffffff1681526020019081526020015f20819055506040518060a001604052805f151581526020016001151581526020014263ffffffff1681526020015f6fffffffffffffffffffffffffffffffff1681526020015f6fffffffffffffffffffffffffffffffff1681525060055f8381526020019081526020015f205f3373ffffffffffffffffffffffffffffffffffffffff1673ffffffffffffffffffffffffffffffffffffffff1681526020019081526020015f205f820151815f015f6101000a81548160ff0219169083151502179055506020820151815f0160016101000a81548160ff0219169083151502179055506040820151815f0160026101000a81548163ffffffff021916908363ffffffff1602179055506060820151815f0160066101000a8154816fffffffffffffffffffffffffffffffff02191690836fffffffffffffffffffffffffffffffff1602179055506080820151816001015f6101000a8154816fffffffffffffffffffffffffffffffff02191690836fffffffffffffffffffffffffffffffff1602179055509050503373ffffffffffffffffffffffffffffffffffffffff16817f104edd53295748488cecb9b63227a6e7f695fc0a3ecd358a945deae80163cc0e60405160405180910390a390565b6060815f811480613e2c57505f548110155b80613e56575060025f8281526020019081526020015f2060010160149054906101000a900460ff16155b15613e8d576040517f7e0ba9ad00000000000000000000000000000000000000000000000000000000815260040160405180910390fd5b828060035f3373ffffffffffffffffffffffffffffffffffffffff1673ffffffffffffffffffffffffffffffffffffffff1681526020019081526020015f205414613f04576040517f2ea69d3400000000000000000000000000000000000000000000000000000000815260040160405180910390fd5b60025f8581526020019081526020015f20600201805480602002602001604051908101604052809291908181526020018280548015613f9557602002820191905f5260205f20905b815f9054906101000a900473ffffffffffffffffffffffffffffffffffffffff1673ffffffffffffffffffffffffffffffffffffffff1681526020019060010190808311613f4c575b505050505092505050919050565b5f60055f8481526020019081526020015f205f8373ffffffffffffffffffffffffffffffffffffffff1673ffffffffffffffffffffffffffffffffffffffff1681526020019081526020015f20905062278d00815f0160029054906101000a900463ffffffff1663ffffffff1661401a9190614930565b42106141bb575f5f90505b600560ff168160ff16101561410e575f60065f8681526020019081526020015f205f8573ffffffffffffffffffffffffffffffffffffffff1673ffffffffffffffffffffffffffffffffffffffff1681526020019081526020015f205f8360ff1660048111156140985761409761474a565b5b60048111156140aa576140a961474a565b5b60048111156140bc576140bb61474a565b5b81526020019081526020015f205f0160106101000a8154816fffffffffffffffffffffffffffffffff02191690836fffffffffffffffffffffffffffffffff1602179055508080600101915050614025565b505f816001015f6101000a8154816fffffffffffffffffffffffffffffffff02191690836fffffffffffffffffffffffffffffffff16021790555042815f0160026101000a81548163ffffffff021916908363ffffffff1602179055508173ffffffffffffffffffffffffffffffffffffffff16837f0562c4d705e835fa67ca259e2a0c9b0b58a8a2485d529fe45c70243d3750748a426040516141b29190614709565b60405180910390a35b505050565b6040518060a00160405280600590602082028036833780820191505090505090565b828054828255905f5260205f20908101928215614258579160200282015b82811115614257578251825f6101000a81548173ffffffffffffffffffffffffffffffffffffffff021916908373ffffffffffffffffffffffffffffffffffffffff16021790555091602001919060010190614200565b5b5090506142659190614269565b5090565b5b80821115614280575f815f90555060010161426a565b5090565b5f5ffd5b5f819050919050565b61429a81614288565b81146142a4575f5ffd5b50565b5f813590506142b581614291565b92915050565b5f602082840312156142d0576142cf614284565b5b5f6142dd848285016142a7565b91505092915050565b6142ef81614288565b82525050565b5f73ffffffffffffffffffffffffffffffffffffffff82169050919050565b5f61431e826142f5565b9050919050565b61432e81614314565b82525050565b5f8115159050919050565b61434881614334565b82525050565b5f63ffffffff82169050919050565b6143668161434e565b82525050565b5f60808201905061437f5f8301876142e6565b61438c6020830186614325565b614399604083018561433f565b6143a6606083018461435d565b95945050505050565b5f60e0820190506143c25f83018a6142e6565b6143cf6020830189614325565b6143dc604083018861433f565b6143e9606083018761435d565b6143f660808301866142e6565b61440360a08301856142e6565b61441060c08301846142e6565b98975050505050505050565b61442581614314565b811461442f575f5ffd5b50565b5f813590506144408161441c565b92915050565b60058110614452575f5ffd5b50565b5f8135905061446381614446565b92915050565b5f5f5f606084860312156144805761447f614284565b5b5f61448d868287016142a7565b935050602061449e86828701614432565b92505060406144af86828701614455565b9150509250925092565b5f602082840312156144ce576144cd614284565b5b5f6144db84828501614432565b91505092915050565b5f81519050919050565b5f82825260208201905092915050565b5f819050602082019050919050565b61451681614314565b82525050565b5f614527838361450d565b60208301905092915050565b5f602082019050919050565b5f614549826144e4565b61455381856144ee565b935061455e836144fe565b805f5b8381101561458e578151614575888261451c565b975061458083614533565b925050600181019050614561565b5085935050505092915050565b5f6020820190508181035f8301526145b3818461453f565b905092915050565b5f5f604083850312156145d1576145d0614284565b5b5f6145de858286016142a7565b92505060206145ef85828601614432565b9150509250929050565b5f60208201905061460c5f83018461433f565b92915050565b5f60059050919050565b5f81905092915050565b5f819050919050565b5f6fffffffffffffffffffffffffffffffff82169050919050565b6146538161462f565b82525050565b5f614664838361464a565b60208301905092915050565b5f602082019050919050565b61468581614612565b61468f818461461c565b925061469a82614626565b805f5b838110156146ca5781516146b18782614659565b96506146bc83614670565b92505060018101905061469d565b505050505050565b5f6101e0820190506146e65f83018661467c565b6146f360a083018561467c565b61470161014083018461467c565b949350505050565b5f60208201905061471c5f8301846142e6565b92915050565b61472b8161462f565b82525050565b5f6020820190506147445f830184614722565b92915050565b7f4e487b71000000000000000000000000000000000000000000000000000000005f52602160045260245ffd5b600581106147885761478761474a565b5b50565b5f81905061479882614777565b919050565b5f6147a78261478b565b9050919050565b6147b78161479d565b82525050565b5f6040820190506147d05f8301856147ae565b6147dd602083018461433f565b9392505050565b6147ed8161462f565b81146147f7575f5ffd5b50565b5f81359050614808816147e4565b92915050565b5f5f5f5f6080858703121561482657614825614284565b5b5f614833878288016142a7565b945050602061484487828801614432565b935050604061485587828801614455565b9250506060614866878288016147fa565b91505092959194509250565b5f6040820190506148855f830185614722565b6148926020830184614722565b9392505050565b5f60a0820190506148ac5f83018861433f565b6148b9602083018761433f565b6148c6604083018661435d565b6148d36060830185614722565b6148e06080830184614722565b9695505050505050565b5f6020820190506148fd5f830184614325565b92915050565b7f4e487b71000000000000000000000000000000000000000000000000000000005f52601160045260245ffd5b5f61493a82614288565b915061494583614288565b925082820190508082111561495d5761495c614903565b5b92915050565b5f61496d8261462f565b91506149788361462f565b925082820190506fffffffffffffffffffffffffffffffff8111156149a05761499f614903565b5b92915050565b5f81905092915050565b50565b5f6149be5f836149a6565b91506149c9826149b0565b5f82019050919050565b5f6149dd826149b3565b9150819050919050565b5f6040820190506149fa5f8301856142e6565b614a0760208301846147ae565b9392505050565b5f608082019050614a215f8301876142e6565b614a2e60208301866147ae565b614a3b604083018561433f565b614a4860608301846142e6565b95945050505050565b7f4e487b71000000000000000000000000000000000000000000000000000000005f52603260045260245ffd5b5f614a8882614288565b9150614a9383614288565b9250828203905081811115614aab57614aaa614903565b5b92915050565b7f4e487b71000000000000000000000000000000000000000000000000000000005f52603160045260245ffd5b5f614ae88261462f565b9150614af38361462f565b925082820390506fffffffffffffffffffffffffffffffff811115614b1b57614b1a614903565b5b92915050565b5f819050919050565b5f614b44614b3f614b3a8461462f565b614b21565b614288565b9050919050565b614b5481614b2a565b82525050565b5f604082019050614b6d5f830185614b4b565b614b7a6020830184614325565b9392505050565b5f614b8b82614288565b91507fffffffffffffffffffffffffffffffffffffffffffffffffffffffffffffffff8203614bbd57614bbc614903565b5b600182019050919050565b7f4e487b71000000000000000000000000000000000000000000000000000000005f52604160045260245ffdfea26469706673582212208c19c81abfa8c67af6c60f01c8198522e473467cdec9ea9c6c286ec23d1065d564736f6c634300081e0033",
    "linkReferences": {}
  },
  "methodIdentifiers": {
    "addChildToFamily(uint256,address)": "5c708595",
    "addParentToFamily(uint256,address)": "d639c384",
    "addVendorToFamily(uint256,address,uint8)": "2caadc1d",
    "createFamily()": "d7cfc6c1",
    "families(uint256)": "078beae5",
    "familyCategorySpending(uint256,address,uint8)": "b9ccb6d8",
    "familyParents(uint256,address)": "4e3855fa",
    "familyUsers(uint256,address)": "c5f6855a",
    "familyVendors(uint256,address)": "a7e8bcad",
    "getContractBalance()": "6f9fb98a",
    "getDetailedReport(uint256,address)": "6d4388a0",
    "getFamilyChildren(uint256)": "3ea30a35",
    "getFamilyInfo(uint256)": "1776219e",
    "getFamilyParents(uint256)": "ebfe4972",
    "getFamilyVendors(uint256)": "a86bb7e3",
    "getRemainingLimit(uint256,address,uint8)": "8553f6fb",
    "getUserFamily(address)": "a79ea1a5",
    "isPaused()": "b187bd26",
    "makeEmergencyPayment(address)": "53c7cd81",
    "makePayment(address)": "300be4fc",
    "nextFamilyId()": "a7697728",
    "pauseContract()": "439766ce",
    "removeChildFromFamily(uint256,address)": "71428a9a",
    "removeVendorFromFamily(uint256,address)": "6210f0eb",
    "setLimitForChild(uint256,address,uint8,uint128)": "b87f0a3b",
    "unpauseContract()": "b33712c5",
    "userToFamily(address)": "7952859b"
  },
  "id": 21
}