{
    "abi": [
        {
            "type": "constructor",
            "inputs": [],
            "stateMutability": "nonpayable"
        },
        {
            "type": "receive",
            "stateMutability": "payable"
        },
        {
            "type": "function",
            "name": "addChildToFamily",
            "inputs": [
                {
                    "name": "familyId",
                    "type": "uint256",
                    "internalType": "uint256"
                },
                {
                    "name": "child",
                    "type": "address",
                    "internalType": "address"
                }
            ],
            "outputs": [],
            "stateMutability": "nonpayable"
        },
        {
            "type": "function",
            "name": "addFunds",
            "inputs": [
                {
                    "name": "familyId",
                    "type": "uint256",
                    "internalType": "uint256"
                }
            ],
            "outputs": [],
            "stateMutability": "payable"
        },
        {
            "type": "function",
            "name": "addParentToFamily",
            "inputs": [
                {
                    "name": "familyId",
                    "type": "uint256",
                    "internalType": "uint256"
                },
                {
                    "name": "newParent",
                    "type": "address",
                    "internalType": "address"
                }
            ],
            "outputs": [],
            "stateMutability": "nonpayable"
        },
        {
            "type": "function",
            "name": "addVendorToFamily",
            "inputs": [
                {
                    "name": "familyId",
                    "type": "uint256",
                    "internalType": "uint256"
                },
                {
                    "name": "vendor",
                    "type": "address",
                    "internalType": "address"
                },
                {
                    "name": "category",
                    "type": "uint8",
                    "internalType": "enum FamilySharedWallet.Category"
                }
            ],
            "outputs": [],
            "stateMutability": "nonpayable"
        },
        {
            "type": "function",
            "name": "createFamily",
            "inputs": [],
            "outputs": [
                {
                    "name": "familyId",
                    "type": "uint256",
                    "internalType": "uint256"
                }
            ],
            "stateMutability": "payable"
        },
        {
            "type": "function",
            "name": "families",
            "inputs": [
                {
                    "name": "",
                    "type": "uint256",
                    "internalType": "uint256"
                }
            ],
            "outputs": [
                {
                    "name": "familyId",
                    "type": "uint256",
                    "internalType": "uint256"
                },
                {
                    "name": "familyCreator",
                    "type": "address",
                    "internalType": "address"
                },
                {
                    "name": "isActive",
                    "type": "bool",
                    "internalType": "bool"
                },
                {
                    "name": "createdAt",
                    "type": "uint32",
                    "internalType": "uint32"
                },
                {
                    "name": "familyBalance",
                    "type": "uint256",
                    "internalType": "uint256"
                }
            ],
            "stateMutability": "view"
        },
        {
            "type": "function",
            "name": "familyCategorySpending",
            "inputs": [
                {
                    "name": "",
                    "type": "uint256",
                    "internalType": "uint256"
                },
                {
                    "name": "",
                    "type": "address",
                    "internalType": "address"
                },
                {
                    "name": "",
                    "type": "uint8",
                    "internalType": "enum FamilySharedWallet.Category"
                }
            ],
            "outputs": [
                {
                    "name": "limit",
                    "type": "uint128",
                    "internalType": "uint128"
                },
                {
                    "name": "spent",
                    "type": "uint128",
                    "internalType": "uint128"
                }
            ],
            "stateMutability": "view"
        },
        {
            "type": "function",
            "name": "familyParents",
            "inputs": [
                {
                    "name": "",
                    "type": "uint256",
                    "internalType": "uint256"
                },
                {
                    "name": "",
                    "type": "address",
                    "internalType": "address"
                }
            ],
            "outputs": [
                {
                    "name": "",
                    "type": "bool",
                    "internalType": "bool"
                }
            ],
            "stateMutability": "view"
        },
        {
            "type": "function",
            "name": "familyUsers",
            "inputs": [
                {
                    "name": "",
                    "type": "uint256",
                    "internalType": "uint256"
                },
                {
                    "name": "",
                    "type": "address",
                    "internalType": "address"
                }
            ],
            "outputs": [
                {
                    "name": "isChild",
                    "type": "bool",
                    "internalType": "bool"
                },
                {
                    "name": "isActive",
                    "type": "bool",
                    "internalType": "bool"
                },
                {
                    "name": "lastResetTime",
                    "type": "uint32",
                    "internalType": "uint32"
                },
                {
                    "name": "totalMonthlyLimit",
                    "type": "uint128",
                    "internalType": "uint128"
                },
                {
                    "name": "totalSpent",
                    "type": "uint128",
                    "internalType": "uint128"
                }
            ],
            "stateMutability": "view"
        },
        {
            "type": "function",
            "name": "familyVendors",
            "inputs": [
                {
                    "name": "",
                    "type": "uint256",
                    "internalType": "uint256"
                },
                {
                    "name": "",
                    "type": "address",
                    "internalType": "address"
                }
            ],
            "outputs": [
                {
                    "name": "category",
                    "type": "uint8",
                    "internalType": "enum FamilySharedWallet.Category"
                },
                {
                    "name": "isActive",
                    "type": "bool",
                    "internalType": "bool"
                },
                {
                    "name": "spendingLimit",
                    "type": "uint128",
                    "internalType": "uint128"
                },
                {
                    "name": "spentThisMonth",
                    "type": "uint128",
                    "internalType": "uint128"
                },
                {
                    "name": "lastResetTime",
                    "type": "uint32",
                    "internalType": "uint32"
                }
            ],
            "stateMutability": "view"
        },
        {
            "type": "function",
            "name": "getContractBalance",
            "inputs": [],
            "outputs": [
                {
                    "name": "",
                    "type": "uint256",
                    "internalType": "uint256"
                }
            ],
            "stateMutability": "view"
        },
        {
            "type": "function",
            "name": "getDetailedReport",
            "inputs": [
                {
                    "name": "familyId",
                    "type": "uint256",
                    "internalType": "uint256"
                },
                {
                    "name": "child",
                    "type": "address",
                    "internalType": "address"
                }
            ],
            "outputs": [
                {
                    "name": "spent",
                    "type": "uint128[5]",
                    "internalType": "uint128[5]"
                },
                {
                    "name": "limits",
                    "type": "uint128[5]",
                    "internalType": "uint128[5]"
                },
                {
                    "name": "remaining",
                    "type": "uint128[5]",
                    "internalType": "uint128[5]"
                }
            ],
            "stateMutability": "view"
        },
        {
            "type": "function",
            "name": "getFamilyChildren",
            "inputs": [
                {
                    "name": "familyId",
                    "type": "uint256",
                    "internalType": "uint256"
                }
            ],
            "outputs": [
                {
                    "name": "",
                    "type": "address[]",
                    "internalType": "address[]"
                }
            ],
            "stateMutability": "view"
        },
        {
            "type": "function",
            "name": "getFamilyInfo",
            "inputs": [
                {
                    "name": "familyId",
                    "type": "uint256",
                    "internalType": "uint256"
                }
            ],
            "outputs": [
                {
                    "name": "id",
                    "type": "uint256",
                    "internalType": "uint256"
                },
                {
                    "name": "creator",
                    "type": "address",
                    "internalType": "address"
                },
                {
                    "name": "active",
                    "type": "bool",
                    "internalType": "bool"
                },
                {
                    "name": "createdAt",
                    "type": "uint32",
                    "internalType": "uint32"
                },
                {
                    "name": "parentCount",
                    "type": "uint256",
                    "internalType": "uint256"
                },
                {
                    "name": "childCount",
                    "type": "uint256",
                    "internalType": "uint256"
                },
                {
                    "name": "vendorCount",
                    "type": "uint256",
                    "internalType": "uint256"
                },
                {
                    "name": "familyBalance",
                    "type": "uint256",
                    "internalType": "uint256"
                }
            ],
            "stateMutability": "view"
        },
        {
            "type": "function",
            "name": "getFamilyParents",
            "inputs": [
                {
                    "name": "familyId",
                    "type": "uint256",
                    "internalType": "uint256"
                }
            ],
            "outputs": [
                {
                    "name": "",
                    "type": "address[]",
                    "internalType": "address[]"
                }
            ],
            "stateMutability": "view"
        },
        {
            "type": "function",
            "name": "getFamilyVendors",
            "inputs": [
                {
                    "name": "familyId",
                    "type": "uint256",
                    "internalType": "uint256"
                }
            ],
            "outputs": [
                {
                    "name": "",
                    "type": "address[]",
                    "internalType": "address[]"
                }
            ],
            "stateMutability": "view"
        },
        {
            "type": "function",
            "name": "getRemainingLimit",
            "inputs": [
                {
                    "name": "familyId",
                    "type": "uint256",
                    "internalType": "uint256"
                },
                {
                    "name": "child",
                    "type": "address",
                    "internalType": "address"
                },
                {
                    "name": "category",
                    "type": "uint8",
                    "internalType": "enum FamilySharedWallet.Category"
                }
            ],
            "outputs": [
                {
                    "name": "remaining",
                    "type": "uint128",
                    "internalType": "uint128"
                }
            ],
            "stateMutability": "view"
        },
        {
            "type": "function",
            "name": "getUserFamily",
            "inputs": [
                {
                    "name": "user",
                    "type": "address",
                    "internalType": "address"
                }
            ],
            "outputs": [
                {
                    "name": "",
                    "type": "uint256",
                    "internalType": "uint256"
                }
            ],
            "stateMutability": "view"
        },
        {
            "type": "function",
            "name": "getVendorLimit",
            "inputs": [
                {
                    "name": "familyId",
                    "type": "uint256",
                    "internalType": "uint256"
                },
                {
                    "name": "vendor",
                    "type": "address",
                    "internalType": "address"
                }
            ],
            "outputs": [
                {
                    "name": "limit",
                    "type": "uint128",
                    "internalType": "uint128"
                },
                {
                    "name": "spent",
                    "type": "uint128",
                    "internalType": "uint128"
                }
            ],
            "stateMutability": "view"
        },
        {
            "type": "function",
            "name": "isPaused",
            "inputs": [],
            "outputs": [
                {
                    "name": "",
                    "type": "bool",
                    "internalType": "bool"
                }
            ],
            "stateMutability": "view"
        },
        {
            "type": "function",
            "name": "makeEmergencyPayment",
            "inputs": [
                {
                    "name": "vendor",
                    "type": "address",
                    "internalType": "address"
                }
            ],
            "outputs": [],
            "stateMutability": "payable"
        },
        {
            "type": "function",
            "name": "makePayment",
            "inputs": [
                {
                    "name": "vendor",
                    "type": "address",
                    "internalType": "address"
                }
            ],
            "outputs": [],
            "stateMutability": "payable"
        },
        {
            "type": "function",
            "name": "nextFamilyId",
            "inputs": [],
            "outputs": [
                {
                    "name": "",
                    "type": "uint256",
                    "internalType": "uint256"
                }
            ],
            "stateMutability": "view"
        },
        {
            "type": "function",
            "name": "pauseContract",
            "inputs": [],
            "outputs": [],
            "stateMutability": "nonpayable"
        },
        {
            "type": "function",
            "name": "removeChildFromFamily",
            "inputs": [
                {
                    "name": "familyId",
                    "type": "uint256",
                    "internalType": "uint256"
                },
                {
                    "name": "child",
                    "type": "address",
                    "internalType": "address"
                }
            ],
            "outputs": [],
            "stateMutability": "nonpayable"
        },
        {
            "type": "function",
            "name": "removeVendorFromFamily",
            "inputs": [
                {
                    "name": "familyId",
                    "type": "uint256",
                    "internalType": "uint256"
                },
                {
                    "name": "vendor",
                    "type": "address",
                    "internalType": "address"
                }
            ],
            "outputs": [],
            "stateMutability": "nonpayable"
        },
        {
            "type": "function",
            "name": "setLimitForChild",
            "inputs": [
                {
                    "name": "familyId",
                    "type": "uint256",
                    "internalType": "uint256"
                },
                {
                    "name": "child",
                    "type": "address",
                    "internalType": "address"
                },
                {
                    "name": "category",
                    "type": "uint8",
                    "internalType": "enum FamilySharedWallet.Category"
                },
                {
                    "name": "amount",
                    "type": "uint128",
                    "internalType": "uint128"
                }
            ],
            "outputs": [],
            "stateMutability": "nonpayable"
        },
        {
            "type": "function",
            "name": "setVendorLimit",
            "inputs": [
                {
                    "name": "familyId",
                    "type": "uint256",
                    "internalType": "uint256"
                },
                {
                    "name": "vendor",
                    "type": "address",
                    "internalType": "address"
                },
                {
                    "name": "limit",
                    "type": "uint128",
                    "internalType": "uint128"
                }
            ],
            "outputs": [],
            "stateMutability": "nonpayable"
        },
        {
            "type": "function",
            "name": "unpauseContract",
            "inputs": [],
            "outputs": [],
            "stateMutability": "nonpayable"
        },
        {
            "type": "function",
            "name": "userToFamily",
            "inputs": [
                {
                    "name": "",
                    "type": "address",
                    "internalType": "address"
                }
            ],
            "outputs": [
                {
                    "name": "",
                    "type": "uint256",
                    "internalType": "uint256"
                }
            ],
            "stateMutability": "view"
        },
        {
            "type": "event",
            "name": "ChildAdded",
            "inputs": [
                {
                    "name": "familyId",
                    "type": "uint256",
                    "indexed": true,
                    "internalType": "uint256"
                },
                {
                    "name": "child",
                    "type": "address",
                    "indexed": true,
                    "internalType": "address"
                },
                {
                    "name": "addedBy",
                    "type": "address",
                    "indexed": true,
                    "internalType": "address"
                }
            ],
            "anonymous": false
        },
        {
            "type": "event",
            "name": "ChildRemoved",
            "inputs": [
                {
                    "name": "familyId",
                    "type": "uint256",
                    "indexed": true,
                    "internalType": "uint256"
                },
                {
                    "name": "child",
                    "type": "address",
                    "indexed": true,
                    "internalType": "address"
                },
                {
                    "name": "removedBy",
                    "type": "address",
                    "indexed": true,
                    "internalType": "address"
                }
            ],
            "anonymous": false
        },
        {
            "type": "event",
            "name": "ContractPaused",
            "inputs": [],
            "anonymous": false
        },
        {
            "type": "event",
            "name": "ContractUnpaused",
            "inputs": [],
            "anonymous": false
        },
        {
            "type": "event",
            "name": "EmergencyPayment",
            "inputs": [
                {
                    "name": "familyId",
                    "type": "uint256",
                    "indexed": true,
                    "internalType": "uint256"
                },
                {
                    "name": "child",
                    "type": "address",
                    "indexed": true,
                    "internalType": "address"
                },
                {
                    "name": "vendor",
                    "type": "address",
                    "indexed": true,
                    "internalType": "address"
                },
                {
                    "name": "amount",
                    "type": "uint256",
                    "indexed": false,
                    "internalType": "uint256"
                },
                {
                    "name": "category",
                    "type": "uint8",
                    "indexed": false,
                    "internalType": "enum FamilySharedWallet.Category"
                }
            ],
            "anonymous": false
        },
        {
            "type": "event",
            "name": "FamilyCreated",
            "inputs": [
                {
                    "name": "familyId",
                    "type": "uint256",
                    "indexed": true,
                    "internalType": "uint256"
                },
                {
                    "name": "creator",
                    "type": "address",
                    "indexed": true,
                    "internalType": "address"
                }
            ],
            "anonymous": false
        },
        {
            "type": "event",
            "name": "FundsAdded",
            "inputs": [
                {
                    "name": "familyId",
                    "type": "uint256",
                    "indexed": true,
                    "internalType": "uint256"
                },
                {
                    "name": "from",
                    "type": "address",
                    "indexed": true,
                    "internalType": "address"
                },
                {
                    "name": "amount",
                    "type": "uint256",
                    "indexed": false,
                    "internalType": "uint256"
                }
            ],
            "anonymous": false
        },
        {
            "type": "event",
            "name": "FundsWithdrawn",
            "inputs": [
                {
                    "name": "familyId",
                    "type": "uint256",
                    "indexed": true,
                    "internalType": "uint256"
                },
                {
                    "name": "to",
                    "type": "address",
                    "indexed": true,
                    "internalType": "address"
                },
                {
                    "name": "amount",
                    "type": "uint256",
                    "indexed": false,
                    "internalType": "uint256"
                },
                {
                    "name": "withdrawnBy",
                    "type": "address",
                    "indexed": true,
                    "internalType": "address"
                }
            ],
            "anonymous": false
        },
        {
            "type": "event",
            "name": "LimitSet",
            "inputs": [
                {
                    "name": "familyId",
                    "type": "uint256",
                    "indexed": true,
                    "internalType": "uint256"
                },
                {
                    "name": "child",
                    "type": "address",
                    "indexed": true,
                    "internalType": "address"
                },
                {
                    "name": "category",
                    "type": "uint8",
                    "indexed": true,
                    "internalType": "enum FamilySharedWallet.Category"
                },
                {
                    "name": "amount",
                    "type": "uint256",
                    "indexed": false,
                    "internalType": "uint256"
                },
                {
                    "name": "setBy",
                    "type": "address",
                    "indexed": false,
                    "internalType": "address"
                }
            ],
            "anonymous": false
        },
        {
            "type": "event",
            "name": "LimitsReset",
            "inputs": [
                {
                    "name": "familyId",
                    "type": "uint256",
                    "indexed": true,
                    "internalType": "uint256"
                },
                {
                    "name": "child",
                    "type": "address",
                    "indexed": true,
                    "internalType": "address"
                },
                {
                    "name": "resetTime",
                    "type": "uint256",
                    "indexed": false,
                    "internalType": "uint256"
                }
            ],
            "anonymous": false
        },
        {
            "type": "event",
            "name": "ParentAdded",
            "inputs": [
                {
                    "name": "familyId",
                    "type": "uint256",
                    "indexed": true,
                    "internalType": "uint256"
                },
                {
                    "name": "parent",
                    "type": "address",
                    "indexed": true,
                    "internalType": "address"
                },
                {
                    "name": "addedBy",
                    "type": "address",
                    "indexed": true,
                    "internalType": "address"
                }
            ],
            "anonymous": false
        },
        {
            "type": "event",
            "name": "PaymentMade",
            "inputs": [
                {
                    "name": "familyId",
                    "type": "uint256",
                    "indexed": true,
                    "internalType": "uint256"
                },
                {
                    "name": "child",
                    "type": "address",
                    "indexed": true,
                    "internalType": "address"
                },
                {
                    "name": "vendor",
                    "type": "address",
                    "indexed": true,
                    "internalType": "address"
                },
                {
                    "name": "amount",
                    "type": "uint256",
                    "indexed": false,
                    "internalType": "uint256"
                },
                {
                    "name": "category",
                    "type": "uint8",
                    "indexed": false,
                    "internalType": "enum FamilySharedWallet.Category"
                }
            ],
            "anonymous": false
        },
        {
            "type": "event",
            "name": "TransactionLogged",
            "inputs": [
                {
                    "name": "familyId",
                    "type": "uint256",
                    "indexed": true,
                    "internalType": "uint256"
                },
                {
                    "name": "child",
                    "type": "address",
                    "indexed": true,
                    "internalType": "address"
                },
                {
                    "name": "vendor",
                    "type": "address",
                    "indexed": true,
                    "internalType": "address"
                },
                {
                    "name": "amount",
                    "type": "uint256",
                    "indexed": false,
                    "internalType": "uint256"
                },
                {
                    "name": "category",
                    "type": "uint8",
                    "indexed": false,
                    "internalType": "enum FamilySharedWallet.Category"
                },
                {
                    "name": "emergency",
                    "type": "bool",
                    "indexed": false,
                    "internalType": "bool"
                },
                {
                    "name": "timestamp",
                    "type": "uint256",
                    "indexed": false,
                    "internalType": "uint256"
                }
            ],
            "anonymous": false
        },
        {
            "type": "event",
            "name": "VendorAdded",
            "inputs": [
                {
                    "name": "familyId",
                    "type": "uint256",
                    "indexed": true,
                    "internalType": "uint256"
                },
                {
                    "name": "vendor",
                    "type": "address",
                    "indexed": true,
                    "internalType": "address"
                },
                {
                    "name": "category",
                    "type": "uint8",
                    "indexed": true,
                    "internalType": "enum FamilySharedWallet.Category"
                },
                {
                    "name": "addedBy",
                    "type": "address",
                    "indexed": false,
                    "internalType": "address"
                }
            ],
            "anonymous": false
        },
        {
            "type": "event",
            "name": "VendorLimitSet",
            "inputs": [
                {
                    "name": "familyId",
                    "type": "uint256",
                    "indexed": true,
                    "internalType": "uint256"
                },
                {
                    "name": "vendor",
                    "type": "address",
                    "indexed": true,
                    "internalType": "address"
                },
                {
                    "name": "limit",
                    "type": "uint128",
                    "indexed": false,
                    "internalType": "uint128"
                },
                {
                    "name": "setter",
                    "type": "address",
                    "indexed": true,
                    "internalType": "address"
                }
            ],
            "anonymous": false
        },
        {
            "type": "event",
            "name": "VendorRemoved",
            "inputs": [
                {
                    "name": "familyId",
                    "type": "uint256",
                    "indexed": true,
                    "internalType": "uint256"
                },
                {
                    "name": "vendor",
                    "type": "address",
                    "indexed": true,
                    "internalType": "address"
                },
                {
                    "name": "removedBy",
                    "type": "address",
                    "indexed": true,
                    "internalType": "address"
                }
            ],
            "anonymous": false
        },
        {
            "type": "error",
            "name": "ChildAlreadyExists",
            "inputs": []
        },
        {
            "type": "error",
            "name": "ChildNotFound",
            "inputs": []
        },
        {
            "type": "error",
            "name": "ContractPausedError",
            "inputs": []
        },
        {
            "type": "error",
            "name": "ExceedsLimit",
            "inputs": []
        },
        {
            "type": "error",
            "name": "FamilyNotFound",
            "inputs": []
        },
        {
            "type": "error",
            "name": "InvalidAmount",
            "inputs": []
        },
        {
            "type": "error",
            "name": "InvalidCategory",
            "inputs": []
        },
        {
            "type": "error",
            "name": "InvalidFamilyId",
            "inputs": []
        },
        {
            "type": "error",
            "name": "NotApprovedVendor",
            "inputs": []
        },
        {
            "type": "error",
            "name": "OnlyActiveChild",
            "inputs": []
        },
        {
            "type": "error",
            "name": "OnlyChild",
            "inputs": []
        },
        {
            "type": "error",
            "name": "OnlyFamilyMember",
            "inputs": []
        },
        {
            "type": "error",
            "name": "OnlyParent",
            "inputs": []
        },
        {
            "type": "error",
            "name": "ParentAlreadyExists",
            "inputs": []
        },
        {
            "type": "error",
            "name": "TransferFailed",
            "inputs": []
        },
        {
            "type": "error",
            "name": "UserAlreadyInFamily",
            "inputs": []
        },
        {
            "type": "error",
            "name": "UserNotInFamily",
            "inputs": []
        },
        {
            "type": "error",
            "name": "VendorNotFound",
            "inputs": []
        }
    ],
    "bytecode": {
        "object": "0x6080604052348015600e575f5ffd5b5060015f81905550615857806100235f395ff3fe6080604052600436106101d0575f3560e01c80638aa8983f116100f6578063b87f0a3b11610094578063c5f6855a11610063578063c5f6855a146106ac578063d639c384146106ec578063d7cfc6c114610714578063ebfe497214610732576101d7565b8063b87f0a3b146105ee578063b9ccb6d814610616578063be99970514610653578063c0d829721461066f576101d7565b8063a7e8bcad116100d0578063a7e8bcad14610532578063a86bb7e314610572578063b187bd26146105ae578063b33712c5146105d8576101d7565b80638aa8983f146104a4578063a7697728146104cc578063a79ea1a5146104f6576101d7565b806353c7cd811161016e5780636f9fb98a1161013d5780636f9fb98a146103da57806371428a9a146104045780637952859b1461042c5780638553f6fb14610468576101d7565b806353c7cd81146103305780635c7085951461034c5780636210f0eb146103745780636d4388a01461039c576101d7565b8063300be4fc116101aa578063300be4fc146102865780633ea30a35146102a2578063439766ce146102de5780634e3855fa146102f4576101d7565b8063078beae5146101db5780631776219e1461021b5780632caadc1d1461025e576101d7565b366101d757005b5f5ffd5b3480156101e6575f5ffd5b5061020160048036038101906101fc9190614d08565b61076e565b604051610212959493929190614db9565b60405180910390f35b348015610226575f5ffd5b50610241600480360381019061023c9190614d08565b6107dc565b604051610255989796959493929190614e0a565b60405180910390f35b348015610269575f5ffd5b50610284600480360381019061027f9190614ed3565b61096a565b005b6102a0600480360381019061029b9190614f23565b610cea565b005b3480156102ad575f5ffd5b506102c860048036038101906102c39190614d08565b6115fc565b6040516102d59190615005565b60405180910390f35b3480156102e9575f5ffd5b506102f261179e565b005b3480156102ff575f5ffd5b5061031a60048036038101906103159190615025565b6118a5565b6040516103279190615063565b60405180910390f35b61034a60048036038101906103459190614f23565b6118cf565b005b348015610357575f5ffd5b50610372600480360381019061036d9190615025565b611e15565b005b34801561037f575f5ffd5b5061039a60048036038101906103959190615025565b6122b8565b005b3480156103a7575f5ffd5b506103c260048036038101906103bd9190615025565b6126a1565b6040516103d19392919061513c565b60405180910390f35b3480156103e5575f5ffd5b506103ee612a80565b6040516103fb9190615173565b60405180910390f35b34801561040f575f5ffd5b5061042a60048036038101906104259190615025565b612a87565b005b348015610437575f5ffd5b50610452600480360381019061044d9190614f23565b612f17565b60405161045f9190615173565b60405180910390f35b348015610473575f5ffd5b5061048e60048036038101906104899190614ed3565b612f2c565b60405161049b919061519b565b60405180910390f35b3480156104af575f5ffd5b506104ca60048036038101906104c591906151de565b6130e3565b005b3480156104d7575f5ffd5b506104e0613368565b6040516104ed9190615173565b60405180910390f35b348015610501575f5ffd5b5061051c60048036038101906105179190614f23565b61336d565b6040516105299190615173565b60405180910390f35b34801561053d575f5ffd5b5061055860048036038101906105539190615025565b6133b3565b6040516105699594939291906152a1565b60405180910390f35b34801561057d575f5ffd5b5061059860048036038101906105939190614d08565b61344e565b6040516105a59190615005565b60405180910390f35b3480156105b9575f5ffd5b506105c26135d7565b6040516105cf9190615063565b60405180910390f35b3480156105e3575f5ffd5b506105ec6135e9565b005b3480156105f9575f5ffd5b50610614600480360381019061060f91906152f2565b6136f0565b005b348015610621575f5ffd5b5061063c60048036038101906106379190614ed3565b613a0b565b60405161064a929190615356565b60405180910390f35b61066d60048036038101906106689190614d08565b613a77565b005b34801561067a575f5ffd5b5061069560048036038101906106909190615025565b613c38565b6040516106a3929190615356565b60405180910390f35b3480156106b7575f5ffd5b506106d260048036038101906106cd9190615025565b613cd5565b6040516106e395949392919061537d565b60405180910390f35b3480156106f7575f5ffd5b50610712600480360381019061070d9190615025565b613d6f565b005b61071c614272565b6040516107299190615173565b60405180910390f35b34801561073d575f5ffd5b5061075860048036038101906107539190614d08565b614867565b6040516107659190615005565b60405180910390f35b6002602052805f5260405f205f91509050805f015490806001015f9054906101000a900473ffffffffffffffffffffffffffffffffffffffff16908060010160149054906101000a900460ff16908060010160159054906101000a900463ffffffff16908060050154905085565b5f5f5f5f5f5f5f5f885f8114806107f457505f548110155b8061081e575060025f8281526020019081526020015f2060010160149054906101000a900460ff16155b15610855576040517f7e0ba9ad00000000000000000000000000000000000000000000000000000000815260040160405180910390fd5b898060035f3373ffffffffffffffffffffffffffffffffffffffff1673ffffffffffffffffffffffffffffffffffffffff1681526020019081526020015f2054146108cc576040517f2ea69d3400000000000000000000000000000000000000000000000000000000815260040160405180910390fd5b5f60025f8d81526020019081526020015f209050805f0154816001015f9054906101000a900473ffffffffffffffffffffffffffffffffffffffff168260010160149054906101000a900460ff168360010160159054906101000a900463ffffffff1684600201805490508560030180549050866004018054905087600501549a509a509a509a509a509a509a509a50505050919395975091939597565b825f81148061097a57505f548110155b806109a4575060025f8281526020019081526020015f2060010160149054906101000a900460ff16155b156109db576040517f7e0ba9ad00000000000000000000000000000000000000000000000000000000815260040160405180910390fd5b8360045f8281526020019081526020015f205f3373ffffffffffffffffffffffffffffffffffffffff1673ffffffffffffffffffffffffffffffffffffffff1681526020019081526020015f205f9054906101000a900460ff16610a6b576040517fd6d54b1200000000000000000000000000000000000000000000000000000000815260040160405180910390fd5b6040518060a00160405280846004811115610a8957610a8861522e565b5b81526020016001151581526020015f6fffffffffffffffffffffffffffffffff1681526020015f6fffffffffffffffffffffffffffffffff1681526020014263ffffffff1681525060075f8781526020019081526020015f205f8673ffffffffffffffffffffffffffffffffffffffff1673ffffffffffffffffffffffffffffffffffffffff1681526020019081526020015f205f820151815f015f6101000a81548160ff02191690836004811115610b4557610b4461522e565b5b02179055506020820151815f0160016101000a81548160ff0219169083151502179055506040820151815f0160026101000a8154816fffffffffffffffffffffffffffffffff02191690836fffffffffffffffffffffffffffffffff1602179055506060820151816001015f6101000a8154816fffffffffffffffffffffffffffffffff02191690836fffffffffffffffffffffffffffffffff16021790555060808201518160010160106101000a81548163ffffffff021916908363ffffffff16021790555090505060025f8681526020019081526020015f2060040184908060018154018082558091505060019003905f5260205f20015f9091909190916101000a81548173ffffffffffffffffffffffffffffffffffffffff021916908373ffffffffffffffffffffffffffffffffffffffff160217905550826004811115610c9457610c9361522e565b5b8473ffffffffffffffffffffffffffffffffffffffff16867fa617deb13a8896d9eb498434e4800a6c0a3b80085e7bc42da144a4e78b66688a33604051610cdb91906153ce565b60405180910390a45050505050565b345f8103610d24576040517f2c5211c600000000000000000000000000000000000000000000000000000000815260040160405180910390fd5b60015f9054906101000a900460ff1615610d6a576040517f76756f4800000000000000000000000000000000000000000000000000000000815260040160405180910390fd5b5f60035f3373ffffffffffffffffffffffffffffffffffffffff1673ffffffffffffffffffffffffffffffffffffffff1681526020019081526020015f205490503460025f8381526020019081526020015f20600501541015610e02576040517f08c379a0000000000000000000000000000000000000000000000000000000008152600401610df990615441565b60405180910390fd5b5f8103610e3b576040517fd0864efa00000000000000000000000000000000000000000000000000000000815260040160405180910390fd5b60055f8281526020019081526020015f205f3373ffffffffffffffffffffffffffffffffffffffff1673ffffffffffffffffffffffffffffffffffffffff1681526020019081526020015f205f015f9054906101000a900460ff161580610efb575060055f8281526020019081526020015f205f3373ffffffffffffffffffffffffffffffffffffffff1673ffffffffffffffffffffffffffffffffffffffff1681526020019081526020015f205f0160019054906101000a900460ff16155b15610f32576040517f36a5bcb100000000000000000000000000000000000000000000000000000000815260040160405180910390fd5b5f60075f8381526020019081526020015f205f8573ffffffffffffffffffffffffffffffffffffffff1673ffffffffffffffffffffffffffffffffffffffff1681526020019081526020015f209050805f0160019054906101000a900460ff16610fc8576040517f1fbd8f5a00000000000000000000000000000000000000000000000000000000815260040160405180910390fd5b62278d008160010160109054906101000a900463ffffffff1663ffffffff16610ff1919061548c565b4210611055575f816001015f6101000a8154816fffffffffffffffffffffffffffffffff02191690836fffffffffffffffffffffffffffffffff160217905550428160010160106101000a81548163ffffffff021916908363ffffffff1602179055505b5f815f0160029054906101000a90046fffffffffffffffffffffffffffffffff166fffffffffffffffffffffffffffffffff16111561119a57805f0160029054906101000a90046fffffffffffffffffffffffffffffffff166fffffffffffffffffffffffffffffffff1634826001015f9054906101000a90046fffffffffffffffffffffffffffffffff166fffffffffffffffffffffffffffffffff166110fd919061548c565b1115611135576040517f4f2a111200000000000000000000000000000000000000000000000000000000815260040160405180910390fd5b34816001015f8282829054906101000a90046fffffffffffffffffffffffffffffffff1661116391906154bf565b92506101000a8154816fffffffffffffffffffffffffffffffff02191690836fffffffffffffffffffffffffffffffff1602179055505b5f815f015f9054906101000a900460ff1690506111b783336149f0565b5f60065f8581526020019081526020015f205f3373ffffffffffffffffffffffffffffffffffffffff1673ffffffffffffffffffffffffffffffffffffffff1681526020019081526020015f205f8360048111156112185761121761522e565b5b600481111561122a5761122961522e565b5b81526020019081526020015f209050805f015f9054906101000a90046fffffffffffffffffffffffffffffffff166fffffffffffffffffffffffffffffffff1634825f0160109054906101000a90046fffffffffffffffffffffffffffffffff166fffffffffffffffffffffffffffffffff166112a7919061548c565b11156112df576040517f4f2a111200000000000000000000000000000000000000000000000000000000815260040160405180910390fd5b34815f0160108282829054906101000a90046fffffffffffffffffffffffffffffffff1661130d91906154bf565b92506101000a8154816fffffffffffffffffffffffffffffffff02191690836fffffffffffffffffffffffffffffffff1602179055503460055f8681526020019081526020015f205f3373ffffffffffffffffffffffffffffffffffffffff1673ffffffffffffffffffffffffffffffffffffffff1681526020019081526020015f206001015f8282829054906101000a90046fffffffffffffffffffffffffffffffff166113bc91906154bf565b92506101000a8154816fffffffffffffffffffffffffffffffff02191690836fffffffffffffffffffffffffffffffff1602179055503460025f8681526020019081526020015f206005015f8282546114159190615502565b9250508190555034815f0160108282829054906101000a90046fffffffffffffffffffffffffffffffff1661144a91906154bf565b92506101000a8154816fffffffffffffffffffffffffffffffff02191690836fffffffffffffffffffffffffffffffff1602179055505f8673ffffffffffffffffffffffffffffffffffffffff16346040516114a590615562565b5f6040518083038185875af1925050503d805f81146114df576040519150601f19603f3d011682016040523d82523d5f602084013e6114e4565b606091505b505090508061151f576040517f90b8ec1800000000000000000000000000000000000000000000000000000000815260040160405180910390fd5b8673ffffffffffffffffffffffffffffffffffffffff163373ffffffffffffffffffffffffffffffffffffffff16867f2d950edfe585735b2d5e6359eec49e6f905c96a71889600f3a970121aefcd597348760405161157f929190615576565b60405180910390a48673ffffffffffffffffffffffffffffffffffffffff163373ffffffffffffffffffffffffffffffffffffffff16867fd68922662578f2d3e32538c4be08d44218500803ef3f633f4d89c6431c93fa0c34875f426040516115eb949392919061559d565b60405180910390a450505050505050565b6060815f81148061160e57505f548110155b80611638575060025f8281526020019081526020015f2060010160149054906101000a900460ff16155b1561166f576040517f7e0ba9ad00000000000000000000000000000000000000000000000000000000815260040160405180910390fd5b8260045f8281526020019081526020015f205f3373ffffffffffffffffffffffffffffffffffffffff1673ffffffffffffffffffffffffffffffffffffffff1681526020019081526020015f205f9054906101000a900460ff166116ff576040517fd6d54b1200000000000000000000000000000000000000000000000000000000815260040160405180910390fd5b60025f8581526020019081526020015f2060030180548060200260200160405190810160405280929190818152602001828054801561179057602002820191905f5260205f20905b815f9054906101000a900473ffffffffffffffffffffffffffffffffffffffff1673ffffffffffffffffffffffffffffffffffffffff1681526020019060010190808311611747575b505050505092505050919050565b5f5f90505f600190505b5f548110156118255760045f8281526020019081526020015f205f3373ffffffffffffffffffffffffffffffffffffffff1673ffffffffffffffffffffffffffffffffffffffff1681526020019081526020015f205f9054906101000a900460ff16156118185760019150611825565b80806001019150506117a8565b508061185d576040517fd6d54b1200000000000000000000000000000000000000000000000000000000815260040160405180910390fd5b6001805f6101000a81548160ff0219169083151502179055507fab35696f06e428ebc5ceba8cd17f8fed287baf43440206d1943af1ee53e6d26760405160405180910390a150565b6004602052815f5260405f20602052805f5260405f205f915091509054906101000a900460ff1681565b345f8103611909576040517f2c5211c600000000000000000000000000000000000000000000000000000000815260040160405180910390fd5b60015f9054906101000a900460ff161561194f576040517f76756f4800000000000000000000000000000000000000000000000000000000815260040160405180910390fd5b5f60035f3373ffffffffffffffffffffffffffffffffffffffff1673ffffffffffffffffffffffffffffffffffffffff1681526020019081526020015f205490503460025f8381526020019081526020015f206005015410156119e7576040517f08c379a00000000000000000000000000000000000000000000000000000000081526004016119de90615441565b60405180910390fd5b5f8103611a20576040517fd0864efa00000000000000000000000000000000000000000000000000000000815260040160405180910390fd5b60055f8281526020019081526020015f205f3373ffffffffffffffffffffffffffffffffffffffff1673ffffffffffffffffffffffffffffffffffffffff1681526020019081526020015f205f015f9054906101000a900460ff161580611ae0575060055f8281526020019081526020015f205f3373ffffffffffffffffffffffffffffffffffffffff1673ffffffffffffffffffffffffffffffffffffffff1681526020019081526020015f205f0160019054906101000a900460ff16155b15611b17576040517f36a5bcb100000000000000000000000000000000000000000000000000000000815260040160405180910390fd5b5f60075f8381526020019081526020015f205f8573ffffffffffffffffffffffffffffffffffffffff1673ffffffffffffffffffffffffffffffffffffffff1681526020019081526020015f209050805f0160019054906101000a900460ff16611bad576040517f1fbd8f5a00000000000000000000000000000000000000000000000000000000815260040160405180910390fd5b5f815f015f9054906101000a900460ff1690503460055f8581526020019081526020015f205f3373ffffffffffffffffffffffffffffffffffffffff1673ffffffffffffffffffffffffffffffffffffffff1681526020019081526020015f206001015f8282829054906101000a90046fffffffffffffffffffffffffffffffff16611c3991906154bf565b92506101000a8154816fffffffffffffffffffffffffffffffff02191690836fffffffffffffffffffffffffffffffff1602179055505f8573ffffffffffffffffffffffffffffffffffffffff1634604051611c9490615562565b5f6040518083038185875af1925050503d805f8114611cce576040519150601f19603f3d011682016040523d82523d5f602084013e611cd3565b606091505b5050905080611d0e576040517f90b8ec1800000000000000000000000000000000000000000000000000000000815260040160405180910390fd5b3460025f8681526020019081526020015f206005015f828254611d319190615502565b925050819055508573ffffffffffffffffffffffffffffffffffffffff163373ffffffffffffffffffffffffffffffffffffffff16857fbed233680248ae008237cb16d3e535b08942089a410f06954689eb1b7411a37a3486604051611d98929190615576565b60405180910390a48573ffffffffffffffffffffffffffffffffffffffff163373ffffffffffffffffffffffffffffffffffffffff16857fd68922662578f2d3e32538c4be08d44218500803ef3f633f4d89c6431c93fa0c3486600142604051611e05949392919061559d565b60405180910390a4505050505050565b815f811480611e2557505f548110155b80611e4f575060025f8281526020019081526020015f2060010160149054906101000a900460ff16155b15611e86576040517f7e0ba9ad00000000000000000000000000000000000000000000000000000000815260040160405180910390fd5b8260045f8281526020019081526020015f205f3373ffffffffffffffffffffffffffffffffffffffff1673ffffffffffffffffffffffffffffffffffffffff1681526020019081526020015f205f9054906101000a900460ff16611f16576040517fd6d54b1200000000000000000000000000000000000000000000000000000000815260040160405180910390fd5b5f60035f8573ffffffffffffffffffffffffffffffffffffffff1673ffffffffffffffffffffffffffffffffffffffff1681526020019081526020015f205414611f8c576040517f2e10184900000000000000000000000000000000000000000000000000000000815260040160405180910390fd5b60055f8581526020019081526020015f205f8473ffffffffffffffffffffffffffffffffffffffff1673ffffffffffffffffffffffffffffffffffffffff1681526020019081526020015f205f0160019054906101000a900460ff161561201f576040517fff33650c00000000000000000000000000000000000000000000000000000000815260040160405180910390fd5b6040518060a001604052806001151581526020016001151581526020014263ffffffff1681526020015f6fffffffffffffffffffffffffffffffff1681526020015f6fffffffffffffffffffffffffffffffff1681525060055f8681526020019081526020015f205f8573ffffffffffffffffffffffffffffffffffffffff1673ffffffffffffffffffffffffffffffffffffffff1681526020019081526020015f205f820151815f015f6101000a81548160ff0219169083151502179055506020820151815f0160016101000a81548160ff0219169083151502179055506040820151815f0160026101000a81548163ffffffff021916908363ffffffff1602179055506060820151815f0160066101000a8154816fffffffffffffffffffffffffffffffff02191690836fffffffffffffffffffffffffffffffff1602179055506080820151816001015f6101000a8154816fffffffffffffffffffffffffffffffff02191690836fffffffffffffffffffffffffffffffff16021790555090505060025f8581526020019081526020015f2060030183908060018154018082558091505060019003905f5260205f20015f9091909190916101000a81548173ffffffffffffffffffffffffffffffffffffffff021916908373ffffffffffffffffffffffffffffffffffffffff1602179055508360035f8573ffffffffffffffffffffffffffffffffffffffff1673ffffffffffffffffffffffffffffffffffffffff1681526020019081526020015f20819055503373ffffffffffffffffffffffffffffffffffffffff168373ffffffffffffffffffffffffffffffffffffffff16857f890647a2e90692352e89b49c2d00ce5f8a1fc0ef397acdeab3086703ea52f1f660405160405180910390a450505050565b815f8114806122c857505f548110155b806122f2575060025f8281526020019081526020015f2060010160149054906101000a900460ff16155b15612329576040517f7e0ba9ad00000000000000000000000000000000000000000000000000000000815260040160405180910390fd5b8260045f8281526020019081526020015f205f3373ffffffffffffffffffffffffffffffffffffffff1673ffffffffffffffffffffffffffffffffffffffff1681526020019081526020015f205f9054906101000a900460ff166123b9576040517fd6d54b1200000000000000000000000000000000000000000000000000000000815260040160405180910390fd5b60075f8581526020019081526020015f205f8473ffffffffffffffffffffffffffffffffffffffff1673ffffffffffffffffffffffffffffffffffffffff1681526020019081526020015f205f0160019054906101000a900460ff1661244b576040517f2d04581900000000000000000000000000000000000000000000000000000000815260040160405180910390fd5b5f60075f8681526020019081526020015f205f8573ffffffffffffffffffffffffffffffffffffffff1673ffffffffffffffffffffffffffffffffffffffff1681526020019081526020015f205f0160016101000a81548160ff0219169083151502179055505f60025f8681526020019081526020015f2060040190505f5f90505b818054905081101561263e578473ffffffffffffffffffffffffffffffffffffffff16828281548110612503576125026155e0565b5b905f5260205f20015f9054906101000a900473ffffffffffffffffffffffffffffffffffffffff1673ffffffffffffffffffffffffffffffffffffffff16036126315781600183805490506125589190615502565b81548110612569576125686155e0565b5b905f5260205f20015f9054906101000a900473ffffffffffffffffffffffffffffffffffffffff168282815481106125a4576125a36155e0565b5b905f5260205f20015f6101000a81548173ffffffffffffffffffffffffffffffffffffffff021916908373ffffffffffffffffffffffffffffffffffffffff160217905550818054806125fa576125f961560d565b5b600190038181905f5260205f20015f6101000a81549073ffffffffffffffffffffffffffffffffffffffff0219169055905561263e565b80806001019150506124cd565b503373ffffffffffffffffffffffffffffffffffffffff168473ffffffffffffffffffffffffffffffffffffffff16867fa9f90b55970e1c378d2dedf42f9234ae12f0b29cefb6d76143e4968e119c12ba60405160405180910390a45050505050565b6126a9614c0d565b6126b1614c0d565b6126b9614c0d565b845f8114806126c957505f548110155b806126f3575060025f8281526020019081526020015f2060010160149054906101000a900460ff16155b1561272a576040517f7e0ba9ad00000000000000000000000000000000000000000000000000000000815260040160405180910390fd5b60045f8781526020019081526020015f205f3373ffffffffffffffffffffffffffffffffffffffff1673ffffffffffffffffffffffffffffffffffffffff1681526020019081526020015f205f9054906101000a900460ff161580156127bc57508473ffffffffffffffffffffffffffffffffffffffff163373ffffffffffffffffffffffffffffffffffffffff1614155b156127f3576040517fd6d54b1200000000000000000000000000000000000000000000000000000000815260040160405180910390fd5b5f5f90505b600560ff168160ff161015612a77575f8160ff16600481111561281e5761281d61522e565b5b90505f60065f8a81526020019081526020015f205f8973ffffffffffffffffffffffffffffffffffffffff1673ffffffffffffffffffffffffffffffffffffffff1681526020019081526020015f205f8360048111156128815761288061522e565b5b60048111156128935761289261522e565b5b81526020019081526020015f209050805f0160109054906101000a90046fffffffffffffffffffffffffffffffff16878460ff16600581106128d8576128d76155e0565b5b60200201906fffffffffffffffffffffffffffffffff1690816fffffffffffffffffffffffffffffffff1681525050805f015f9054906101000a90046fffffffffffffffffffffffffffffffff16868460ff166005811061293c5761293b6155e0565b5b60200201906fffffffffffffffffffffffffffffffff1690816fffffffffffffffffffffffffffffffff1681525050805f0160109054906101000a90046fffffffffffffffffffffffffffffffff166fffffffffffffffffffffffffffffffff16815f015f9054906101000a90046fffffffffffffffffffffffffffffffff166fffffffffffffffffffffffffffffffff16116129d9575f612a23565b805f0160109054906101000a90046fffffffffffffffffffffffffffffffff16815f015f9054906101000a90046fffffffffffffffffffffffffffffffff16612a22919061563a565b5b858460ff1660058110612a3957612a386155e0565b5b60200201906fffffffffffffffffffffffffffffffff1690816fffffffffffffffffffffffffffffffff1681525050505080806001019150506127f8565b50509250925092565b5f47905090565b815f811480612a9757505f548110155b80612ac1575060025f8281526020019081526020015f2060010160149054906101000a900460ff16155b15612af8576040517f7e0ba9ad00000000000000000000000000000000000000000000000000000000815260040160405180910390fd5b8260045f8281526020019081526020015f205f3373ffffffffffffffffffffffffffffffffffffffff1673ffffffffffffffffffffffffffffffffffffffff1681526020019081526020015f205f9054906101000a900460ff16612b88576040517fd6d54b1200000000000000000000000000000000000000000000000000000000815260040160405180910390fd5b60055f8581526020019081526020015f205f8473ffffffffffffffffffffffffffffffffffffffff1673ffffffffffffffffffffffffffffffffffffffff1681526020019081526020015f205f015f9054906101000a900460ff161580612c48575060055f8581526020019081526020015f205f8473ffffffffffffffffffffffffffffffffffffffff1673ffffffffffffffffffffffffffffffffffffffff1681526020019081526020015f205f0160019054906101000a900460ff16155b15612c7f576040517fbbcb4a1f00000000000000000000000000000000000000000000000000000000815260040160405180910390fd5b5f60055f8681526020019081526020015f205f8573ffffffffffffffffffffffffffffffffffffffff1673ffffffffffffffffffffffffffffffffffffffff1681526020019081526020015f205f0160016101000a81548160ff0219169083151502179055505f60035f8573ffffffffffffffffffffffffffffffffffffffff1673ffffffffffffffffffffffffffffffffffffffff1681526020019081526020015f20819055505f60025f8681526020019081526020015f2060030190505f5f90505b8180549050811015612eb4578473ffffffffffffffffffffffffffffffffffffffff16828281548110612d7957612d786155e0565b5b905f5260205f20015f9054906101000a900473ffffffffffffffffffffffffffffffffffffffff1673ffffffffffffffffffffffffffffffffffffffff1603612ea7578160018380549050612dce9190615502565b81548110612ddf57612dde6155e0565b5b905f5260205f20015f9054906101000a900473ffffffffffffffffffffffffffffffffffffffff16828281548110612e1a57612e196155e0565b5b905f5260205f20015f6101000a81548173ffffffffffffffffffffffffffffffffffffffff021916908373ffffffffffffffffffffffffffffffffffffffff16021790555081805480612e7057612e6f61560d565b5b600190038181905f5260205f20015f6101000a81549073ffffffffffffffffffffffffffffffffffffffff02191690559055612eb4565b8080600101915050612d43565b503373ffffffffffffffffffffffffffffffffffffffff168473ffffffffffffffffffffffffffffffffffffffff16867f90f9c3783b6b02894b0d2efca6783ddd9d05f001f95c0522b53563c0d344da9760405160405180910390a45050505050565b6003602052805f5260405f205f915090505481565b5f835f811480612f3d57505f548110155b80612f67575060025f8281526020019081526020015f2060010160149054906101000a900460ff16155b15612f9e576040517f7e0ba9ad00000000000000000000000000000000000000000000000000000000815260040160405180910390fd5b5f60065f8781526020019081526020015f205f8673ffffffffffffffffffffffffffffffffffffffff1673ffffffffffffffffffffffffffffffffffffffff1681526020019081526020015f205f856004811115612fff57612ffe61522e565b5b60048111156130115761301061522e565b5b81526020019081526020015f209050805f0160109054906101000a90046fffffffffffffffffffffffffffffffff166fffffffffffffffffffffffffffffffff16815f015f9054906101000a90046fffffffffffffffffffffffffffffffff166fffffffffffffffffffffffffffffffff161161308e575f6130d8565b805f0160109054906101000a90046fffffffffffffffffffffffffffffffff16815f015f9054906101000a90046fffffffffffffffffffffffffffffffff166130d7919061563a565b5b925050509392505050565b825f8114806130f357505f548110155b8061311d575060025f8281526020019081526020015f2060010160149054906101000a900460ff16155b15613154576040517f7e0ba9ad00000000000000000000000000000000000000000000000000000000815260040160405180910390fd5b8360045f8281526020019081526020015f205f3373ffffffffffffffffffffffffffffffffffffffff1673ffffffffffffffffffffffffffffffffffffffff1681526020019081526020015f205f9054906101000a900460ff166131e4576040517fd6d54b1200000000000000000000000000000000000000000000000000000000815260040160405180910390fd5b60075f8681526020019081526020015f205f8573ffffffffffffffffffffffffffffffffffffffff1673ffffffffffffffffffffffffffffffffffffffff1681526020019081526020015f205f0160019054906101000a900460ff16613276576040517f2d04581900000000000000000000000000000000000000000000000000000000815260040160405180910390fd5b8260075f8781526020019081526020015f205f8673ffffffffffffffffffffffffffffffffffffffff1673ffffffffffffffffffffffffffffffffffffffff1681526020019081526020015f205f0160026101000a8154816fffffffffffffffffffffffffffffffff02191690836fffffffffffffffffffffffffffffffff1602179055503373ffffffffffffffffffffffffffffffffffffffff168473ffffffffffffffffffffffffffffffffffffffff16867fcb91d0f16becb0798556fe000de95a5aeeb79d34c214093be28413e8f453847a86604051613359919061519b565b60405180910390a45050505050565b5f5481565b5f60035f8373ffffffffffffffffffffffffffffffffffffffff1673ffffffffffffffffffffffffffffffffffffffff1681526020019081526020015f20549050919050565b6007602052815f5260405f20602052805f5260405f205f9150915050805f015f9054906101000a900460ff1690805f0160019054906101000a900460ff1690805f0160029054906101000a90046fffffffffffffffffffffffffffffffff1690806001015f9054906101000a90046fffffffffffffffffffffffffffffffff16908060010160109054906101000a900463ffffffff16905085565b6060815f81148061346057505f548110155b8061348a575060025f8281526020019081526020015f2060010160149054906101000a900460ff16155b156134c1576040517f7e0ba9ad00000000000000000000000000000000000000000000000000000000815260040160405180910390fd5b828060035f3373ffffffffffffffffffffffffffffffffffffffff1673ffffffffffffffffffffffffffffffffffffffff1681526020019081526020015f205414613538576040517f2ea69d3400000000000000000000000000000000000000000000000000000000815260040160405180910390fd5b60025f8581526020019081526020015f206004018054806020026020016040519081016040528092919081815260200182805480156135c957602002820191905f5260205f20905b815f9054906101000a900473ffffffffffffffffffffffffffffffffffffffff1673ffffffffffffffffffffffffffffffffffffffff1681526020019060010190808311613580575b505050505092505050919050565b60015f9054906101000a900460ff1681565b5f5f90505f600190505b5f548110156136705760045f8281526020019081526020015f205f3373ffffffffffffffffffffffffffffffffffffffff1673ffffffffffffffffffffffffffffffffffffffff1681526020019081526020015f205f9054906101000a900460ff16156136635760019150613670565b80806001019150506135f3565b50806136a8576040517fd6d54b1200000000000000000000000000000000000000000000000000000000815260040160405180910390fd5b5f60015f6101000a81548160ff0219169083151502179055507f0e5e3b3fb504c22cf5c42fa07d521225937514c654007e1f12646f89768d6f9460405160405180910390a150565b835f81148061370057505f548110155b8061372a575060025f8281526020019081526020015f2060010160149054906101000a900460ff16155b15613761576040517f7e0ba9ad00000000000000000000000000000000000000000000000000000000815260040160405180910390fd5b8460045f8281526020019081526020015f205f3373ffffffffffffffffffffffffffffffffffffffff1673ffffffffffffffffffffffffffffffffffffffff1681526020019081526020015f205f9054906101000a900460ff166137f1576040517fd6d54b1200000000000000000000000000000000000000000000000000000000815260040160405180910390fd5b60055f8781526020019081526020015f205f8673ffffffffffffffffffffffffffffffffffffffff1673ffffffffffffffffffffffffffffffffffffffff1681526020019081526020015f205f015f9054906101000a900460ff1615806138b1575060055f8781526020019081526020015f205f8673ffffffffffffffffffffffffffffffffffffffff1673ffffffffffffffffffffffffffffffffffffffff1681526020019081526020015f205f0160019054906101000a900460ff16155b156138e8576040517fbbcb4a1f00000000000000000000000000000000000000000000000000000000815260040160405180910390fd5b8260065f8881526020019081526020015f205f8773ffffffffffffffffffffffffffffffffffffffff1673ffffffffffffffffffffffffffffffffffffffff1681526020019081526020015f205f8660048111156139495761394861522e565b5b600481111561395b5761395a61522e565b5b81526020019081526020015f205f015f6101000a8154816fffffffffffffffffffffffffffffffff02191690836fffffffffffffffffffffffffffffffff1602179055508360048111156139b2576139b161522e565b5b8573ffffffffffffffffffffffffffffffffffffffff16877f4b02f5f1a9520c490b3bc01ab5eb35043a3d09cd574271b93721bde8a236da3a86336040516139fb9291906156b6565b60405180910390a4505050505050565b6006602052825f5260405f20602052815f5260405f20602052805f5260405f205f925092505050805f015f9054906101000a90046fffffffffffffffffffffffffffffffff1690805f0160109054906101000a90046fffffffffffffffffffffffffffffffff16905082565b805f811480613a8757505f548110155b80613ab1575060025f8281526020019081526020015f2060010160149054906101000a900460ff16155b15613ae8576040517f7e0ba9ad00000000000000000000000000000000000000000000000000000000815260040160405180910390fd5b8160045f8281526020019081526020015f205f3373ffffffffffffffffffffffffffffffffffffffff1673ffffffffffffffffffffffffffffffffffffffff1681526020019081526020015f205f9054906101000a900460ff16613b78576040517fd6d54b1200000000000000000000000000000000000000000000000000000000815260040160405180910390fd5b5f3411613bba576040517f08c379a0000000000000000000000000000000000000000000000000000000008152600401613bb190615727565b60405180910390fd5b3460025f8581526020019081526020015f206005015f828254613bdd919061548c565b925050819055503373ffffffffffffffffffffffffffffffffffffffff16837f71237963accfab6ceb4010b83f2ad8c635a475fea605b9a1be57cab17d5f9a6534604051613c2b9190615173565b60405180910390a3505050565b5f5f5f60075f8681526020019081526020015f205f8573ffffffffffffffffffffffffffffffffffffffff1673ffffffffffffffffffffffffffffffffffffffff1681526020019081526020015f209050805f0160029054906101000a90046fffffffffffffffffffffffffffffffff169250806001015f9054906101000a90046fffffffffffffffffffffffffffffffff169150509250929050565b6005602052815f5260405f20602052805f5260405f205f9150915050805f015f9054906101000a900460ff1690805f0160019054906101000a900460ff1690805f0160029054906101000a900463ffffffff1690805f0160069054906101000a90046fffffffffffffffffffffffffffffffff1690806001015f9054906101000a90046fffffffffffffffffffffffffffffffff16905085565b815f811480613d7f57505f548110155b80613da9575060025f8281526020019081526020015f2060010160149054906101000a900460ff16155b15613de0576040517f7e0ba9ad00000000000000000000000000000000000000000000000000000000815260040160405180910390fd5b8260045f8281526020019081526020015f205f3373ffffffffffffffffffffffffffffffffffffffff1673ffffffffffffffffffffffffffffffffffffffff1681526020019081526020015f205f9054906101000a900460ff16613e70576040517fd6d54b1200000000000000000000000000000000000000000000000000000000815260040160405180910390fd5b5f60035f8573ffffffffffffffffffffffffffffffffffffffff1673ffffffffffffffffffffffffffffffffffffffff1681526020019081526020015f205414613ee6576040517f2e10184900000000000000000000000000000000000000000000000000000000815260040160405180910390fd5b60045f8581526020019081526020015f205f8473ffffffffffffffffffffffffffffffffffffffff1673ffffffffffffffffffffffffffffffffffffffff1681526020019081526020015f205f9054906101000a900460ff1615613f76576040517f631c401000000000000000000000000000000000000000000000000000000000815260040160405180910390fd5b600160045f8681526020019081526020015f205f8573ffffffffffffffffffffffffffffffffffffffff1673ffffffffffffffffffffffffffffffffffffffff1681526020019081526020015f205f6101000a81548160ff02191690831515021790555060025f8581526020019081526020015f2060020183908060018154018082558091505060019003905f5260205f20015f9091909190916101000a81548173ffffffffffffffffffffffffffffffffffffffff021916908373ffffffffffffffffffffffffffffffffffffffff1602179055508360035f8573ffffffffffffffffffffffffffffffffffffffff1673ffffffffffffffffffffffffffffffffffffffff1681526020019081526020015f20819055506040518060a001604052805f151581526020016001151581526020014263ffffffff1681526020015f6fffffffffffffffffffffffffffffffff1681526020015f6fffffffffffffffffffffffffffffffff1681525060055f8681526020019081526020015f205f8573ffffffffffffffffffffffffffffffffffffffff1673ffffffffffffffffffffffffffffffffffffffff1681526020019081526020015f205f820151815f015f6101000a81548160ff0219169083151502179055506020820151815f0160016101000a81548160ff0219169083151502179055506040820151815f0160026101000a81548163ffffffff021916908363ffffffff1602179055506060820151815f0160066101000a8154816fffffffffffffffffffffffffffffffff02191690836fffffffffffffffffffffffffffffffff1602179055506080820151816001015f6101000a8154816fffffffffffffffffffffffffffffffff02191690836fffffffffffffffffffffffffffffffff1602179055509050503373ffffffffffffffffffffffffffffffffffffffff168373ffffffffffffffffffffffffffffffffffffffff16857f104dac28eb2785b620a5871b8c5ab096b02a8e0831864c6c8a8ab8827f51a52660405160405180910390a450505050565b5f5f60035f3373ffffffffffffffffffffffffffffffffffffffff1673ffffffffffffffffffffffffffffffffffffffff1681526020019081526020015f2054146142e9576040517f2e10184900000000000000000000000000000000000000000000000000000000815260040160405180910390fd5b66b1a2bc2ec50000341015614333576040517f08c379a000000000000000000000000000000000000000000000000000000000815260040161432a9061578f565b60405180910390fd5b5f5f815480929190614344906157ad565b9190505590506040518061010001604052808281526020013373ffffffffffffffffffffffffffffffffffffffff1681526020016001151581526020014263ffffffff1681526020015f67ffffffffffffffff8111156143a7576143a66157f4565b5b6040519080825280602002602001820160405280156143d55781602001602082028036833780820191505090505b5081526020015f67ffffffffffffffff8111156143f5576143f46157f4565b5b6040519080825280602002602001820160405280156144235781602001602082028036833780820191505090505b5081526020015f67ffffffffffffffff811115614443576144426157f4565b5b6040519080825280602002602001820160405280156144715781602001602082028036833780820191505090505b5081526020015f81525060025f8381526020019081526020015f205f820151815f01556020820151816001015f6101000a81548173ffffffffffffffffffffffffffffffffffffffff021916908373ffffffffffffffffffffffffffffffffffffffff16021790555060408201518160010160146101000a81548160ff02191690831515021790555060608201518160010160156101000a81548163ffffffff021916908363ffffffff160217905550608082015181600201908051906020019061453d929190614c2f565b5060a082015181600301908051906020019061455a929190614c2f565b5060c0820151816004019080519060200190614577929190614c2f565b5060e08201518160050155905050600160045f8381526020019081526020015f205f3373ffffffffffffffffffffffffffffffffffffffff1673ffffffffffffffffffffffffffffffffffffffff1681526020019081526020015f205f6101000a81548160ff02191690831515021790555060025f8281526020019081526020015f2060020133908060018154018082558091505060019003905f5260205f20015f9091909190916101000a81548173ffffffffffffffffffffffffffffffffffffffff021916908373ffffffffffffffffffffffffffffffffffffffff1602179055508060035f3373ffffffffffffffffffffffffffffffffffffffff1673ffffffffffffffffffffffffffffffffffffffff1681526020019081526020015f20819055506040518060a001604052805f151581526020016001151581526020014263ffffffff1681526020015f6fffffffffffffffffffffffffffffffff1681526020015f6fffffffffffffffffffffffffffffffff1681525060055f8381526020019081526020015f205f3373ffffffffffffffffffffffffffffffffffffffff1673ffffffffffffffffffffffffffffffffffffffff1681526020019081526020015f205f820151815f015f6101000a81548160ff0219169083151502179055506020820151815f0160016101000a81548160ff0219169083151502179055506040820151815f0160026101000a81548163ffffffff021916908363ffffffff1602179055506060820151815f0160066101000a8154816fffffffffffffffffffffffffffffffff02191690836fffffffffffffffffffffffffffffffff1602179055506080820151816001015f6101000a8154816fffffffffffffffffffffffffffffffff02191690836fffffffffffffffffffffffffffffffff1602179055509050503373ffffffffffffffffffffffffffffffffffffffff16817f104edd53295748488cecb9b63227a6e7f695fc0a3ecd358a945deae80163cc0e60405160405180910390a390565b6060815f81148061487957505f548110155b806148a3575060025f8281526020019081526020015f2060010160149054906101000a900460ff16155b156148da576040517f7e0ba9ad00000000000000000000000000000000000000000000000000000000815260040160405180910390fd5b828060035f3373ffffffffffffffffffffffffffffffffffffffff1673ffffffffffffffffffffffffffffffffffffffff1681526020019081526020015f205414614951576040517f2ea69d3400000000000000000000000000000000000000000000000000000000815260040160405180910390fd5b60025f8581526020019081526020015f206002018054806020026020016040519081016040528092919081815260200182805480156149e257602002820191905f5260205f20905b815f9054906101000a900473ffffffffffffffffffffffffffffffffffffffff1673ffffffffffffffffffffffffffffffffffffffff1681526020019060010190808311614999575b505050505092505050919050565b5f60055f8481526020019081526020015f205f8373ffffffffffffffffffffffffffffffffffffffff1673ffffffffffffffffffffffffffffffffffffffff1681526020019081526020015f20905062278d00815f0160029054906101000a900463ffffffff1663ffffffff16614a67919061548c565b4210614c08575f5f90505b600560ff168160ff161015614b5b575f60065f8681526020019081526020015f205f8573ffffffffffffffffffffffffffffffffffffffff1673ffffffffffffffffffffffffffffffffffffffff1681526020019081526020015f205f8360ff166004811115614ae557614ae461522e565b5b6004811115614af757614af661522e565b5b6004811115614b0957614b0861522e565b5b81526020019081526020015f205f0160106101000a8154816fffffffffffffffffffffffffffffffff02191690836fffffffffffffffffffffffffffffffff1602179055508080600101915050614a72565b505f816001015f6101000a8154816fffffffffffffffffffffffffffffffff02191690836fffffffffffffffffffffffffffffffff16021790555042815f0160026101000a81548163ffffffff021916908363ffffffff1602179055508173ffffffffffffffffffffffffffffffffffffffff16837f0562c4d705e835fa67ca259e2a0c9b0b58a8a2485d529fe45c70243d3750748a42604051614bff9190615173565b60405180910390a35b505050565b6040518060a00160405280600590602082028036833780820191505090505090565b828054828255905f5260205f20908101928215614ca5579160200282015b82811115614ca4578251825f6101000a81548173ffffffffffffffffffffffffffffffffffffffff021916908373ffffffffffffffffffffffffffffffffffffffff16021790555091602001919060010190614c4d565b5b509050614cb29190614cb6565b5090565b5b80821115614ccd575f815f905550600101614cb7565b5090565b5f5ffd5b5f819050919050565b614ce781614cd5565b8114614cf1575f5ffd5b50565b5f81359050614d0281614cde565b92915050565b5f60208284031215614d1d57614d1c614cd1565b5b5f614d2a84828501614cf4565b91505092915050565b614d3c81614cd5565b82525050565b5f73ffffffffffffffffffffffffffffffffffffffff82169050919050565b5f614d6b82614d42565b9050919050565b614d7b81614d61565b82525050565b5f8115159050919050565b614d9581614d81565b82525050565b5f63ffffffff82169050919050565b614db381614d9b565b82525050565b5f60a082019050614dcc5f830188614d33565b614dd96020830187614d72565b614de66040830186614d8c565b614df36060830185614daa565b614e006080830184614d33565b9695505050505050565b5f61010082019050614e1e5f83018b614d33565b614e2b602083018a614d72565b614e386040830189614d8c565b614e456060830188614daa565b614e526080830187614d33565b614e5f60a0830186614d33565b614e6c60c0830185614d33565b614e7960e0830184614d33565b9998505050505050505050565b614e8f81614d61565b8114614e99575f5ffd5b50565b5f81359050614eaa81614e86565b92915050565b60058110614ebc575f5ffd5b50565b5f81359050614ecd81614eb0565b92915050565b5f5f5f60608486031215614eea57614ee9614cd1565b5b5f614ef786828701614cf4565b9350506020614f0886828701614e9c565b9250506040614f1986828701614ebf565b9150509250925092565b5f60208284031215614f3857614f37614cd1565b5b5f614f4584828501614e9c565b91505092915050565b5f81519050919050565b5f82825260208201905092915050565b5f819050602082019050919050565b614f8081614d61565b82525050565b5f614f918383614f77565b60208301905092915050565b5f602082019050919050565b5f614fb382614f4e565b614fbd8185614f58565b9350614fc883614f68565b805f5b83811015614ff8578151614fdf8882614f86565b9750614fea83614f9d565b925050600181019050614fcb565b5085935050505092915050565b5f6020820190508181035f83015261501d8184614fa9565b905092915050565b5f5f6040838503121561503b5761503a614cd1565b5b5f61504885828601614cf4565b925050602061505985828601614e9c565b9150509250929050565b5f6020820190506150765f830184614d8c565b92915050565b5f60059050919050565b5f81905092915050565b5f819050919050565b5f6fffffffffffffffffffffffffffffffff82169050919050565b6150bd81615099565b82525050565b5f6150ce83836150b4565b60208301905092915050565b5f602082019050919050565b6150ef8161507c565b6150f98184615086565b925061510482615090565b805f5b8381101561513457815161511b87826150c3565b9650615126836150da565b925050600181019050615107565b505050505050565b5f6101e0820190506151505f8301866150e6565b61515d60a08301856150e6565b61516b6101408301846150e6565b949350505050565b5f6020820190506151865f830184614d33565b92915050565b61519581615099565b82525050565b5f6020820190506151ae5f83018461518c565b92915050565b6151bd81615099565b81146151c7575f5ffd5b50565b5f813590506151d8816151b4565b92915050565b5f5f5f606084860312156151f5576151f4614cd1565b5b5f61520286828701614cf4565b935050602061521386828701614e9c565b9250506040615224868287016151ca565b9150509250925092565b7f4e487b71000000000000000000000000000000000000000000000000000000005f52602160045260245ffd5b6005811061526c5761526b61522e565b5b50565b5f81905061527c8261525b565b919050565b5f61528b8261526f565b9050919050565b61529b81615281565b82525050565b5f60a0820190506152b45f830188615292565b6152c16020830187614d8c565b6152ce604083018661518c565b6152db606083018561518c565b6152e86080830184614daa565b9695505050505050565b5f5f5f5f6080858703121561530a57615309614cd1565b5b5f61531787828801614cf4565b945050602061532887828801614e9c565b935050604061533987828801614ebf565b925050606061534a878288016151ca565b91505092959194509250565b5f6040820190506153695f83018561518c565b615376602083018461518c565b9392505050565b5f60a0820190506153905f830188614d8c565b61539d6020830187614d8c565b6153aa6040830186614daa565b6153b7606083018561518c565b6153c4608083018461518c565b9695505050505050565b5f6020820190506153e15f830184614d72565b92915050565b5f82825260208201905092915050565b7f496e73756666696369656e742066616d696c792066756e6473000000000000005f82015250565b5f61542b6019836153e7565b9150615436826153f7565b602082019050919050565b5f6020820190508181035f8301526154588161541f565b9050919050565b7f4e487b71000000000000000000000000000000000000000000000000000000005f52601160045260245ffd5b5f61549682614cd5565b91506154a183614cd5565b92508282019050808211156154b9576154b861545f565b5b92915050565b5f6154c982615099565b91506154d483615099565b925082820190506fffffffffffffffffffffffffffffffff8111156154fc576154fb61545f565b5b92915050565b5f61550c82614cd5565b915061551783614cd5565b925082820390508181111561552f5761552e61545f565b5b92915050565b5f81905092915050565b50565b5f61554d5f83615535565b91506155588261553f565b5f82019050919050565b5f61556c82615542565b9150819050919050565b5f6040820190506155895f830185614d33565b6155966020830184615292565b9392505050565b5f6080820190506155b05f830187614d33565b6155bd6020830186615292565b6155ca6040830185614d8c565b6155d76060830184614d33565b95945050505050565b7f4e487b71000000000000000000000000000000000000000000000000000000005f52603260045260245ffd5b7f4e487b71000000000000000000000000000000000000000000000000000000005f52603160045260245ffd5b5f61564482615099565b915061564f83615099565b925082820390506fffffffffffffffffffffffffffffffff8111156156775761567661545f565b5b92915050565b5f819050919050565b5f6156a061569b61569684615099565b61567d565b614cd5565b9050919050565b6156b081615686565b82525050565b5f6040820190506156c95f8301856156a7565b6156d66020830184614d72565b9392505050565b7f4d7573742073656e6420457468657200000000000000000000000000000000005f82015250565b5f615711600f836153e7565b915061571c826156dd565b602082019050919050565b5f6020820190508181035f83015261573e81615705565b9050919050565b7f4e6f7420456e6f75676820416d6f756e740000000000000000000000000000005f82015250565b5f6157796011836153e7565b915061578482615745565b602082019050919050565b5f6020820190508181035f8301526157a68161576d565b9050919050565b5f6157b782614cd5565b91507fffffffffffffffffffffffffffffffffffffffffffffffffffffffffffffffff82036157e9576157e861545f565b5b600182019050919050565b7f4e487b71000000000000000000000000000000000000000000000000000000005f52604160045260245ffdfea26469706673582212209d351486bcd43f253ff46769b5e1812a454158b631d9c9983fed39f916cabd2264736f6c634300081e0033",
        "linkReferences": {}
    },
    "methodIdentifiers": {
        "addChildToFamily(uint256,address)": "5c708595",
        "addFunds(uint256)": "be999705",
        "addParentToFamily(uint256,address)": "d639c384",
        "addVendorToFamily(uint256,address,uint8)": "2caadc1d",
        "createFamily()": "d7cfc6c1",
        "families(uint256)": "078beae5",
        "familyCategorySpending(uint256,address,uint8)": "b9ccb6d8",
        "familyParents(uint256,address)": "4e3855fa",
        "familyUsers(uint256,address)": "c5f6855a",
        "familyVendors(uint256,address)": "a7e8bcad",
        "getContractBalance()": "6f9fb98a",
        "getDetailedReport(uint256,address)": "6d4388a0",
        "getFamilyChildren(uint256)": "3ea30a35",
        "getFamilyInfo(uint256)": "1776219e",
        "getFamilyParents(uint256)": "ebfe4972",
        "getFamilyVendors(uint256)": "a86bb7e3",
        "getRemainingLimit(uint256,address,uint8)": "8553f6fb",
        "getUserFamily(address)": "a79ea1a5",
        "getVendorLimit(uint256,address)": "c0d82972",
        "isPaused()": "b187bd26",
        "makeEmergencyPayment(address)": "53c7cd81",
        "makePayment(address)": "300be4fc",
        "nextFamilyId()": "a7697728",
        "pauseContract()": "439766ce",
        "removeChildFromFamily(uint256,address)": "71428a9a",
        "removeVendorFromFamily(uint256,address)": "6210f0eb",
        "setLimitForChild(uint256,address,uint8,uint128)": "b87f0a3b",
        "setVendorLimit(uint256,address,uint128)": "8aa8983f",
        "unpauseContract()": "b33712c5",
        "userToFamily(address)": "7952859b"
    },
    "id": 16
}